{
  "_format": "hh-sol-artifact-1",
  "contractName": "INFLStake",
  "sourceName": "contracts/StakingNTimelock.sol",
  "abi": [
    {
      "inputs": [
        {
          "internalType": "address",
          "name": "_stakingToken",
          "type": "address"
        },
        {
          "internalType": "uint48",
          "name": "_lockTimePeriod",
          "type": "uint48"
        }
      ],
      "stateMutability": "nonpayable",
      "type": "constructor"
    },
    {
      "anonymous": false,
      "inputs": [
        {
          "indexed": true,
          "internalType": "address",
          "name": "wallet",
          "type": "address"
        },
        {
          "indexed": true,
          "internalType": "address",
          "name": "rewardToken",
          "type": "address"
        },
        {
          "indexed": false,
          "internalType": "uint256",
          "name": "amount",
          "type": "uint256"
        }
      ],
      "name": "Claimed",
      "type": "event"
    },
    {
      "anonymous": false,
      "inputs": [
        {
          "indexed": true,
          "internalType": "address",
          "name": "tokenAddress",
          "type": "address"
        },
        {
          "indexed": true,
          "internalType": "address",
          "name": "receiver",
          "type": "address"
        },
        {
          "indexed": false,
          "internalType": "uint256",
          "name": "amount",
          "type": "uint256"
        }
      ],
      "name": "ERC20TokensRemoved",
      "type": "event"
    },
    {
      "anonymous": false,
      "inputs": [
        {
          "indexed": false,
          "internalType": "uint48",
          "name": "lockTimePeriod",
          "type": "uint48"
        }
      ],
      "name": "LockTimePeriodChanged",
      "type": "event"
    },
    {
      "anonymous": false,
      "inputs": [
        {
          "indexed": true,
          "internalType": "address",
          "name": "oldRewardToken",
          "type": "address"
        },
        {
          "indexed": false,
          "internalType": "uint256",
          "name": "returnedAmount",
          "type": "uint256"
        },
        {
          "indexed": true,
          "internalType": "address",
          "name": "newRewardToken",
          "type": "address"
        }
      ],
      "name": "RewardTokenChanged",
      "type": "event"
    },
    {
      "anonymous": false,
      "inputs": [
        {
          "indexed": true,
          "internalType": "address",
          "name": "staker",
          "type": "address"
        },
        {
          "indexed": false,
          "internalType": "uint256",
          "name": "amount",
          "type": "uint256"
        }
      ],
      "name": "RewardsBurned",
      "type": "event"
    },
    {
      "anonymous": false,
      "inputs": [
        {
          "indexed": true,
          "internalType": "bytes32",
          "name": "role",
          "type": "bytes32"
        },
        {
          "indexed": true,
          "internalType": "bytes32",
          "name": "previousAdminRole",
          "type": "bytes32"
        },
        {
          "indexed": true,
          "internalType": "bytes32",
          "name": "newAdminRole",
          "type": "bytes32"
        }
      ],
      "name": "RoleAdminChanged",
      "type": "event"
    },
    {
      "anonymous": false,
      "inputs": [
        {
          "indexed": true,
          "internalType": "bytes32",
          "name": "role",
          "type": "bytes32"
        },
        {
          "indexed": true,
          "internalType": "address",
          "name": "account",
          "type": "address"
        },
        {
          "indexed": true,
          "internalType": "address",
          "name": "sender",
          "type": "address"
        }
      ],
      "name": "RoleGranted",
      "type": "event"
    },
    {
      "anonymous": false,
      "inputs": [
        {
          "indexed": true,
          "internalType": "bytes32",
          "name": "role",
          "type": "bytes32"
        },
        {
          "indexed": true,
          "internalType": "address",
          "name": "account",
          "type": "address"
        },
        {
          "indexed": true,
          "internalType": "address",
          "name": "sender",
          "type": "address"
        }
      ],
      "name": "RoleRevoked",
      "type": "event"
    },
    {
      "anonymous": false,
      "inputs": [
        {
          "indexed": true,
          "internalType": "address",
          "name": "wallet",
          "type": "address"
        },
        {
          "indexed": false,
          "internalType": "uint256",
          "name": "amount",
          "type": "uint256"
        },
        {
          "indexed": false,
          "internalType": "uint256",
          "name": "date",
          "type": "uint256"
        }
      ],
      "name": "Stake",
      "type": "event"
    },
    {
      "anonymous": false,
      "inputs": [
        {
          "indexed": false,
          "internalType": "uint48",
          "name": "stakeRewardEndTime",
          "type": "uint48"
        }
      ],
      "name": "StakeRewardEndTimeChanged",
      "type": "event"
    },
    {
      "anonymous": false,
      "inputs": [
        {
          "indexed": false,
          "internalType": "uint256",
          "name": "stakeRewardFactor",
          "type": "uint256"
        }
      ],
      "name": "StakeRewardFactorChanged",
      "type": "event"
    },
    {
      "anonymous": false,
      "inputs": [
        {
          "indexed": true,
          "internalType": "address",
          "name": "wallet",
          "type": "address"
        },
        {
          "indexed": false,
          "internalType": "uint256",
          "name": "amount",
          "type": "uint256"
        },
        {
          "indexed": false,
          "internalType": "uint256",
          "name": "date",
          "type": "uint256"
        }
      ],
      "name": "Withdraw",
      "type": "event"
    },
    {
      "inputs": [],
      "name": "BURNER_ROLE",
      "outputs": [
        {
          "internalType": "bytes32",
          "name": "",
          "type": "bytes32"
        }
      ],
      "stateMutability": "view",
      "type": "function"
    },
    {
      "inputs": [],
      "name": "DEFAULT_ADMIN_ROLE",
      "outputs": [
        {
          "internalType": "bytes32",
          "name": "",
          "type": "bytes32"
        }
      ],
      "stateMutability": "view",
      "type": "function"
    },
    {
      "inputs": [],
      "name": "MAX_TIME",
      "outputs": [
        {
          "internalType": "uint48",
          "name": "",
          "type": "uint48"
        }
      ],
      "stateMutability": "view",
      "type": "function"
    },
    {
      "inputs": [
        {
          "internalType": "address",
          "name": "_staker",
          "type": "address"
        }
      ],
      "name": "balanceOf",
      "outputs": [
        {
          "internalType": "uint256",
          "name": "balance",
          "type": "uint256"
        }
      ],
      "stateMutability": "view",
      "type": "function"
    },
    {
      "inputs": [
        {
          "internalType": "address",
          "name": "_staker",
          "type": "address"
        },
        {
          "internalType": "uint256",
          "name": "_amount",
          "type": "uint256"
        }
      ],
      "name": "burnRewards",
      "outputs": [],
      "stateMutability": "nonpayable",
      "type": "function"
    },
    {
      "inputs": [],
      "name": "claim",
      "outputs": [
        {
          "internalType": "uint256",
          "name": "",
          "type": "uint256"
        }
      ],
      "stateMutability": "nonpayable",
      "type": "function"
    },
    {
      "inputs": [
        {
          "internalType": "address",
          "name": "_staker",
          "type": "address"
        }
      ],
      "name": "getEarnedRewardTokens",
      "outputs": [
        {
          "internalType": "uint256",
          "name": "claimableRewardTokens",
          "type": "uint256"
        }
      ],
      "stateMutability": "view",
      "type": "function"
    },
    {
      "inputs": [],
      "name": "getEarnedRewardTokens_msgSender",
      "outputs": [
        {
          "internalType": "uint256",
          "name": "",
          "type": "uint256"
        }
      ],
      "stateMutability": "view",
      "type": "function"
    },
    {
      "inputs": [],
      "name": "getRewardTokenBalance",
      "outputs": [
        {
          "internalType": "uint256",
          "name": "balance",
          "type": "uint256"
        }
      ],
      "stateMutability": "view",
      "type": "function"
    },
    {
      "inputs": [
        {
          "internalType": "bytes32",
          "name": "role",
          "type": "bytes32"
        }
      ],
      "name": "getRoleAdmin",
      "outputs": [
        {
          "internalType": "bytes32",
          "name": "",
          "type": "bytes32"
        }
      ],
      "stateMutability": "view",
      "type": "function"
    },
    {
      "inputs": [
        {
          "internalType": "address",
          "name": "_staker",
          "type": "address"
        }
      ],
      "name": "getUnlockTime",
      "outputs": [
        {
          "internalType": "uint48",
          "name": "unlockTime",
          "type": "uint48"
        }
      ],
      "stateMutability": "view",
      "type": "function"
    },
    {
      "inputs": [],
      "name": "getUnlockTime_msgSender",
      "outputs": [
        {
          "internalType": "uint48",
          "name": "unlockTime",
          "type": "uint48"
        }
      ],
      "stateMutability": "view",
      "type": "function"
    },
    {
      "inputs": [
        {
          "internalType": "bytes32",
          "name": "role",
          "type": "bytes32"
        },
        {
          "internalType": "address",
          "name": "account",
          "type": "address"
        }
      ],
      "name": "grantRole",
      "outputs": [],
      "stateMutability": "nonpayable",
      "type": "function"
    },
    {
      "inputs": [
        {
          "internalType": "bytes32",
          "name": "role",
          "type": "bytes32"
        },
        {
          "internalType": "address",
          "name": "account",
          "type": "address"
        }
      ],
      "name": "hasRole",
      "outputs": [
        {
          "internalType": "bool",
          "name": "",
          "type": "bool"
        }
      ],
      "stateMutability": "view",
      "type": "function"
    },
    {
      "inputs": [],
      "name": "lockTimePeriod",
      "outputs": [
        {
          "internalType": "uint48",
          "name": "",
          "type": "uint48"
        }
      ],
      "stateMutability": "view",
      "type": "function"
    },
    {
      "inputs": [
        {
          "internalType": "address",
          "name": "_tokenAddress",
          "type": "address"
        }
      ],
      "name": "removeOtherERC20Tokens",
      "outputs": [],
      "stateMutability": "nonpayable",
      "type": "function"
    },
    {
      "inputs": [
        {
          "internalType": "bytes32",
          "name": "role",
          "type": "bytes32"
        },
        {
          "internalType": "address",
          "name": "account",
          "type": "address"
        }
      ],
      "name": "renounceRole",
      "outputs": [],
      "stateMutability": "nonpayable",
      "type": "function"
    },
    {
      "inputs": [
        {
          "internalType": "bytes32",
          "name": "role",
          "type": "bytes32"
        },
        {
          "internalType": "address",
          "name": "account",
          "type": "address"
        }
      ],
      "name": "revokeRole",
      "outputs": [],
      "stateMutability": "nonpayable",
      "type": "function"
    },
    {
      "inputs": [],
      "name": "rewardToken",
      "outputs": [
        {
          "internalType": "address",
          "name": "",
          "type": "address"
        }
      ],
      "stateMutability": "view",
      "type": "function"
    },
    {
      "inputs": [
        {
          "internalType": "uint48",
          "name": "_lockTimePeriod",
          "type": "uint48"
        }
      ],
      "name": "setLockTimePeriod",
      "outputs": [],
      "stateMutability": "nonpayable",
      "type": "function"
    },
    {
      "inputs": [
        {
          "internalType": "address",
          "name": "newRewardToken",
          "type": "address"
        }
      ],
      "name": "setRewardToken",
      "outputs": [],
      "stateMutability": "nonpayable",
      "type": "function"
    },
    {
      "inputs": [
        {
          "internalType": "uint48",
          "name": "_stakeRewardEndTime",
          "type": "uint48"
        }
      ],
      "name": "setStakeRewardEndTime",
      "outputs": [],
      "stateMutability": "nonpayable",
      "type": "function"
    },
    {
      "inputs": [
        {
          "internalType": "uint256",
          "name": "_stakeRewardFactor",
          "type": "uint256"
        }
      ],
      "name": "setStakeRewardFactor",
      "outputs": [],
      "stateMutability": "nonpayable",
      "type": "function"
    },
    {
      "inputs": [
        {
          "internalType": "uint256",
          "name": "_amount",
          "type": "uint256"
        }
      ],
      "name": "stake",
      "outputs": [
        {
          "internalType": "uint256",
          "name": "",
          "type": "uint256"
        }
      ],
      "stateMutability": "nonpayable",
      "type": "function"
    },
    {
      "inputs": [
        {
          "internalType": "address",
          "name": "_staker",
          "type": "address"
        }
      ],
      "name": "stakeAmount",
      "outputs": [
        {
          "internalType": "uint256",
          "name": "balance",
          "type": "uint256"
        }
      ],
      "stateMutability": "view",
      "type": "function"
    },
    {
      "inputs": [],
      "name": "stakeAmount_msgSender",
      "outputs": [
        {
          "internalType": "uint256",
          "name": "",
          "type": "uint256"
        }
      ],
      "stateMutability": "view",
      "type": "function"
    },
    {
      "inputs": [],
      "name": "stakeRewardEndTime",
      "outputs": [
        {
          "internalType": "uint48",
          "name": "",
          "type": "uint48"
        }
      ],
      "stateMutability": "view",
      "type": "function"
    },
    {
      "inputs": [],
      "name": "stakeRewardFactor",
      "outputs": [
        {
          "internalType": "uint256",
          "name": "",
          "type": "uint256"
        }
      ],
      "stateMutability": "view",
      "type": "function"
    },
    {
      "inputs": [
        {
          "internalType": "address",
          "name": "_staker",
          "type": "address"
        }
      ],
      "name": "stakeTime",
      "outputs": [
        {
          "internalType": "uint48",
          "name": "dateTime",
          "type": "uint48"
        }
      ],
      "stateMutability": "view",
      "type": "function"
    },
    {
      "inputs": [],
      "name": "stakeTime_msgSender",
      "outputs": [
        {
          "internalType": "uint48",
          "name": "",
          "type": "uint48"
        }
      ],
      "stateMutability": "view",
      "type": "function"
    },
    {
      "inputs": [],
      "name": "stakingToken",
      "outputs": [
        {
          "internalType": "address",
          "name": "",
          "type": "address"
        }
      ],
      "stateMutability": "view",
      "type": "function"
    },
    {
      "inputs": [
        {
          "internalType": "bytes4",
          "name": "interfaceId",
          "type": "bytes4"
        }
      ],
      "name": "supportsInterface",
      "outputs": [
        {
          "internalType": "bool",
          "name": "",
          "type": "bool"
        }
      ],
      "stateMutability": "view",
      "type": "function"
    },
    {
      "inputs": [],
      "name": "tokenTotalStaked",
      "outputs": [
        {
          "internalType": "uint256",
          "name": "",
          "type": "uint256"
        }
      ],
      "stateMutability": "view",
      "type": "function"
    },
    {
      "inputs": [
        {
          "internalType": "address",
          "name": "_staker",
          "type": "address"
        }
      ],
      "name": "userAccumulatedRewards",
      "outputs": [
        {
          "internalType": "uint256",
          "name": "rewards",
          "type": "uint256"
        }
      ],
      "stateMutability": "view",
      "type": "function"
    },
    {
      "inputs": [],
      "name": "userAccumulatedRewards_msgSender",
      "outputs": [
        {
          "internalType": "uint256",
          "name": "",
          "type": "uint256"
        }
      ],
      "stateMutability": "view",
      "type": "function"
    },
    {
      "inputs": [
        {
          "internalType": "address",
          "name": "_staker",
          "type": "address"
        }
      ],
      "name": "userClaimableRewards",
      "outputs": [
        {
          "internalType": "uint256",
          "name": "",
          "type": "uint256"
        }
      ],
      "stateMutability": "view",
      "type": "function"
    },
    {
      "inputs": [],
      "name": "userClaimableRewards_msgSender",
      "outputs": [
        {
          "internalType": "uint256",
          "name": "",
          "type": "uint256"
        }
      ],
      "stateMutability": "view",
      "type": "function"
    },
    {
      "inputs": [
        {
          "internalType": "address",
          "name": "",
          "type": "address"
        }
      ],
      "name": "userMap",
      "outputs": [
        {
          "internalType": "uint48",
          "name": "stakeTime",
          "type": "uint48"
        },
        {
          "internalType": "uint48",
          "name": "unlockTime",
          "type": "uint48"
        },
        {
          "internalType": "uint160",
          "name": "stakeAmount",
          "type": "uint160"
        },
        {
          "internalType": "uint256",
          "name": "accumulatedRewards",
          "type": "uint256"
        }
      ],
      "stateMutability": "view",
      "type": "function"
    },
    {
      "inputs": [
        {
          "internalType": "address",
          "name": "_staker",
          "type": "address"
        }
      ],
      "name": "userTotalRewards",
      "outputs": [
        {
          "internalType": "uint256",
          "name": "",
          "type": "uint256"
        }
      ],
      "stateMutability": "view",
      "type": "function"
    },
    {
      "inputs": [],
      "name": "userTotalRewards_msgSender",
      "outputs": [
        {
          "internalType": "uint256",
          "name": "",
          "type": "uint256"
        }
      ],
      "stateMutability": "view",
      "type": "function"
    },
    {
      "inputs": [
        {
          "internalType": "uint256",
          "name": "amount",
          "type": "uint256"
        }
      ],
      "name": "withdraw",
      "outputs": [
        {
          "internalType": "uint256",
          "name": "",
          "type": "uint256"
        }
      ],
      "stateMutability": "nonpayable",
      "type": "function"
    },
    {
      "inputs": [],
      "name": "withdrawAll",
      "outputs": [
        {
          "internalType": "uint256",
          "name": "",
          "type": "uint256"
        }
      ],
      "stateMutability": "nonpayable",
      "type": "function"
    }
  ],
  "bytecode": "0x60a06040523480156200001157600080fd5b5060405162002373380380620023738339810160408190526200003491620001e6565b600180556001600160a01b0382166200006a5760405162461bcd60e51b8152600401620000619062000237565b60405180910390fd5b6301e285008165ffffffffffff1610620000985760405162461bcd60e51b815260040162000061906200026e565b606082901b6001600160601b0319166080526004805465ffffffffffff60a01b1916600160a01b65ffffffffffff8416021790556305265c00600555620000e4426301e28500620002a5565b6004805465ffffffffffff92909216600160d01b026001600160d01b03909216919091179055620001176000336200011f565b5050620002ca565b6200012b82826200012f565b5050565b6200013b8282620001b9565b6200012b576000828152602081815260408083206001600160a01b03851684529091529020805460ff1916600117905562000175620001e2565b6001600160a01b0316816001600160a01b0316837f2f8788117e7eff1d82e926ec794901d17c78024a50270940304540a733656f0d60405160405180910390a45050565b6000918252602082815260408084206001600160a01b0393909316845291905290205460ff1690565b3390565b60008060408385031215620001f9578182fd5b82516001600160a01b038116811462000210578283fd5b602084015190925065ffffffffffff811681146200022c578182fd5b809150509250929050565b60208082526019908201527f7374616b696e67546f6b656e2e61646472657373203d3d203000000000000000604082015260600190565b6020808252601a908201527f6c6f636b54696d65506572696f64203e3d203336362064617973000000000000604082015260600190565b60008219821115620002c557634e487b7160e01b81526011600452602481fd5b500190565b60805160601c61206e62000305600039600081816107e60152818161097001528181610bc0015281816110520152611495015261206e6000f3fe608060405234801561001057600080fd5b506004361061025e5760003560e01c806387f075d911610146578063bf135267116100c3578063dfdf35c411610087578063dfdf35c414610485578063ee2d505e14610498578063ee61e0cd146104ab578063f3b95cd7146104be578063f6a3f3cf146104d1578063f7c618c1146104e45761025e565b8063bf1352671461039b578063d547741f1461044f578063d953a86714610462578063dbed1e881461046a578063de3717fc1461047d5761025e565b80639a7cc1b81161010a5780639a7cc1b81461041c578063a217fddf14610424578063a38a57c41461042c578063a694fc3a14610434578063aaa748d3146104475761025e565b806387f075d9146103d35780638aee8127146103db5780638efb31c7146103ee57806391d148541461040157806393ce5343146104145761025e565b80632f2ff15d116101df5780635bd4b5df116101a35780635bd4b5df1461038b5780636bb64e231461039357806370a082311461039b57806372f702f3146103ae578063853828b6146103c3578063872b26da146103cb5761025e565b80632f2ff15d1461034057806336568abe146103555780633cb2efc9146103685780634e71d92d146103705780635951eff1146103785761025e565b8063248a9ca311610226578063248a9ca3146102e757806326949984146102fa578063282c51f3146103025780632bcc23f81461030a5780632e1a7d4d1461032d5761025e565b806301ffc9a7146102635780630584bd091461028c57806307dc1e1a146102ac57806309ef67e6146102b45780632170e472146102c7575b600080fd5b6102766102713660046119b3565b6104ec565b6040516102839190611afb565b60405180910390f35b61029f61029a36600461190d565b610519565b6040516102839190611b06565b61029f6105fa565b61029f6102c236600461190d565b610611565b6102da6102d536600461190d565b61062f565b6040516102839190611ee6565b61029f6102f5366004611970565b610652565b6102da610667565b61029f610671565b61031d61031836600461190d565b610695565b6040516102839493929190611ef9565b61029f61033b366004611970565b6106d6565b61035361034e366004611988565b61071c565b005b610353610363366004611988565b610745565b6102da61078b565b61029f61079b565b61035361038636600461190d565b6107d6565b61029f61091b565b61029f610926565b61029f6103a936600461190d565b610949565b6103b661096e565b6040516102839190611aaa565b61029f610992565b61029f6109cc565b61029f6109d2565b6103536103e936600461190d565b6109d8565b6103536103fc366004611970565b610aa6565b61027661040f366004611988565b610af5565b61029f610b1e565b61029f610bff565b61029f610c0a565b6102da610c0f565b61029f610442366004611970565b610c24565b6102da610c57565b61035361045d366004611988565b610c72565b6102da610c91565b6102da61047836600461190d565b610ca6565b61029f610d06565b6103536104933660046119f3565b610d11565b61029f6104a636600461190d565b610d9f565b6103536104b93660046119f3565b610de4565b6103536104cc366004611927565b610e44565b61029f6104df36600461190d565b610ef8565b6103b6610f27565b60006001600160e01b03198216637965db0b60e01b1480610511575061051182610f36565b90505b919050565b6001600160a01b0381166000908152600260205260408120805465ffffffffffff16421161054b576000915050610514565b805460045465ffffffffffff918216600160d01b90910490911611610574576000915050610514565b600454600090600160d01b900465ffffffffffff1642116105aa5781546105a39065ffffffffffff1642611fa9565b90506105d6565b81546004546105cb9165ffffffffffff90811691600160d01b900416611fc0565b65ffffffffffff1690505b81546105f290600160601b90046001600160a01b031682611f62565b949350505050565b336000908152600260205260409020600101545b90565b6001600160a01b031660009081526002602052604090206001015490565b6001600160a01b031660009081526002602052604090205465ffffffffffff1690565b60009081526020819052604090206001015490565b65ffffffffffff81565b7f3c11d16cbaffd01df69ce1c404f6340ee057498f5f00246190ea54220576a84881565b6002602052600090815260409020805460019091015465ffffffffffff80831692600160301b810490911691600160601b9091046001600160a01b03169084565b6000600260015414156107045760405162461bcd60e51b81526004016106fb90611e4a565b60405180910390fd5b600260015561071282610f4f565b6001805592915050565b61072582610652565b610736816107316110c2565b6110c6565b610740838361112a565b505050565b61074d6110c2565b6001600160a01b0316816001600160a01b03161461077d5760405162461bcd60e51b81526004016106fb90611e81565b61078782826111af565b5050565b600061079633610ca6565b905090565b6000600260015414156107c05760405162461bcd60e51b81526004016106fb90611e4a565b60026001556107cd611232565b90506001805590565b60006107e4816107316110c2565b7f00000000000000000000000000000000000000000000000000000000000000006001600160a01b0316826001600160a01b031614156108365760405162461bcd60e51b81526004016106fb90611ced565b6040516370a0823160e01b81526000906001600160a01b038416906370a0823190610865903090600401611aaa565b60206040518083038186803b15801561087d57600080fd5b505afa158015610891573d6000803e3d6000fd5b505050506040513d601f19601f820116820180604052508101906108b591906119db565b90506108cb6001600160a01b0384163383611350565b336001600160a01b0316836001600160a01b03167f4c9443772ec3472e2ea8a88e5c31e6bb75e94541dc672d5ca2a1197ada10b5988360405161090e9190611b06565b60405180910390a3505050565b600061079633610519565b33600090815260026020526040902054600160601b90046001600160a01b031690565b6001600160a01b03908116600090815260026020526040902054600160601b90041690565b7f000000000000000000000000000000000000000000000000000000000000000081565b6000600260015414156109b75760405162461bcd60e51b81526004016106fb90611e4a565b60026001556107cd6109c7610926565b610f4f565b60035481565b60055481565b600260015414156109fb5760405162461bcd60e51b81526004016106fb90611e4a565b60026001556000610a0e816107316110c2565b6004546001600160a01b03166000610a24610b1e565b90508015610a4057610a406001600160a01b0383163383611350565b600480546001600160a01b0319166001600160a01b0386811691821790925560405190918416907fc133375757269458a329c73a344c8ef483535870f46ed4cd332f857a5ef525d090610a94908590611b06565b60405180910390a35050600180555050565b6000610ab4816107316110c2565b60058290556040517f929e0b2903ee7e8bb87bf220a340db1f5551e7042e5f2567ed08117c0709fa2190610ae9908490611b06565b60405180910390a15050565b6000918252602082815260408084206001600160a01b0393909316845291905290205460ff1690565b6004546000906001600160a01b0316610b395750600061060e565b600480546040516370a0823160e01b81526001600160a01b03909116916370a0823191610b6891309101611aaa565b60206040518083038186803b158015610b8057600080fd5b505afa158015610b94573d6000803e3d6000fd5b505050506040513d601f19601f82011682018060405250810190610bb891906119db565b6004549091507f00000000000000000000000000000000000000000000000000000000000000006001600160a01b039081169116141561060e576003546107969082611fa9565b600061079633610d9f565b600081565b600454600160d01b900465ffffffffffff1681565b600060026001541415610c495760405162461bcd60e51b81526004016106fb90611e4a565b6002600155610712826113a6565b3360009081526002602052604090205465ffffffffffff1690565b610c7b82610652565b610c87816107316110c2565b61074083836111af565b600454600160a01b900465ffffffffffff1681565b6001600160a01b038082166000908152600260205260408120549091600160601b90910416610cdb5765ffffffffffff610511565b506001600160a01b0316600090815260026020526040902054600160301b900465ffffffffffff1690565b600061079633610ef8565b6000610d1f816107316110c2565b60045442600160d01b90910465ffffffffffff1611610d505760405162461bcd60e51b81526004016106fb90611d24565b600480546001600160d01b0316600160d01b65ffffffffffff8516021790556040517fb8ec1a7db76539d0a932b67153298ec5ba41b1f965bd5f66e9419431d517291a90610ae9908490611ee6565b6004546000906001600160a01b03161580610dba5750600554155b15610dc757506000610514565b600554610dd383610ef8565b610ddd9190611f42565b9050610514565b6000610df2816107316110c2565b6004805465ffffffffffff60a01b1916600160a01b65ffffffffffff8516021790556040517fe9f020bdf01408388704d87e8162e06252d160de9f8cc075b32ce7ebbebc263e90610ae9908490611ee6565b7f3c11d16cbaffd01df69ce1c404f6340ee057498f5f00246190ea54220576a848610e71816107316110c2565b6000610e7c846114e9565b90508060010154831015610ea95782816001016000828254610e9e9190611fa9565b90915550610eb19050565b600060018201555b836001600160a01b03167f33e88885e6abd26d1f3ea3b4b37c2f6e0ff31fa24c7721763eca867537bdf5d284604051610eea9190611b06565b60405180910390a250505050565b6001600160a01b038116600090815260026020526040812060010154610f1d83610519565b6105119190611f2a565b6004546001600160a01b031681565b6001600160e01b031981166301ffc9a760e01b14919050565b6000808211610f705760405162461bcd60e51b81526004016106fb90611d5b565b610f7933610ca6565b65ffffffffffff164211610f9f5760405162461bcd60e51b81526004016106fb90611ba3565b6000610faa336114e9565b8054909150600160601b90046001600160a01b0316831115610fde5760405162461bcd60e51b81526004016106fb90611cb6565b610fe78361154a565b81548290600c90611009908490600160601b90046001600160a01b0316611f81565b92506101000a8154816001600160a01b0302191690836001600160a01b03160217905550826003600082825461103f9190611fa9565b9091555061107990506001600160a01b037f0000000000000000000000000000000000000000000000000000000000000000163385611350565b337ff279e6a1f5e320cca91135676d9cb6e44ca8a08c0b88342bcdb1144f6511b568846110a542611577565b6040516110b3929190611ed0565b60405180910390a25090919050565b3390565b6110d08282610af5565b610787576110e8816001600160a01b0316601461159f565b6110f383602061159f565b604051602001611104929190611a35565b60408051601f198184030181529082905262461bcd60e51b82526106fb91600401611b0f565b6111348282610af5565b610787576000828152602081815260408083206001600160a01b03851684529091529020805460ff1916600117905561116b6110c2565b6001600160a01b0316816001600160a01b0316837f2f8788117e7eff1d82e926ec794901d17c78024a50270940304540a733656f0d60405160405180910390a45050565b6111b98282610af5565b15610787576000828152602081815260408083206001600160a01b03851684529091529020805460ff191690556111ee6110c2565b6001600160a01b0316816001600160a01b0316837ff6391f5c32d9c69d2a47ea670b442974b53935d1edc7fd64eb21e047a839171b60405160405180910390a45050565b6004546000906001600160a01b031661125d5760405162461bcd60e51b81526004016106fb90611c7f565b600061126833610d9f565b90506000811161128a5760405162461bcd60e51b81526004016106fb90611b77565b33600090815260026020526040812060018101919091556112aa42611577565b815465ffffffffffff191665ffffffffffff919091161781556112cb610b1e565b8211156112ea5760405162461bcd60e51b81526004016106fb90611c48565b600454611301906001600160a01b03163384611350565b6004546040516001600160a01b039091169033907ff7a40077ff7a04c7e61f6f26fb13774259ddf1b6bce9ecf26a8276cdd399268390611342908690611b06565b60405180910390a350905090565b6107408363a9059cbb60e01b848460405160240161136f929190611ae2565b60408051601f198184030181529190526020810180516001600160e01b03166001600160e01b031990931692909217909152611758565b60008082116113c75760405162461bcd60e51b81526004016106fb90611c11565b60006113d2336114e9565b80549091506113fb906113f6908590600160601b90046001600160a01b0316611f2a565b61154a565b81546001600160a01b0391909116600160601b026bffffffffffffffffffffffff90911617815560038054849190600090611437908490611f2a565b90915550506004546114619061145c90600160a01b900465ffffffffffff1642611f2a565b611577565b815465ffffffffffff91909116600160301b026bffffffffffff000000000000199091161781556114bd6001600160a01b037f0000000000000000000000000000000000000000000000000000000000000000163330866117e7565b337f5af417134f72a9d41143ace85b0a26dce6f550f894f2cbc1eeee8810603d91b6846110a542611577565b6001600160a01b038116600090815260026020526040902061150a82610519565b81600101600082825461151d9190611f2a565b9091555061152c905042611577565b815465ffffffffffff191665ffffffffffff91909116178155919050565b60006001600160a01b038211156115735760405162461bcd60e51b81526004016106fb90611dc9565b5090565b600065ffffffffffff8211156115735760405162461bcd60e51b81526004016106fb90611bda565b606060006115ae836002611f62565b6115b9906002611f2a565b67ffffffffffffffff8111156115df57634e487b7160e01b600052604160045260246000fd5b6040519080825280601f01601f191660200182016040528015611609576020820181803683370190505b509050600360fc1b8160008151811061163257634e487b7160e01b600052603260045260246000fd5b60200101906001600160f81b031916908160001a905350600f60fb1b8160018151811061166f57634e487b7160e01b600052603260045260246000fd5b60200101906001600160f81b031916908160001a9053506000611693846002611f62565b61169e906001611f2a565b90505b6001811115611732576f181899199a1a9b1b9c1cb0b131b232b360811b85600f16601081106116e057634e487b7160e01b600052603260045260246000fd5b1a60f81b82828151811061170457634e487b7160e01b600052603260045260246000fd5b60200101906001600160f81b031916908160001a90535060049490941c9361172b8161200b565b90506116a1565b5083156117515760405162461bcd60e51b81526004016106fb90611b42565b9392505050565b60006117ad826040518060400160405280602081526020017f5361666545524332303a206c6f772d6c6576656c2063616c6c206661696c6564815250856001600160a01b031661180e9092919063ffffffff16565b80519091501561074057808060200190518101906117cb9190611950565b6107405760405162461bcd60e51b81526004016106fb90611e00565b611808846323b872dd60e01b85858560405160240161136f93929190611abe565b50505050565b60606105f2848460008585611822856118b7565b61183e5760405162461bcd60e51b81526004016106fb90611d92565b600080866001600160a01b0316858760405161185a9190611a19565b60006040518083038185875af1925050503d8060008114611897576040519150601f19603f3d011682016040523d82523d6000602084013e61189c565b606091505b50915091506118ac8282866118bd565b979650505050505050565b3b151590565b606083156118cc575081611751565b8251156118dc5782518084602001fd5b8160405162461bcd60e51b81526004016106fb9190611b0f565b80356001600160a01b038116811461051457600080fd5b60006020828403121561191e578081fd5b611751826118f6565b60008060408385031215611939578081fd5b611942836118f6565b946020939093013593505050565b600060208284031215611961578081fd5b81518015158114611751578182fd5b600060208284031215611981578081fd5b5035919050565b6000806040838503121561199a578182fd5b823591506119aa602084016118f6565b90509250929050565b6000602082840312156119c4578081fd5b81356001600160e01b031981168114611751578182fd5b6000602082840312156119ec578081fd5b5051919050565b600060208284031215611a04578081fd5b813565ffffffffffff81168114611751578182fd5b60008251611a2b818460208701611fdf565b9190910192915050565b60007f416363657373436f6e74726f6c3a206163636f756e742000000000000000000082528351611a6d816017850160208801611fdf565b7001034b99036b4b9b9b4b733903937b6329607d1b6017918401918201528351611a9e816028840160208801611fdf565b01602801949350505050565b6001600160a01b0391909116815260200190565b6001600160a01b039384168152919092166020820152604081019190915260600190565b6001600160a01b03929092168252602082015260400190565b901515815260200190565b90815260200190565b6000602082528251806020840152611b2e816040850160208701611fdf565b601f01601f19169190910160400192915050565b6020808252818101527f537472696e67733a20686578206c656e67746820696e73756666696369656e74604082015260600190565b6020808252601290820152716e6f20746f6b656e7320746f20636c61696d60701b604082015260600190565b6020808252601e908201527f7374616b656420746f6b656e7320617265207374696c6c206c6f636b65640000604082015260600190565b6020808252601c908201527f76616c756520646f65736e27742066697420696e203438206269747300000000604082015260600190565b60208082526018908201527f7374616b6520616d6f756e74206d757374206265203e20300000000000000000604082015260600190565b60208082526018908201527f6e6f7420656e6f7567682072657761726420746f6b656e730000000000000000604082015260600190565b60208082526018908201527f6e6f2072657761726420746f6b656e20636f6e74726163740000000000000000604082015260600190565b6020808252601f908201527f776974686472617720616d6f756e74203e207374616b656420616d6f756e7400604082015260600190565b6020808252601e908201527f63616e206e6f74207769746864726177207374616b696e6720746f6b656e0000604082015260600190565b6020808252601c908201527f74696d652068617320746f20626520696e207468652066757475726500000000604082015260600190565b6020808252601a908201527f616d6f756e7420746f207769746864726177206e6f74203e2030000000000000604082015260600190565b6020808252601d908201527f416464726573733a2063616c6c20746f206e6f6e2d636f6e7472616374000000604082015260600190565b6020808252601d908201527f76616c756520646f65736e27742066697420696e203136302062697473000000604082015260600190565b6020808252602a908201527f5361666545524332303a204552433230206f7065726174696f6e20646964206e6040820152691bdd081cdd58d8d9595960b21b606082015260800190565b6020808252601f908201527f5265656e7472616e637947756172643a207265656e7472616e742063616c6c00604082015260600190565b6020808252602f908201527f416363657373436f6e74726f6c3a2063616e206f6e6c792072656e6f756e636560408201526e103937b632b9903337b91039b2b63360891b606082015260800190565b91825265ffffffffffff16602082015260400190565b65ffffffffffff91909116815260200190565b65ffffffffffff94851681529290931660208301526001600160a01b03166040820152606081019190915260800190565b60008219821115611f3d57611f3d612022565b500190565b600082611f5d57634e487b7160e01b81526012600452602481fd5b500490565b6000816000190483118215151615611f7c57611f7c612022565b500290565b60006001600160a01b0383811690831681811015611fa157611fa1612022565b039392505050565b600082821015611fbb57611fbb612022565b500390565b600065ffffffffffff83811690831681811015611fa157611fa1612022565b60005b83811015611ffa578181015183820152602001611fe2565b838111156118085750506000910152565b60008161201a5761201a612022565b506000190190565b634e487b7160e01b600052601160045260246000fdfea26469706673582212205dbc3f29a63cd6998a3fad9e1da69a5af2db74bfd92d0a5c41f06ca7d17678b164736f6c63430008000033",
  "linkReferences": {},
  "deployedLinkReferences": {}
}