{
  "_format": "hh-sol-artifact-1",
  "contractName": "Treasury",
  "sourceName": "contracts/Treasury.sol",
  "abi": [
    {
      "inputs": [
        {
          "internalType": "int256",
          "name": "_currentLimit",
          "type": "int256"
        },
        {
          "internalType": "int256",
          "name": "_maxPrice",
          "type": "int256"
        },
        {
          "internalType": "int256",
          "name": "_steepness",
          "type": "int256"
        }
      ],
      "stateMutability": "nonpayable",
      "type": "constructor"
    },
    {
      "anonymous": false,
      "inputs": [
        {
          "indexed": true,
          "internalType": "address",
          "name": "owner",
          "type": "address"
        },
        {
          "indexed": true,
          "internalType": "address",
          "name": "spender",
          "type": "address"
        },
        {
          "indexed": false,
          "internalType": "uint256",
          "name": "value",
          "type": "uint256"
        }
      ],
      "name": "Approval",
      "type": "event"
    },
    {
      "anonymous": false,
      "inputs": [
        {
          "indexed": false,
          "internalType": "address",
          "name": "buyer",
          "type": "address"
        },
        {
          "indexed": false,
          "internalType": "uint256",
          "name": "price",
          "type": "uint256"
        }
      ],
      "name": "Buy",
      "type": "event"
    },
    {
      "anonymous": false,
      "inputs": [
        {
          "indexed": false,
          "internalType": "address",
          "name": "buyer",
          "type": "address"
        },
        {
          "indexed": false,
          "internalType": "uint256",
          "name": "price",
          "type": "uint256"
        }
      ],
      "name": "BuyINFL",
      "type": "event"
    },
    {
      "anonymous": false,
      "inputs": [
        {
          "indexed": true,
          "internalType": "address",
          "name": "previousOwner",
          "type": "address"
        },
        {
          "indexed": true,
          "internalType": "address",
          "name": "newOwner",
          "type": "address"
        }
      ],
      "name": "OwnershipTransferred",
      "type": "event"
    },
    {
      "anonymous": false,
      "inputs": [
        {
          "indexed": false,
          "internalType": "address",
          "name": "seller",
          "type": "address"
        },
        {
          "indexed": false,
          "internalType": "uint256",
          "name": "price",
          "type": "uint256"
        }
      ],
      "name": "Sell",
      "type": "event"
    },
    {
      "anonymous": false,
      "inputs": [
        {
          "indexed": false,
          "internalType": "address",
          "name": "seller",
          "type": "address"
        },
        {
          "indexed": false,
          "internalType": "uint256",
          "name": "price",
          "type": "uint256"
        }
      ],
      "name": "SellINFL",
      "type": "event"
    },
    {
      "anonymous": false,
      "inputs": [
        {
          "indexed": true,
          "internalType": "address",
          "name": "from",
          "type": "address"
        },
        {
          "indexed": true,
          "internalType": "address",
          "name": "to",
          "type": "address"
        },
        {
          "indexed": false,
          "internalType": "uint256",
          "name": "value",
          "type": "uint256"
        }
      ],
      "name": "Transfer",
      "type": "event"
    },
    {
      "inputs": [
        {
          "internalType": "address",
          "name": "owner",
          "type": "address"
        },
        {
          "internalType": "address",
          "name": "spender",
          "type": "address"
        }
      ],
      "name": "allowance",
      "outputs": [
        {
          "internalType": "uint256",
          "name": "",
          "type": "uint256"
        }
      ],
      "stateMutability": "view",
      "type": "function"
    },
    {
      "inputs": [
        {
          "internalType": "address",
          "name": "spender",
          "type": "address"
        },
        {
          "internalType": "uint256",
          "name": "amount",
          "type": "uint256"
        }
      ],
      "name": "approve",
      "outputs": [
        {
          "internalType": "bool",
          "name": "",
          "type": "bool"
        }
      ],
      "stateMutability": "nonpayable",
      "type": "function"
    },
    {
      "inputs": [
        {
          "internalType": "address",
          "name": "_treasury",
          "type": "address"
        }
      ],
      "name": "approveTreasurySpend",
      "outputs": [],
      "stateMutability": "nonpayable",
      "type": "function"
    },
    {
      "inputs": [
        {
          "internalType": "address",
          "name": "account",
          "type": "address"
        }
      ],
      "name": "balanceOf",
      "outputs": [
        {
          "internalType": "uint256",
          "name": "",
          "type": "uint256"
        }
      ],
      "stateMutability": "view",
      "type": "function"
    },
    {
      "inputs": [
        {
          "internalType": "address",
          "name": "account",
          "type": "address"
        },
        {
          "internalType": "uint256",
          "name": "amount",
          "type": "uint256"
        }
      ],
      "name": "burn",
      "outputs": [
        {
          "internalType": "bool",
          "name": "success",
          "type": "bool"
        }
      ],
      "stateMutability": "nonpayable",
      "type": "function"
    },
    {
      "inputs": [
        {
          "internalType": "uint256",
          "name": "_amountToPurchase",
          "type": "uint256"
        }
      ],
      "name": "buy",
      "outputs": [],
      "stateMutability": "payable",
      "type": "function"
    },
    {
      "inputs": [
        {
          "internalType": "int256",
          "name": "_usdAmount",
          "type": "int256"
        }
      ],
      "name": "computeInitialPriceInAvax",
      "outputs": [
        {
          "internalType": "int256",
          "name": "priceInNAvax",
          "type": "int256"
        }
      ],
      "stateMutability": "view",
      "type": "function"
    },
    {
      "inputs": [],
      "name": "currentLimit",
      "outputs": [
        {
          "internalType": "int256",
          "name": "",
          "type": "int256"
        }
      ],
      "stateMutability": "view",
      "type": "function"
    },
    {
      "inputs": [],
      "name": "decimals",
      "outputs": [
        {
          "internalType": "uint8",
          "name": "",
          "type": "uint8"
        }
      ],
      "stateMutability": "view",
      "type": "function"
    },
    {
      "inputs": [
        {
          "internalType": "address",
          "name": "spender",
          "type": "address"
        },
        {
          "internalType": "uint256",
          "name": "subtractedValue",
          "type": "uint256"
        }
      ],
      "name": "decreaseAllowance",
      "outputs": [
        {
          "internalType": "bool",
          "name": "",
          "type": "bool"
        }
      ],
      "stateMutability": "nonpayable",
      "type": "function"
    },
    {
      "inputs": [],
      "name": "getLatestPrice",
      "outputs": [
        {
          "internalType": "int256",
          "name": "",
          "type": "int256"
        }
      ],
      "stateMutability": "view",
      "type": "function"
    },
    {
      "inputs": [
        {
          "internalType": "address",
          "name": "spender",
          "type": "address"
        },
        {
          "internalType": "uint256",
          "name": "addedValue",
          "type": "uint256"
        }
      ],
      "name": "increaseAllowance",
      "outputs": [
        {
          "internalType": "bool",
          "name": "",
          "type": "bool"
        }
      ],
      "stateMutability": "nonpayable",
      "type": "function"
    },
    {
      "inputs": [],
      "name": "maxPrice",
      "outputs": [
        {
          "internalType": "int256",
          "name": "",
          "type": "int256"
        }
      ],
      "stateMutability": "view",
      "type": "function"
    },
    {
      "inputs": [],
      "name": "midpoint",
      "outputs": [
        {
          "internalType": "int256",
          "name": "",
          "type": "int256"
        }
      ],
      "stateMutability": "view",
      "type": "function"
    },
    {
      "inputs": [
        {
          "internalType": "address",
          "name": "account",
          "type": "address"
        },
        {
          "internalType": "uint256",
          "name": "amount",
          "type": "uint256"
        }
      ],
      "name": "mint",
      "outputs": [
        {
          "internalType": "bool",
          "name": "sucess",
          "type": "bool"
        }
      ],
      "stateMutability": "nonpayable",
      "type": "function"
    },
    {
      "inputs": [],
      "name": "name",
      "outputs": [
        {
          "internalType": "string",
          "name": "",
          "type": "string"
        }
      ],
      "stateMutability": "view",
      "type": "function"
    },
    {
      "inputs": [],
      "name": "owner",
      "outputs": [
        {
          "internalType": "address",
          "name": "",
          "type": "address"
        }
      ],
      "stateMutability": "view",
      "type": "function"
    },
    {
      "inputs": [
        {
          "internalType": "uint256",
          "name": "x",
          "type": "uint256"
        }
      ],
      "name": "price",
      "outputs": [
        {
          "internalType": "uint256",
          "name": "",
          "type": "uint256"
        }
      ],
      "stateMutability": "view",
      "type": "function"
    },
    {
      "inputs": [],
      "name": "renounceOwnership",
      "outputs": [],
      "stateMutability": "nonpayable",
      "type": "function"
    },
    {
      "inputs": [
        {
          "internalType": "uint256",
          "name": "_amountToSell",
          "type": "uint256"
        }
      ],
      "name": "sell",
      "outputs": [],
      "stateMutability": "nonpayable",
      "type": "function"
    },
    {
      "inputs": [],
      "name": "steepness",
      "outputs": [
        {
          "internalType": "int256",
          "name": "",
          "type": "int256"
        }
      ],
      "stateMutability": "view",
      "type": "function"
    },
    {
      "inputs": [],
      "name": "symbol",
      "outputs": [
        {
          "internalType": "string",
          "name": "",
          "type": "string"
        }
      ],
      "stateMutability": "view",
      "type": "function"
    },
    {
      "inputs": [],
      "name": "totalSupply",
      "outputs": [
        {
          "internalType": "uint256",
          "name": "",
          "type": "uint256"
        }
      ],
      "stateMutability": "view",
      "type": "function"
    },
    {
      "inputs": [
        {
          "internalType": "address",
          "name": "recipient",
          "type": "address"
        },
        {
          "internalType": "uint256",
          "name": "amount",
          "type": "uint256"
        }
      ],
      "name": "transfer",
      "outputs": [
        {
          "internalType": "bool",
          "name": "",
          "type": "bool"
        }
      ],
      "stateMutability": "nonpayable",
      "type": "function"
    },
    {
      "inputs": [
        {
          "internalType": "address",
          "name": "sender",
          "type": "address"
        },
        {
          "internalType": "address",
          "name": "recipient",
          "type": "address"
        },
        {
          "internalType": "uint256",
          "name": "amount",
          "type": "uint256"
        }
      ],
      "name": "transferFrom",
      "outputs": [
        {
          "internalType": "bool",
          "name": "",
          "type": "bool"
        }
      ],
      "stateMutability": "nonpayable",
      "type": "function"
    },
    {
      "inputs": [
        {
          "internalType": "address",
          "name": "newOwner",
          "type": "address"
        }
      ],
      "name": "transferOwnership",
      "outputs": [],
      "stateMutability": "nonpayable",
      "type": "function"
    },
    {
      "inputs": [
        {
          "internalType": "uint256",
          "name": "amount",
          "type": "uint256"
        }
      ],
      "name": "withdraw",
      "outputs": [
        {
          "internalType": "bool",
          "name": "success",
          "type": "bool"
        }
      ],
      "stateMutability": "nonpayable",
      "type": "function"
    },
    {
      "stateMutability": "payable",
      "type": "receive"
    }
  ],
  "bytecode": "0x60806040526305f5e1006008553480156200001957600080fd5b50604051620027fc380380620027fc8339810160408190526200003c91620003d6565b6040805180820182526011815270496e666c75656e63657245636f6e6f6d7960781b6020808301918252835180850190945260048452631253919360e21b908401528151919291620000919160039162000330565b508051620000a790600490602084019062000330565b505050620000c4620000be6200014b60201b60201c565b6200014f565b6001600655600780546001600160a01b031916735498bb86bc934c8d34fda08e81d444153d0d06ad1790556200012433620000fe620001a1565b6200010e9060ff16600a62000561565b6200011e90630bebc20062000656565b620001a6565b506009839055600b8290556200013c600284620004d6565b600a55600c5550620006cb9050565b3390565b600580546001600160a01b038381166001600160a01b0319831681179093556040519116919082907f8be0079c531659141344cd1fd0a4f28419497f9722a3daafe3b4186f6b6457e090600090a35050565b601290565b6000620001b26200014b565b6001600160a01b0316620001c562000243565b6001600160a01b031614620001f75760405162461bcd60e51b8152600401620001ee9062000404565b60405180910390fd5b6001600160a01b038316158015906200020f57508115155b6200022e5760405162461bcd60e51b8152600401620001ee9062000439565b6200023a838362000252565b50600192915050565b6005546001600160a01b031690565b6001600160a01b0382166200027b5760405162461bcd60e51b8152600401620001ee906200047b565b62000289600083836200032b565b80600260008282546200029d9190620004bb565b90915550506001600160a01b03821660009081526020819052604081208054839290620002cc908490620004bb565b90915550506040516001600160a01b038316906000907fddf252ad1be2c89b69c2b068fc378daa952ba7f163c4a11628f55a4df523b3ef9062000311908590620004b2565b60405180910390a362000327600083836200032b565b5050565b505050565b8280546200033e9062000678565b90600052602060002090601f016020900481019282620003625760008555620003ad565b82601f106200037d57805160ff1916838001178555620003ad565b82800160010185558215620003ad579182015b82811115620003ad57825182559160200191906001019062000390565b50620003bb929150620003bf565b5090565b5b80821115620003bb5760008155600101620003c0565b600080600060608486031215620003eb578283fd5b8351925060208401519150604084015190509250925092565b6020808252818101527f4f776e61626c653a2063616c6c6572206973206e6f7420746865206f776e6572604082015260600190565b60208082526022908201527f45524332303a2066756e6374696f6e206d696e7420696e76616c696420696e706040820152611d5d60f21b606082015260800190565b6020808252601f908201527f45524332303a206d696e7420746f20746865207a65726f206164647265737300604082015260600190565b90815260200190565b60008219821115620004d157620004d1620006b5565b500190565b600082620004f257634e487b7160e01b81526012600452602481fd5b600160ff1b8214600019841416156200050f576200050f620006b5565b500590565b80825b600180861162000528575062000558565b8187048211156200053d576200053d620006b5565b808616156200054b57918102915b9490941c93800262000517565b94509492505050565b600062000572600019848462000579565b9392505050565b6000826200058a5750600162000572565b81620005995750600062000572565b8160018114620005b25760028114620005bd57620005f1565b600191505062000572565b60ff841115620005d157620005d1620006b5565b6001841b915084821115620005ea57620005ea620006b5565b5062000572565b5060208310610133831016604e8410600b841016171562000629575081810a83811115620006235762000623620006b5565b62000572565b62000638848484600162000514565b8086048211156200064d576200064d620006b5565b02949350505050565b6000816000190483118215151615620006735762000673620006b5565b500290565b6002810460018216806200068d57607f821691505b60208210811415620006af57634e487b7160e01b600052602260045260246000fd5b50919050565b634e487b7160e01b600052601160045260246000fd5b61212180620006db6000396000f3fe60806040526004361061019f5760003560e01c806387563ec1116100ec578063ceacdca81161008a578063e38d6b5c11610064578063e38d6b5c14610467578063e4849b321461047c578063eabd0ce11461049c578063f2fde38b146104b1576101a6565b8063ceacdca81461041f578063d96a094a14610434578063dd62ed3e14610447576101a6565b806395d89b41116100c657806395d89b41146103aa5780639dc29fac146103bf578063a457c2d7146103df578063a9059cbb146103ff576101a6565b806387563ec11461035e5780638da5cb5b146103735780638e15f47314610395576101a6565b80632e1a7d4d11610159578063395093511161013357806339509351146102e957806340c10f191461030957806370a0823114610329578063715018a614610349576101a6565b80632e1a7d4d14610285578063313ce567146102a55780633237143f146102c7576101a6565b80626b1fd9146101ab57806306fdde03146101e1578063095ea7b31461020357806318160ddd1461023057806323b872dd1461024557806326a49e3714610265576101a6565b366101a657005b600080fd5b3480156101b757600080fd5b506101cb6101c6366004611669565b6104d1565b6040516101d89190611723565b60405180910390f35b3480156101ed57600080fd5b506101f6610514565b6040516101d8919061173a565b34801561020f57600080fd5b5061022361021e366004611640565b6105a6565b6040516101d89190611718565b34801561023c57600080fd5b506101cb6105c3565b34801561025157600080fd5b50610223610260366004611605565b6105c9565b34801561027157600080fd5b506101cb610280366004611669565b610664565b34801561029157600080fd5b506102236102a0366004611669565b61099b565b3480156102b157600080fd5b506102ba610a60565b6040516101d89190611ce3565b3480156102d357600080fd5b506102e76102e23660046115b9565b610a65565b005b3480156102f557600080fd5b50610223610304366004611640565b610ad5565b34801561031557600080fd5b50610223610324366004611640565b610b24565b34801561033557600080fd5b506101cb6103443660046115b9565b610ba2565b34801561035557600080fd5b506102e7610bbd565b34801561036a57600080fd5b506101cb610c08565b34801561037f57600080fd5b50610388610c0e565b6040516101d891906116eb565b3480156103a157600080fd5b506101cb610c1d565b3480156103b657600080fd5b506101f6610cbb565b3480156103cb57600080fd5b506102236103da366004611640565b610cca565b3480156103eb57600080fd5b506102236103fa366004611640565b610d30565b34801561040b57600080fd5b5061022361041a366004611640565b610da9565b34801561042b57600080fd5b506101cb610dbd565b6102e7610442366004611669565b610dc3565b34801561045357600080fd5b506101cb6104623660046115d3565b610f51565b34801561047357600080fd5b506101cb610f7c565b34801561048857600080fd5b506102e7610497366004611669565b610f82565b3480156104a857600080fd5b506101cb611122565b3480156104bd57600080fd5b506102e76104cc3660046115b9565b611128565b600060646008546104e0610c1d565b6104ea9190611d4a565b6104f884633b9aca00611f8c565b6105029190611d4a565b61050c9190611d4a565b90505b919050565b60606003805461052390612084565b80601f016020809104026020016040519081016040528092919081815260200182805461054f90612084565b801561059c5780601f106105715761010080835404028352916020019161059c565b820191906000526020600020905b81548152906001019060200180831161057f57829003601f168201915b5050505050905090565b60006105ba6105b3611196565b848461119a565b50600192915050565b60025490565b60006105d684848461124e565b6001600160a01b0384166000908152600160205260408120816105f7611196565b6001600160a01b03166001600160a01b03168152602001908152602001600020549050828110156106435760405162461bcd60e51b815260040161063a90611924565b60405180910390fd5b6106578561064f611196565b85840361119a565b60019150505b9392505050565b600080600a5483610675919061202e565b90506000610684600283611ea2565b600c546106919190611cf1565b604051639f17f3ff60e01b815290915060009073__$78827766868fbfa7b31de48993c6ed9f34$__90639f17f3ff906106ce908590600401611723565b60206040518083038186803b1580156106e657600080fd5b505af41580156106fa573d6000803e3d6000fd5b505050506040513d601f19601f8201168201806040525081019061071e9190611681565b604051630332efa360e51b815290915060009073__$78827766868fbfa7b31de48993c6ed9f34$__9063665df4609061075b908590600401611723565b60206040518083038186803b15801561077357600080fd5b505af4158015610787573d6000803e3d6000fd5b505050506040513d601f19601f820116820180604052508101906107ab9190611681565b604051639f17f3ff60e01b815290915060009073__$78827766868fbfa7b31de48993c6ed9f34$__90639f17f3ff906107e8908890600401611723565b60206040518083038186803b15801561080057600080fd5b505af4158015610814573d6000803e3d6000fd5b505050506040513d601f19601f820116820180604052508101906108389190611681565b604051637acc211b60e11b815290915060009073__$78827766868fbfa7b31de48993c6ed9f34$__9063f598423690610877908590879060040161172c565b60206040518083038186803b15801561088f57600080fd5b505af41580156108a3573d6000803e3d6000fd5b505050506040513d601f19601f820116820180604052508101906108c79190611681565b6108db9069d3c21bcecceda1000000611cf1565b600b54604051639f17f3ff60e01b8152919250600091839173__$78827766868fbfa7b31de48993c6ed9f34$__91639f17f3ff9161091b91600401611723565b60206040518083038186803b15801561093357600080fd5b505af4158015610947573d6000803e3d6000fd5b505050506040513d601f19601f8201168201806040525081019061096b9190611681565b6109759190611f8c565b905061098e6c0c9f2c9cd04674edea4000000082611d4a565b9998505050505050505050565b60006109a5611196565b6001600160a01b03166109b6610c0e565b6001600160a01b0316146109dc5760405162461bcd60e51b815260040161063a9061196c565b600260065414156109ff5760405162461bcd60e51b815260040161063a90611bf9565b600260065547821115610a245760405162461bcd60e51b815260040161063a90611812565b604051339083156108fc029084906000818181858888f19350505050158015610a51573d6000803e3d6000fd5b50600190506001600655919050565b601290565b610a6d611196565b6001600160a01b0316610a7e610c0e565b6001600160a01b031614610aa45760405162461bcd60e51b815260040161063a9061196c565b610ad23382610ab1610a60565b610abf9060ff16600a611ebe565b610acd90630aba950061200f565b61119a565b50565b60006105ba610ae2611196565b848460016000610af0611196565b6001600160a01b03908116825260208083019390935260409182016000908120918b1681529252902054610acd9190611d32565b6000610b2e611196565b6001600160a01b0316610b3f610c0e565b6001600160a01b031614610b655760405162461bcd60e51b815260040161063a9061196c565b6001600160a01b03831615801590610b7c57508115155b610b985760405162461bcd60e51b815260040161063a906119d8565b6105ba8383611378565b6001600160a01b031660009081526020819052604090205490565b610bc5611196565b6001600160a01b0316610bd6610c0e565b6001600160a01b031614610bfc5760405162461bcd60e51b815260040161063a9061196c565b610c066000611444565b565b600c5481565b6005546001600160a01b031690565b600080600080600080600760009054906101000a90046001600160a01b03166001600160a01b031663feaf968c6040518163ffffffff1660e01b815260040160a06040518083038186803b158015610c7457600080fd5b505afa158015610c88573d6000803e3d6000fd5b505050506040513d601f19601f82011682018060405250810190610cac9190611699565b50919850505050505050505090565b60606004805461052390612084565b600081610cd633610ba2565b11610cf35760405162461bcd60e51b815260040161063a90611ba3565b6001600160a01b03831615801590610d0a57508115155b610d265760405162461bcd60e51b815260040161063a90611b1d565b6105ba8383611496565b60008060016000610d3f611196565b6001600160a01b0390811682526020808301939093526040918201600090812091881681529252902054905082811015610d8b5760405162461bcd60e51b815260040161063a90611c67565b610d9f610d96611196565b8585840361119a565b5060019392505050565b60006105ba610db6611196565b848461124e565b600a5481565b6000610dcd6105c3565b90506000610ddf610280836001611d32565b90506009548210610e025760405162461bcd60e51b815260040161063a906119a1565b6000610e0d826104d1565b90506000610e1b828661200f565b905060006103e8610e2d8760fa61200f565b610e379190611d78565b90506000610e45828861206d565b9050823411610e665760405162461bcd60e51b815260040161063a90611a1a565b6000610e70610c0e565b6001600160a01b031684604051610e86906116e8565b60006040518083038185875af1925050503d8060008114610ec3576040519150601f19603f3d011682016040523d82523d6000602084013e610ec8565b606091505b5050905080610ee95760405162461bcd60e51b815260040161063a90611aab565b610efa610ef4610c0e565b84610cca565b50610f0d610f06610c0e565b33846105c9565b507f3b0235c33cdccf9515aed60ee1d3b81366ddfb118b3892d78f405d177f17a62a3387604051610f3f9291906116ff565b60405180910390a15050505050505050565b6001600160a01b03918216600090815260016020908152604080832093909416825291909152205490565b600b5481565b60026006541415610fa55760405162461bcd60e51b815260040161063a90611bf9565b60026006556000610fb76102806105c3565b90506000610fc433610ba2565b905080831115610fe65760405162461bcd60e51b815260040161063a90611c30565b6000610ff3600a85611d78565b90506000611002600a86611d78565b9050600081611011848861206d565b61101b919061206d565b905061102f33611029610c0e565b8361124e565b6110423061103d8486611d32565b611496565b600061104d866104d1565b9050600061105b828461200f565b90506000336001600160a01b031682604051611076906116e8565b60006040518083038185875af1925050503d80600081146110b3576040519150601f19603f3d011682016040523d82523d6000602084013e6110b8565b606091505b50509050806110d95760405162461bcd60e51b815260040161063a90611aab565b7fad8e8e04fa975586e5e008814828c75a97c6b0948ca687f5cee1cb44269e295e338a60405161110a9291906116ff565b60405180910390a15050600160065550505050505050565b60095481565b611130611196565b6001600160a01b0316611141610c0e565b6001600160a01b0316146111675760405162461bcd60e51b815260040161063a9061196c565b6001600160a01b03811661118d5760405162461bcd60e51b815260040161063a90611856565b610ad281611444565b3390565b6001600160a01b0383166111c05760405162461bcd60e51b815260040161063a90611b5f565b6001600160a01b0382166111e65760405162461bcd60e51b815260040161063a9061189c565b6001600160a01b0380841660008181526001602090815260408083209487168084529490915290819020849055517f8c5be1e5ebec7d5bd14f71427d1e84f3dd0314c0f7b2291e5b200ac8c7c3b92590611241908590611723565b60405180910390a3505050565b6001600160a01b0383166112745760405162461bcd60e51b815260040161063a90611ad8565b6001600160a01b03821661129a5760405162461bcd60e51b815260040161063a9061178d565b6112a5838383611583565b6001600160a01b038316600090815260208190526040902054818110156112de5760405162461bcd60e51b815260040161063a906118de565b6001600160a01b03808516600090815260208190526040808220858503905591851681529081208054849290611315908490611d32565b92505081905550826001600160a01b0316846001600160a01b03167fddf252ad1be2c89b69c2b068fc378daa952ba7f163c4a11628f55a4df523b3ef8460405161135f9190611723565b60405180910390a3611372848484611583565b50505050565b6001600160a01b03821661139e5760405162461bcd60e51b815260040161063a90611cac565b6113aa60008383611583565b80600260008282546113bc9190611d32565b90915550506001600160a01b038216600090815260208190526040812080548392906113e9908490611d32565b90915550506040516001600160a01b038316906000907fddf252ad1be2c89b69c2b068fc378daa952ba7f163c4a11628f55a4df523b3ef9061142c908590611723565b60405180910390a361144060008383611583565b5050565b600580546001600160a01b038381166001600160a01b0319831681179093556040519116919082907f8be0079c531659141344cd1fd0a4f28419497f9722a3daafe3b4186f6b6457e090600090a35050565b6001600160a01b0382166114bc5760405162461bcd60e51b815260040161063a90611a6a565b6114c882600083611583565b6001600160a01b038216600090815260208190526040902054818110156115015760405162461bcd60e51b815260040161063a906117d0565b6001600160a01b038316600090815260208190526040812083830390556002805484929061153090849061206d565b90915550506040516000906001600160a01b038516907fddf252ad1be2c89b69c2b068fc378daa952ba7f163c4a11628f55a4df523b3ef90611573908690611723565b60405180910390a3611583836000845b505050565b80356001600160a01b038116811461050f57600080fd5b805169ffffffffffffffffffff8116811461050f57600080fd5b6000602082840312156115ca578081fd5b61065d82611588565b600080604083850312156115e5578081fd5b6115ee83611588565b91506115fc60208401611588565b90509250929050565b600080600060608486031215611619578081fd5b61162284611588565b925061163060208501611588565b9150604084013590509250925092565b60008060408385031215611652578182fd5b61165b83611588565b946020939093013593505050565b60006020828403121561167a578081fd5b5035919050565b600060208284031215611692578081fd5b5051919050565b600080600080600060a086880312156116b0578081fd5b6116b98661159f565b94506020860151935060408601519250606086015191506116dc6080870161159f565b90509295509295909350565b90565b6001600160a01b0391909116815260200190565b6001600160a01b03929092168252602082015260400190565b901515815260200190565b90815260200190565b918252602082015260400190565b6000602080835283518082850152825b818110156117665785810183015185820160400152820161174a565b818111156117775783604083870101525b50601f01601f1916929092016040019392505050565b60208082526023908201527f45524332303a207472616e7366657220746f20746865207a65726f206164647260408201526265737360e81b606082015260800190565b60208082526022908201527f45524332303a206275726e20616d6f756e7420657863656564732062616c616e604082015261636560f01b606082015260800190565b60208082526024908201527f49434f3a2066756e6374696f6e20776974686472617720696e76616c696420696040820152631b9c1d5d60e21b606082015260800190565b60208082526026908201527f4f776e61626c653a206e6577206f776e657220697320746865207a65726f206160408201526564647265737360d01b606082015260800190565b60208082526022908201527f45524332303a20617070726f766520746f20746865207a65726f206164647265604082015261737360f01b606082015260800190565b60208082526026908201527f45524332303a207472616e7366657220616d6f756e7420657863656564732062604082015265616c616e636560d01b606082015260800190565b60208082526028908201527f45524332303a207472616e7366657220616d6f756e74206578636565647320616040820152676c6c6f77616e636560c01b606082015260800190565b6020808252818101527f4f776e61626c653a2063616c6c6572206973206e6f7420746865206f776e6572604082015260600190565b6020808252601c908201527f4255593a204d617820537570706c79206e6f7420526561636865642100000000604082015260600190565b60208082526022908201527f45524332303a2066756e6374696f6e206d696e7420696e76616c696420696e706040820152611d5d60f21b606082015260800190565b60208082526030908201527f6e6f742073756666696369656e7420417661782062616c616e636520666f722060408201526f185b5bdd5b9d081c995c5d595cdd195960821b606082015260800190565b60208082526021908201527f45524332303a206275726e2066726f6d20746865207a65726f206164647265736040820152607360f81b606082015260800190565b60208082526013908201527208cc2d2d8cac840e8de40e6cadcc84082ecc2f606b1b604082015260600190565b60208082526025908201527f45524332303a207472616e736665722066726f6d20746865207a65726f206164604082015264647265737360d81b606082015260800190565b60208082526022908201527f45524332303a2066756e6374696f6e206275726e20696e76616c696420696e706040820152611d5d60f21b606082015260800190565b60208082526024908201527f45524332303a20617070726f76652066726f6d20746865207a65726f206164646040820152637265737360e01b606082015260800190565b60208082526036908201527f20796f752063616e6e6f74206275726e2074686520616d6f756e74206e6f7420604082015275185d985a5b18589b19481a5b881e5bdd5c881858d8dd60521b606082015260800190565b6020808252601f908201527f5265656e7472616e637947756172643a207265656e7472616e742063616c6c00604082015260600190565b6020808252601d908201527f446f6e2774206861766520656e6f75676820494e464c20746f6b656e73000000604082015260600190565b60208082526025908201527f45524332303a2064656372656173656420616c6c6f77616e63652062656c6f77604082015264207a65726f60d81b606082015260800190565b6020808252601f908201527f45524332303a206d696e7420746f20746865207a65726f206164647265737300604082015260600190565b60ff91909116815260200190565b600080821280156001600160ff1b0384900385131615611d1357611d136120bf565b600160ff1b8390038412811615611d2c57611d2c6120bf565b50500190565b60008219821115611d4557611d456120bf565b500190565b600082611d5957611d596120d5565b600160ff1b821460001984141615611d7357611d736120bf565b500590565b600082611d8757611d876120d5565b500490565b80825b6001808611611d9e5750611dc9565b818704821115611db057611db06120bf565b80861615611dbd57918102915b9490941c938002611d8f565b94509492505050565b6000828015611de85760018114611df257611dfb565b6001915050611e9a565b82915050611e9a565b5081611e0957506000611e9a565b50600160008213808214611e22578015611e3957611e4b565b828604831115611e3457611e346120bf565b611e4b565b828605831215611e4b57611e4b6120bf565b5080831615611e575750805b611e68858460011c84850284611d8c565b8087048211600083131615611e7f57611e7f6120bf565b8086058212600083121615611e9657611e966120bf565b0290505b949350505050565b600061065d6001600160ff1b03600160ff1b60ff861685611dd2565b600061065d6000198484600082611ed75750600161065d565b81611ee45750600061065d565b8160018114611efa5760028114611f0457611f31565b600191505061065d565b60ff841115611f1557611f156120bf565b6001841b915084821115611f2b57611f2b6120bf565b5061065d565b5060208310610133831016604e8410600b8410161715611f64575081810a83811115611f5f57611f5f6120bf565b61065d565b611f718484846001611d8c565b808604821115611f8357611f836120bf565b02949350505050565b60006001600160ff1b0381841382841380821686840486111615611fb257611fb26120bf565b600160ff1b84871282811687830589121615611fd057611fd06120bf565b858712925087820587128484161615611feb57611feb6120bf565b87850587128184161615612001576120016120bf565b505050929093029392505050565b6000816000190483118215151615612029576120296120bf565b500290565b60008083128015600160ff1b85018412161561204c5761204c6120bf565b6001600160ff1b0384018313811615612067576120676120bf565b50500390565b60008282101561207f5761207f6120bf565b500390565b60028104600182168061209857607f821691505b602082108114156120b957634e487b7160e01b600052602260045260246000fd5b50919050565b634e487b7160e01b600052601160045260246000fd5b634e487b7160e01b600052601260045260246000fdfea264697066735822122080e90df0957141882e836abbb00c3787e850dea253c0ed44e63bf6c2dec318d564736f6c63430008000033",
  "linkReferences": {
    "contracts/FixedMath.sol": {
      "FixedMath": [
        {
          "length": 20,
          "start": 3457
        },
        {
          "length": 20,
          "start": 3598
        },
        {
          "length": 20,
          "start": 3739
        },
        {
          "length": 20,
          "start": 3880
        },
        {
          "length": 20,
          "start": 4048
        }
      ]
    }
  },
  "deployedLinkReferences": {
    "contracts/FixedMath.sol": {
      "FixedMath": [
        {
          "length": 20,
          "start": 1702
        },
        {
          "length": 20,
          "start": 1843
        },
        {
          "length": 20,
          "start": 1984
        },
        {
          "length": 20,
          "start": 2125
        },
        {
          "length": 20,
          "start": 2293
        }
      ]
    }
  }
}