{
  "_format": "hh-sol-artifact-1",
  "contractName": "Treasury",
  "sourceName": "contracts/Treasury.sol",
  "abi": [
    {
      "inputs": [
        {
          "internalType": "int256",
          "name": "_currentLimit",
          "type": "int256"
        },
        {
          "internalType": "int256",
          "name": "_maxPrice",
          "type": "int256"
        },
        {
          "internalType": "int256",
          "name": "_steepness",
          "type": "int256"
        }
      ],
      "stateMutability": "nonpayable",
      "type": "constructor"
    },
    {
      "anonymous": false,
      "inputs": [
        {
          "indexed": true,
          "internalType": "address",
          "name": "owner",
          "type": "address"
        },
        {
          "indexed": true,
          "internalType": "address",
          "name": "spender",
          "type": "address"
        },
        {
          "indexed": false,
          "internalType": "uint256",
          "name": "value",
          "type": "uint256"
        }
      ],
      "name": "Approval",
      "type": "event"
    },
    {
      "anonymous": false,
      "inputs": [
        {
          "indexed": false,
          "internalType": "address",
          "name": "buyer",
          "type": "address"
        },
        {
          "indexed": false,
          "internalType": "uint256",
          "name": "price",
          "type": "uint256"
        }
      ],
      "name": "Buy",
      "type": "event"
    },
    {
      "anonymous": false,
      "inputs": [
        {
          "indexed": false,
          "internalType": "address",
          "name": "buyer",
          "type": "address"
        },
        {
          "indexed": false,
          "internalType": "uint256",
          "name": "price",
          "type": "uint256"
        }
      ],
      "name": "BuyINFL",
      "type": "event"
    },
    {
      "anonymous": false,
      "inputs": [
        {
          "indexed": false,
          "internalType": "address",
          "name": "newAdmin",
          "type": "address"
        }
      ],
      "name": "ChangeAdmin",
      "type": "event"
    },
    {
      "anonymous": false,
      "inputs": [
        {
          "indexed": true,
          "internalType": "address",
          "name": "previousOwner",
          "type": "address"
        },
        {
          "indexed": true,
          "internalType": "address",
          "name": "newOwner",
          "type": "address"
        }
      ],
      "name": "OwnershipTransferred",
      "type": "event"
    },
    {
      "anonymous": false,
      "inputs": [
        {
          "indexed": false,
          "internalType": "address",
          "name": "seller",
          "type": "address"
        },
        {
          "indexed": false,
          "internalType": "uint256",
          "name": "price",
          "type": "uint256"
        }
      ],
      "name": "Sell",
      "type": "event"
    },
    {
      "anonymous": false,
      "inputs": [
        {
          "indexed": false,
          "internalType": "address",
          "name": "seller",
          "type": "address"
        },
        {
          "indexed": false,
          "internalType": "uint256",
          "name": "price",
          "type": "uint256"
        }
      ],
      "name": "SellINFL",
      "type": "event"
    },
    {
      "anonymous": false,
      "inputs": [
        {
          "indexed": true,
          "internalType": "address",
          "name": "from",
          "type": "address"
        },
        {
          "indexed": true,
          "internalType": "address",
          "name": "to",
          "type": "address"
        },
        {
          "indexed": false,
          "internalType": "uint256",
          "name": "value",
          "type": "uint256"
        }
      ],
      "name": "Transfer",
      "type": "event"
    },
    {
      "inputs": [],
      "name": "admin",
      "outputs": [
        {
          "internalType": "address",
          "name": "",
          "type": "address"
        }
      ],
      "stateMutability": "view",
      "type": "function"
    },
    {
      "inputs": [
        {
          "internalType": "address",
          "name": "owner",
          "type": "address"
        },
        {
          "internalType": "address",
          "name": "spender",
          "type": "address"
        }
      ],
      "name": "allowance",
      "outputs": [
        {
          "internalType": "uint256",
          "name": "",
          "type": "uint256"
        }
      ],
      "stateMutability": "view",
      "type": "function"
    },
    {
      "inputs": [
        {
          "internalType": "address",
          "name": "spender",
          "type": "address"
        },
        {
          "internalType": "uint256",
          "name": "amount",
          "type": "uint256"
        }
      ],
      "name": "approve",
      "outputs": [
        {
          "internalType": "bool",
          "name": "",
          "type": "bool"
        }
      ],
      "stateMutability": "nonpayable",
      "type": "function"
    },
    {
      "inputs": [
        {
          "internalType": "address",
          "name": "account",
          "type": "address"
        }
      ],
      "name": "balanceOf",
      "outputs": [
        {
          "internalType": "uint256",
          "name": "",
          "type": "uint256"
        }
      ],
      "stateMutability": "view",
      "type": "function"
    },
    {
      "inputs": [
        {
          "internalType": "address",
          "name": "account",
          "type": "address"
        },
        {
          "internalType": "uint256",
          "name": "amount",
          "type": "uint256"
        }
      ],
      "name": "burn",
      "outputs": [
        {
          "internalType": "bool",
          "name": "success",
          "type": "bool"
        }
      ],
      "stateMutability": "nonpayable",
      "type": "function"
    },
    {
      "inputs": [
        {
          "internalType": "uint256",
          "name": "_amountToPurchase",
          "type": "uint256"
        }
      ],
      "name": "buy",
      "outputs": [],
      "stateMutability": "payable",
      "type": "function"
    },
    {
      "inputs": [
        {
          "internalType": "uint256",
          "name": "_usdAmount",
          "type": "uint256"
        }
      ],
      "name": "computeInitialPriceInEth",
      "outputs": [
        {
          "internalType": "uint256",
          "name": "priceInEth",
          "type": "uint256"
        }
      ],
      "stateMutability": "view",
      "type": "function"
    },
    {
      "inputs": [],
      "name": "currentLimit",
      "outputs": [
        {
          "internalType": "int256",
          "name": "",
          "type": "int256"
        }
      ],
      "stateMutability": "view",
      "type": "function"
    },
    {
      "inputs": [],
      "name": "dai",
      "outputs": [
        {
          "internalType": "address",
          "name": "",
          "type": "address"
        }
      ],
      "stateMutability": "view",
      "type": "function"
    },
    {
      "inputs": [],
      "name": "decimals",
      "outputs": [
        {
          "internalType": "uint8",
          "name": "",
          "type": "uint8"
        }
      ],
      "stateMutability": "view",
      "type": "function"
    },
    {
      "inputs": [
        {
          "internalType": "address",
          "name": "spender",
          "type": "address"
        },
        {
          "internalType": "uint256",
          "name": "subtractedValue",
          "type": "uint256"
        }
      ],
      "name": "decreaseAllowance",
      "outputs": [
        {
          "internalType": "bool",
          "name": "",
          "type": "bool"
        }
      ],
      "stateMutability": "nonpayable",
      "type": "function"
    },
    {
      "inputs": [],
      "name": "getLatestPrice",
      "outputs": [
        {
          "internalType": "int256",
          "name": "",
          "type": "int256"
        }
      ],
      "stateMutability": "view",
      "type": "function"
    },
    {
      "inputs": [
        {
          "internalType": "address",
          "name": "spender",
          "type": "address"
        },
        {
          "internalType": "uint256",
          "name": "addedValue",
          "type": "uint256"
        }
      ],
      "name": "increaseAllowance",
      "outputs": [
        {
          "internalType": "bool",
          "name": "",
          "type": "bool"
        }
      ],
      "stateMutability": "nonpayable",
      "type": "function"
    },
    {
      "inputs": [],
      "name": "maxPrice",
      "outputs": [
        {
          "internalType": "int256",
          "name": "",
          "type": "int256"
        }
      ],
      "stateMutability": "view",
      "type": "function"
    },
    {
      "inputs": [],
      "name": "midpoint",
      "outputs": [
        {
          "internalType": "int256",
          "name": "",
          "type": "int256"
        }
      ],
      "stateMutability": "view",
      "type": "function"
    },
    {
      "inputs": [
        {
          "internalType": "address",
          "name": "account",
          "type": "address"
        },
        {
          "internalType": "uint256",
          "name": "amount",
          "type": "uint256"
        }
      ],
      "name": "mint",
      "outputs": [
        {
          "internalType": "bool",
          "name": "sucess",
          "type": "bool"
        }
      ],
      "stateMutability": "nonpayable",
      "type": "function"
    },
    {
      "inputs": [],
      "name": "name",
      "outputs": [
        {
          "internalType": "string",
          "name": "",
          "type": "string"
        }
      ],
      "stateMutability": "view",
      "type": "function"
    },
    {
      "inputs": [],
      "name": "owner",
      "outputs": [
        {
          "internalType": "address",
          "name": "",
          "type": "address"
        }
      ],
      "stateMutability": "view",
      "type": "function"
    },
    {
      "inputs": [
        {
          "internalType": "uint256",
          "name": "x",
          "type": "uint256"
        }
      ],
      "name": "price",
      "outputs": [
        {
          "internalType": "uint256",
          "name": "",
          "type": "uint256"
        }
      ],
      "stateMutability": "view",
      "type": "function"
    },
    {
      "inputs": [],
      "name": "renounceOwnership",
      "outputs": [],
      "stateMutability": "nonpayable",
      "type": "function"
    },
    {
      "inputs": [
        {
          "internalType": "uint256",
          "name": "_amountToSell",
          "type": "uint256"
        }
      ],
      "name": "sell",
      "outputs": [],
      "stateMutability": "nonpayable",
      "type": "function"
    },
    {
      "inputs": [],
      "name": "steepness",
      "outputs": [
        {
          "internalType": "int256",
          "name": "",
          "type": "int256"
        }
      ],
      "stateMutability": "view",
      "type": "function"
    },
    {
      "inputs": [],
      "name": "symbol",
      "outputs": [
        {
          "internalType": "string",
          "name": "",
          "type": "string"
        }
      ],
      "stateMutability": "view",
      "type": "function"
    },
    {
      "inputs": [],
      "name": "totalSupply",
      "outputs": [
        {
          "internalType": "uint256",
          "name": "",
          "type": "uint256"
        }
      ],
      "stateMutability": "view",
      "type": "function"
    },
    {
      "inputs": [
        {
          "internalType": "address",
          "name": "recipient",
          "type": "address"
        },
        {
          "internalType": "uint256",
          "name": "amount",
          "type": "uint256"
        }
      ],
      "name": "transfer",
      "outputs": [
        {
          "internalType": "bool",
          "name": "",
          "type": "bool"
        }
      ],
      "stateMutability": "nonpayable",
      "type": "function"
    },
    {
      "inputs": [
        {
          "internalType": "address",
          "name": "sender",
          "type": "address"
        },
        {
          "internalType": "address",
          "name": "recipient",
          "type": "address"
        },
        {
          "internalType": "uint256",
          "name": "amount",
          "type": "uint256"
        }
      ],
      "name": "transferFrom",
      "outputs": [
        {
          "internalType": "bool",
          "name": "",
          "type": "bool"
        }
      ],
      "stateMutability": "nonpayable",
      "type": "function"
    },
    {
      "inputs": [
        {
          "internalType": "address",
          "name": "newOwner",
          "type": "address"
        }
      ],
      "name": "transferOwnership",
      "outputs": [],
      "stateMutability": "nonpayable",
      "type": "function"
    },
    {
      "inputs": [
        {
          "internalType": "uint256",
          "name": "amount",
          "type": "uint256"
        }
      ],
      "name": "withdraw",
      "outputs": [
        {
          "internalType": "bool",
          "name": "success",
          "type": "bool"
        }
      ],
      "stateMutability": "nonpayable",
      "type": "function"
    }
  ],
  "bytecode": "0x60806040523480156200001157600080fd5b50604051620026c9380380620026c98339810160408190526200003491620003df565b6040805180820182526011815270496e666c75656e63657245636f6e6f6d7960781b6020808301918252835180850190945260048452631253919360e21b908401528151919291620000899160039162000339565b5080516200009f90600490602084019062000339565b505050620000bc620000b66200015460201b60201c565b62000158565b6001600655600780546001600160a01b0319167386d67c3d38d2bcee722e601025c25a575021c6ea1790556200011c33620000f6620001aa565b620001069060ff16600a6200056a565b6200011690630bebc2006200065f565b620001af565b506008839055600a82905562000134600284620004df565b600955600b555050600d80546001600160a01b03191633179055620006d4565b3390565b600580546001600160a01b038381166001600160a01b0319831681179093556040519116919082907f8be0079c531659141344cd1fd0a4f28419497f9722a3daafe3b4186f6b6457e090600090a35050565b601290565b6000620001bb62000154565b6001600160a01b0316620001ce6200024c565b6001600160a01b031614620002005760405162461bcd60e51b8152600401620001f7906200040d565b60405180910390fd5b6001600160a01b038316158015906200021857508115155b620002375760405162461bcd60e51b8152600401620001f79062000442565b6200024383836200025b565b50600192915050565b6005546001600160a01b031690565b6001600160a01b038216620002845760405162461bcd60e51b8152600401620001f79062000484565b620002926000838362000334565b8060026000828254620002a69190620004c4565b90915550506001600160a01b03821660009081526020819052604081208054839290620002d5908490620004c4565b90915550506040516001600160a01b038316906000907fddf252ad1be2c89b69c2b068fc378daa952ba7f163c4a11628f55a4df523b3ef906200031a908590620004bb565b60405180910390a3620003306000838362000334565b5050565b505050565b828054620003479062000681565b90600052602060002090601f0160209004810192826200036b5760008555620003b6565b82601f106200038657805160ff1916838001178555620003b6565b82800160010185558215620003b6579182015b82811115620003b657825182559160200191906001019062000399565b50620003c4929150620003c8565b5090565b5b80821115620003c45760008155600101620003c9565b600080600060608486031215620003f4578283fd5b8351925060208401519150604084015190509250925092565b6020808252818101527f4f776e61626c653a2063616c6c6572206973206e6f7420746865206f776e6572604082015260600190565b60208082526022908201527f45524332303a2066756e6374696f6e206d696e7420696e76616c696420696e706040820152611d5d60f21b606082015260800190565b6020808252601f908201527f45524332303a206d696e7420746f20746865207a65726f206164647265737300604082015260600190565b90815260200190565b60008219821115620004da57620004da620006be565b500190565b600082620004fb57634e487b7160e01b81526012600452602481fd5b600160ff1b821460001984141615620005185762000518620006be565b500590565b80825b600180861162000531575062000561565b818704821115620005465762000546620006be565b808616156200055457918102915b9490941c93800262000520565b94509492505050565b60006200057b600019848462000582565b9392505050565b60008262000593575060016200057b565b81620005a2575060006200057b565b8160018114620005bb5760028114620005c657620005fa565b60019150506200057b565b60ff841115620005da57620005da620006be565b6001841b915084821115620005f357620005f3620006be565b506200057b565b5060208310610133831016604e8410600b841016171562000632575081810a838111156200062c576200062c620006be565b6200057b565b6200064184848460016200051d565b808604821115620006565762000656620006be565b02949350505050565b60008160001904831182151516156200067c576200067c620006be565b500290565b6002810460018216806200069657607f821691505b60208210811415620006b857634e487b7160e01b600052602260045260246000fd5b50919050565b634e487b7160e01b600052601160045260246000fd5b611fe580620006e46000396000f3fe6080604052600436106101b75760003560e01c806395d89b41116100ec578063dd62ed3e1161008a578063eabd0ce111610064578063eabd0ce11461048d578063f2fde38b146104a2578063f4b9fa75146104c2578063f851a440146104d7576101b7565b8063dd62ed3e14610438578063e38d6b5c14610458578063e4849b321461046d576101b7565b8063a9059cbb116100c6578063a9059cbb146103d0578063cc3a2d05146103f0578063ceacdca814610410578063d96a094a14610425576101b7565b806395d89b411461037b5780639dc29fac14610390578063a457c2d7146103b0576101b7565b80633950935111610159578063715018a611610133578063715018a61461031857806387563ec11461032f5780638da5cb5b146103445780638e15f47314610366576101b7565b806339509351146102b857806340c10f19146102d857806370a08231146102f8576101b7565b806323b872dd1161019557806323b872dd1461023657806326a49e37146102565780632e1a7d4d14610276578063313ce56714610296576101b7565b806306fdde03146101bc578063095ea7b3146101e757806318160ddd14610214575b600080fd5b3480156101c857600080fd5b506101d16104ec565b6040516101de919061168b565b60405180910390f35b3480156101f357600080fd5b50610207610202366004611591565b61057e565b6040516101de9190611669565b34801561022057600080fd5b5061022961059b565b6040516101de9190611674565b34801561024257600080fd5b50610207610251366004611556565b6105a1565b34801561026257600080fd5b506102296102713660046115d2565b61063c565b34801561028257600080fd5b506102076102913660046115d2565b610975565b3480156102a257600080fd5b506102ab610a16565b6040516101de9190611ba7565b3480156102c457600080fd5b506102076102d3366004611591565b610a1b565b3480156102e457600080fd5b506102076102f3366004611591565b610a6f565b34801561030457600080fd5b5061022961031336600461150a565b610aed565b34801561032457600080fd5b5061032d610b08565b005b34801561033b57600080fd5b50610229610b53565b34801561035057600080fd5b50610359610b59565b6040516101de919061163c565b34801561037257600080fd5b50610229610b68565b34801561038757600080fd5b506101d1610c06565b34801561039c57600080fd5b506102076103ab366004611591565b610c15565b3480156103bc57600080fd5b506102076103cb366004611591565b610c93565b3480156103dc57600080fd5b506102076103eb366004611591565b610d0c565b3480156103fc57600080fd5b5061022961040b3660046115d2565b610d20565b34801561041c57600080fd5b50610229610dcf565b61032d6104333660046115d2565b610dd5565b34801561044457600080fd5b50610229610453366004611524565b610f47565b34801561046457600080fd5b50610229610f72565b34801561047957600080fd5b5061032d6104883660046115d2565b610f78565b34801561049957600080fd5b50610229611052565b3480156104ae57600080fd5b5061032d6104bd36600461150a565b611058565b3480156104ce57600080fd5b506103596110c9565b3480156104e357600080fd5b506103596110d8565b6060600380546104fb90611f48565b80601f016020809104026020016040519081016040528092919081815260200182805461052790611f48565b80156105745780601f1061054957610100808354040283529160200191610574565b820191906000526020600020905b81548152906001019060200180831161055757829003601f168201915b5050505050905090565b600061059261058b6110e7565b84846110eb565b50600192915050565b60025490565b60006105ae84848461119f565b6001600160a01b0384166000908152600160205260408120816105cf6110e7565b6001600160a01b03166001600160a01b031681526020019081526020016000205490508281101561061b5760405162461bcd60e51b8152600401610612906118a3565b60405180910390fd5b61062f856106276110e7565b8584036110eb565b60019150505b9392505050565b6000806009548361064d9190611ef2565b9050600061065c600283611d66565b600b546106699190611bb5565b604051639f17f3ff60e01b815290915060009073__$78827766868fbfa7b31de48993c6ed9f34$__90639f17f3ff906106a6908590600401611674565b60206040518083038186803b1580156106be57600080fd5b505af41580156106d2573d6000803e3d6000fd5b505050506040513d601f19601f820116820180604052508101906106f691906115ba565b604051630332efa360e51b815290915060009073__$78827766868fbfa7b31de48993c6ed9f34$__9063665df46090610733908590600401611674565b60206040518083038186803b15801561074b57600080fd5b505af415801561075f573d6000803e3d6000fd5b505050506040513d601f19601f8201168201806040525081019061078391906115ba565b604051639f17f3ff60e01b815290915060009073__$78827766868fbfa7b31de48993c6ed9f34$__90639f17f3ff906107c0908890600401611674565b60206040518083038186803b1580156107d857600080fd5b505af41580156107ec573d6000803e3d6000fd5b505050506040513d601f19601f8201168201806040525081019061081091906115ba565b604051637acc211b60e11b815290915060009073__$78827766868fbfa7b31de48993c6ed9f34$__9063f59842369061084f908590879060040161167d565b60206040518083038186803b15801561086757600080fd5b505af415801561087b573d6000803e3d6000fd5b505050506040513d601f19601f8201168201806040525081019061089f91906115ba565b6108b39069d3c21bcecceda1000000611bb5565b600a54604051639f17f3ff60e01b8152919250600091839173__$78827766868fbfa7b31de48993c6ed9f34$__91639f17f3ff916108f391600401611674565b60206040518083038186803b15801561090b57600080fd5b505af415801561091f573d6000803e3d6000fd5b505050506040513d601f19601f8201168201806040525081019061094391906115ba565b61094d9190611e50565b90506109666c0c9f2c9cd04674edea4000000082611c0e565b9750505050505050505b919050565b600061097f6110e7565b6001600160a01b0316610990610b59565b6001600160a01b0316146109b65760405162461bcd60e51b8152600401610612906118eb565b478211156109d65760405162461bcd60e51b815260040161061290611763565b6109de6110e7565b6001600160a01b03166108fc839081150290604051600060405180830381858888f19350505050158015610592573d6000803e3d6000fd5b601290565b6000610592610a286110e7565b848460016000610a366110e7565b6001600160a01b03908116825260208083019390935260409182016000908120918b1681529252902054610a6a9190611bf6565b6110eb565b6000610a796110e7565b6001600160a01b0316610a8a610b59565b6001600160a01b031614610ab05760405162461bcd60e51b8152600401610612906118eb565b6001600160a01b03831615801590610ac757508115155b610ae35760405162461bcd60e51b815260040161061290611920565b61059283836112c9565b6001600160a01b031660009081526020819052604090205490565b610b106110e7565b6001600160a01b0316610b21610b59565b6001600160a01b031614610b475760405162461bcd60e51b8152600401610612906118eb565b610b516000611395565b565b600b5481565b6005546001600160a01b031690565b600080600080600080600760009054906101000a90046001600160a01b03166001600160a01b031663feaf968c6040518163ffffffff1660e01b815260040160a06040518083038186803b158015610bbf57600080fd5b505afa158015610bd3573d6000803e3d6000fd5b505050506040513d601f19601f82011682018060405250810190610bf791906115ea565b50919850505050505050505090565b6060600480546104fb90611f48565b6000610c1f6110e7565b6001600160a01b0316610c30610b59565b6001600160a01b031614610c565760405162461bcd60e51b8152600401610612906118eb565b6001600160a01b03831615801590610c6d57508115155b610c895760405162461bcd60e51b815260040161061290611a1f565b61059283836113e7565b60008060016000610ca26110e7565b6001600160a01b0390811682526020808301939093526040918201600090812091881681529252902054905082811015610cee5760405162461bcd60e51b815260040161061290611b2b565b610d02610cf96110e7565b858584036110eb565b5060019392505050565b6000610592610d196110e7565b848461119f565b6000610d2a610a16565b610d389060ff16600a611d82565b6064306001600160a01b0316638e15f4736040518163ffffffff1660e01b815260040160206040518083038186803b158015610d7357600080fd5b505afa158015610d87573d6000803e3d6000fd5b505050506040513d601f19601f82011682018060405250810190610dab91906115ba565b610db59085611c3c565b610dbf9190611c3c565b610dc99190611ed3565b92915050565b60095481565b6000610ddf61059b565b90506000610df1610271836001611bf6565b90506008548210610e145760405162461bcd60e51b815260040161061290611962565b6000610e208285611ed3565b905060006103e8610e328660fa611ed3565b610e3c9190611c3c565b90506000610e4a8287611f31565b905033318310610e6c5760405162461bcd60e51b815260040161061290611a61565b6000306001600160a01b031684604051610e8590611639565b60006040518083038185875af1925050503d8060008114610ec2576040519150601f19603f3d011682016040523d82523d6000602084013e610ec7565b606091505b5050905080610ee85760405162461bcd60e51b815260040161061290611875565b610ef23084610c15565b50610f05610efe610b59565b338461119f565b7f3b0235c33cdccf9515aed60ee1d3b81366ddfb118b3892d78f405d177f17a62a3386604051610f36929190611650565b60405180910390a150505050505050565b6001600160a01b03918216600090815260016020908152604080832093909416825291909152205490565b600a5481565b6000610f8561027161059b565b90506000610f938284611ed3565b90506000610fa033610aed565b905080841115610fc25760405162461bcd60e51b815260040161061290611af4565b6000610fcf600a86611c3c565b90506000610fde600a87611c3c565b9050600081610fed8489611f31565b610ff79190611f31565b905061100b33611005610b59565b8361119f565b6110153084610c15565b506110203083610c15565b507fad8e8e04fa975586e5e008814828c75a97c6b0948ca687f5cee1cb44269e295e3388604051610f36929190611650565b60085481565b6110606110e7565b6001600160a01b0316611071610b59565b6001600160a01b0316146110975760405162461bcd60e51b8152600401610612906118eb565b6001600160a01b0381166110bd5760405162461bcd60e51b8152600401610612906117a7565b6110c681611395565b50565b600c546001600160a01b031681565b600d546001600160a01b031681565b3390565b6001600160a01b0383166111115760405162461bcd60e51b815260040161061290611ab0565b6001600160a01b0382166111375760405162461bcd60e51b8152600401610612906117ed565b6001600160a01b0380841660008181526001602090815260408083209487168084529490915290819020849055517f8c5be1e5ebec7d5bd14f71427d1e84f3dd0314c0f7b2291e5b200ac8c7c3b92590611192908590611674565b60405180910390a3505050565b6001600160a01b0383166111c55760405162461bcd60e51b8152600401610612906119da565b6001600160a01b0382166111eb5760405162461bcd60e51b8152600401610612906116de565b6111f68383836114d4565b6001600160a01b0383166000908152602081905260409020548181101561122f5760405162461bcd60e51b81526004016106129061182f565b6001600160a01b03808516600090815260208190526040808220858503905591851681529081208054849290611266908490611bf6565b92505081905550826001600160a01b0316846001600160a01b03167fddf252ad1be2c89b69c2b068fc378daa952ba7f163c4a11628f55a4df523b3ef846040516112b09190611674565b60405180910390a36112c38484846114d4565b50505050565b6001600160a01b0382166112ef5760405162461bcd60e51b815260040161061290611b70565b6112fb600083836114d4565b806002600082825461130d9190611bf6565b90915550506001600160a01b0382166000908152602081905260408120805483929061133a908490611bf6565b90915550506040516001600160a01b038316906000907fddf252ad1be2c89b69c2b068fc378daa952ba7f163c4a11628f55a4df523b3ef9061137d908590611674565b60405180910390a3611391600083836114d4565b5050565b600580546001600160a01b038381166001600160a01b0319831681179093556040519116919082907f8be0079c531659141344cd1fd0a4f28419497f9722a3daafe3b4186f6b6457e090600090a35050565b6001600160a01b03821661140d5760405162461bcd60e51b815260040161061290611999565b611419826000836114d4565b6001600160a01b038216600090815260208190526040902054818110156114525760405162461bcd60e51b815260040161061290611721565b6001600160a01b0383166000908152602081905260408120838303905560028054849290611481908490611f31565b90915550506040516000906001600160a01b038516907fddf252ad1be2c89b69c2b068fc378daa952ba7f163c4a11628f55a4df523b3ef906114c4908690611674565b60405180910390a36114d4836000845b505050565b80356001600160a01b038116811461097057600080fd5b805169ffffffffffffffffffff8116811461097057600080fd5b60006020828403121561151b578081fd5b610635826114d9565b60008060408385031215611536578081fd5b61153f836114d9565b915061154d602084016114d9565b90509250929050565b60008060006060848603121561156a578081fd5b611573846114d9565b9250611581602085016114d9565b9150604084013590509250925092565b600080604083850312156115a3578182fd5b6115ac836114d9565b946020939093013593505050565b6000602082840312156115cb578081fd5b5051919050565b6000602082840312156115e3578081fd5b5035919050565b600080600080600060a08688031215611601578081fd5b61160a866114f0565b945060208601519350604086015192506060860151915061162d608087016114f0565b90509295509295909350565b90565b6001600160a01b0391909116815260200190565b6001600160a01b03929092168252602082015260400190565b901515815260200190565b90815260200190565b918252602082015260400190565b6000602080835283518082850152825b818110156116b75785810183015185820160400152820161169b565b818111156116c85783604083870101525b50601f01601f1916929092016040019392505050565b60208082526023908201527f45524332303a207472616e7366657220746f20746865207a65726f206164647260408201526265737360e81b606082015260800190565b60208082526022908201527f45524332303a206275726e20616d6f756e7420657863656564732062616c616e604082015261636560f01b606082015260800190565b60208082526024908201527f49434f3a2066756e6374696f6e20776974686472617720696e76616c696420696040820152631b9c1d5d60e21b606082015260800190565b60208082526026908201527f4f776e61626c653a206e6577206f776e657220697320746865207a65726f206160408201526564647265737360d01b606082015260800190565b60208082526022908201527f45524332303a20617070726f766520746f20746865207a65726f206164647265604082015261737360f01b606082015260800190565b60208082526026908201527f45524332303a207472616e7366657220616d6f756e7420657863656564732062604082015265616c616e636560d01b606082015260800190565b6020808252601490820152732330b4b632b2103a379039b2b7321022ba3432b960611b604082015260600190565b60208082526028908201527f45524332303a207472616e7366657220616d6f756e74206578636565647320616040820152676c6c6f77616e636560c01b606082015260800190565b6020808252818101527f4f776e61626c653a2063616c6c6572206973206e6f7420746865206f776e6572604082015260600190565b60208082526022908201527f45524332303a2066756e6374696f6e206d696e7420696e76616c696420696e706040820152611d5d60f21b606082015260800190565b60208082526018908201527f4255593a204d617820537570706c792052656163686564210000000000000000604082015260600190565b60208082526021908201527f45524332303a206275726e2066726f6d20746865207a65726f206164647265736040820152607360f81b606082015260800190565b60208082526025908201527f45524332303a207472616e736665722066726f6d20746865207a65726f206164604082015264647265737360d81b606082015260800190565b60208082526022908201527f45524332303a2066756e6374696f6e206275726e20696e76616c696420696e706040820152611d5d60f21b606082015260800190565b6020808252602f908201527f6e6f742073756666696369656e74204574682062616c616e636520666f72206160408201526e1b5bdd5b9d081c995c5d595cdd1959608a1b606082015260800190565b60208082526024908201527f45524332303a20617070726f76652066726f6d20746865207a65726f206164646040820152637265737360e01b606082015260800190565b6020808252601d908201527f446f6e2774206861766520656e6f75676820494e464c20746f6b656e73000000604082015260600190565b60208082526025908201527f45524332303a2064656372656173656420616c6c6f77616e63652062656c6f77604082015264207a65726f60d81b606082015260800190565b6020808252601f908201527f45524332303a206d696e7420746f20746865207a65726f206164647265737300604082015260600190565b60ff91909116815260200190565b600080821280156001600160ff1b0384900385131615611bd757611bd7611f83565b600160ff1b8390038412811615611bf057611bf0611f83565b50500190565b60008219821115611c0957611c09611f83565b500190565b600082611c1d57611c1d611f99565b600160ff1b821460001984141615611c3757611c37611f83565b500590565b600082611c4b57611c4b611f99565b500490565b80825b6001808611611c625750611c8d565b818704821115611c7457611c74611f83565b80861615611c8157918102915b9490941c938002611c53565b94509492505050565b6000828015611cac5760018114611cb657611cbf565b6001915050611d5e565b82915050611d5e565b5081611ccd57506000611d5e565b50600160008213808214611ce6578015611cfd57611d0f565b828604831115611cf857611cf8611f83565b611d0f565b828605831215611d0f57611d0f611f83565b5080831615611d1b5750805b611d2c858460011c84850284611c50565b8087048211600083131615611d4357611d43611f83565b8086058212600083121615611d5a57611d5a611f83565b0290505b949350505050565b60006106356001600160ff1b03600160ff1b60ff861685611c96565b60006106356000198484600082611d9b57506001610635565b81611da857506000610635565b8160018114611dbe5760028114611dc857611df5565b6001915050610635565b60ff841115611dd957611dd9611f83565b6001841b915084821115611def57611def611f83565b50610635565b5060208310610133831016604e8410600b8410161715611e28575081810a83811115611e2357611e23611f83565b610635565b611e358484846001611c50565b808604821115611e4757611e47611f83565b02949350505050565b60006001600160ff1b0381841382841380821686840486111615611e7657611e76611f83565b600160ff1b84871282811687830589121615611e9457611e94611f83565b858712925087820587128484161615611eaf57611eaf611f83565b87850587128184161615611ec557611ec5611f83565b505050929093029392505050565b6000816000190483118215151615611eed57611eed611f83565b500290565b60008083128015600160ff1b850184121615611f1057611f10611f83565b6001600160ff1b0384018313811615611f2b57611f2b611f83565b50500390565b600082821015611f4357611f43611f83565b500390565b600281046001821680611f5c57607f821691505b60208210811415611f7d57634e487b7160e01b600052602260045260246000fd5b50919050565b634e487b7160e01b600052601160045260246000fd5b634e487b7160e01b600052601260045260246000fdfea264697066735822122077958c88b4ac2441b248513828a69ed381093f78b736ab26238bb7d8932efaea64736f6c63430008000033",
  "linkReferences": {
    "contracts/FixedMath.sol": {
      "FixedMath": [
        {
          "length": 20,
          "start": 3426
        },
        {
          "length": 20,
          "start": 3567
        },
        {
          "length": 20,
          "start": 3708
        },
        {
          "length": 20,
          "start": 3849
        },
        {
          "length": 20,
          "start": 4017
        }
      ]
    }
  },
  "deployedLinkReferences": {
    "contracts/FixedMath.sol": {
      "FixedMath": [
        {
          "length": 20,
          "start": 1662
        },
        {
          "length": 20,
          "start": 1803
        },
        {
          "length": 20,
          "start": 1944
        },
        {
          "length": 20,
          "start": 2085
        },
        {
          "length": 20,
          "start": 2253
        }
      ]
    }
  }
}