{
  "_format": "hh-sol-artifact-1",
  "contractName": "Treasury",
  "sourceName": "contracts/Treasury.sol",
  "abi": [
    {
      "inputs": [
        {
          "internalType": "int256",
          "name": "_currentLimit",
          "type": "int256"
        },
        {
          "internalType": "int256",
          "name": "_maxPrice",
          "type": "int256"
        },
        {
          "internalType": "int256",
          "name": "_steepness",
          "type": "int256"
        }
      ],
      "stateMutability": "nonpayable",
      "type": "constructor"
    },
    {
      "anonymous": false,
      "inputs": [
        {
          "indexed": true,
          "internalType": "address",
          "name": "owner",
          "type": "address"
        },
        {
          "indexed": true,
          "internalType": "address",
          "name": "spender",
          "type": "address"
        },
        {
          "indexed": false,
          "internalType": "uint256",
          "name": "value",
          "type": "uint256"
        }
      ],
      "name": "Approval",
      "type": "event"
    },
    {
      "anonymous": false,
      "inputs": [
        {
          "indexed": false,
          "internalType": "address",
          "name": "buyer",
          "type": "address"
        },
        {
          "indexed": false,
          "internalType": "uint256",
          "name": "price",
          "type": "uint256"
        }
      ],
      "name": "Buy",
      "type": "event"
    },
    {
      "anonymous": false,
      "inputs": [
        {
          "indexed": false,
          "internalType": "address",
          "name": "buyer",
          "type": "address"
        },
        {
          "indexed": false,
          "internalType": "uint256",
          "name": "price",
          "type": "uint256"
        }
      ],
      "name": "BuyINFL",
      "type": "event"
    },
    {
      "anonymous": false,
      "inputs": [
        {
          "indexed": false,
          "internalType": "address",
          "name": "newAdmin",
          "type": "address"
        }
      ],
      "name": "ChangeAdmin",
      "type": "event"
    },
    {
      "anonymous": false,
      "inputs": [
        {
          "indexed": true,
          "internalType": "address",
          "name": "previousOwner",
          "type": "address"
        },
        {
          "indexed": true,
          "internalType": "address",
          "name": "newOwner",
          "type": "address"
        }
      ],
      "name": "OwnershipTransferred",
      "type": "event"
    },
    {
      "anonymous": false,
      "inputs": [
        {
          "indexed": false,
          "internalType": "address",
          "name": "seller",
          "type": "address"
        },
        {
          "indexed": false,
          "internalType": "uint256",
          "name": "price",
          "type": "uint256"
        }
      ],
      "name": "Sell",
      "type": "event"
    },
    {
      "anonymous": false,
      "inputs": [
        {
          "indexed": false,
          "internalType": "address",
          "name": "seller",
          "type": "address"
        },
        {
          "indexed": false,
          "internalType": "uint256",
          "name": "price",
          "type": "uint256"
        }
      ],
      "name": "SellINFL",
      "type": "event"
    },
    {
      "anonymous": false,
      "inputs": [
        {
          "indexed": true,
          "internalType": "address",
          "name": "from",
          "type": "address"
        },
        {
          "indexed": true,
          "internalType": "address",
          "name": "to",
          "type": "address"
        },
        {
          "indexed": false,
          "internalType": "uint256",
          "name": "value",
          "type": "uint256"
        }
      ],
      "name": "Transfer",
      "type": "event"
    },
    {
      "inputs": [],
      "name": "admin",
      "outputs": [
        {
          "internalType": "address",
          "name": "",
          "type": "address"
        }
      ],
      "stateMutability": "view",
      "type": "function"
    },
    {
      "inputs": [
        {
          "internalType": "address",
          "name": "owner",
          "type": "address"
        },
        {
          "internalType": "address",
          "name": "spender",
          "type": "address"
        }
      ],
      "name": "allowance",
      "outputs": [
        {
          "internalType": "uint256",
          "name": "",
          "type": "uint256"
        }
      ],
      "stateMutability": "view",
      "type": "function"
    },
    {
      "inputs": [
        {
          "internalType": "address",
          "name": "spender",
          "type": "address"
        },
        {
          "internalType": "uint256",
          "name": "amount",
          "type": "uint256"
        }
      ],
      "name": "approve",
      "outputs": [
        {
          "internalType": "bool",
          "name": "",
          "type": "bool"
        }
      ],
      "stateMutability": "nonpayable",
      "type": "function"
    },
    {
      "inputs": [
        {
          "internalType": "address",
          "name": "account",
          "type": "address"
        }
      ],
      "name": "balanceOf",
      "outputs": [
        {
          "internalType": "uint256",
          "name": "",
          "type": "uint256"
        }
      ],
      "stateMutability": "view",
      "type": "function"
    },
    {
      "inputs": [
        {
          "internalType": "address",
          "name": "account",
          "type": "address"
        },
        {
          "internalType": "uint256",
          "name": "amount",
          "type": "uint256"
        }
      ],
      "name": "burn",
      "outputs": [
        {
          "internalType": "bool",
          "name": "success",
          "type": "bool"
        }
      ],
      "stateMutability": "nonpayable",
      "type": "function"
    },
    {
      "inputs": [
        {
          "internalType": "uint256",
          "name": "_amountToPurchase",
          "type": "uint256"
        }
      ],
      "name": "buy",
      "outputs": [],
      "stateMutability": "payable",
      "type": "function"
    },
    {
      "inputs": [
        {
          "internalType": "int256",
          "name": "_usdAmount",
          "type": "int256"
        }
      ],
      "name": "computeInitialPriceInEth",
      "outputs": [
        {
          "internalType": "int256",
          "name": "priceInWei",
          "type": "int256"
        }
      ],
      "stateMutability": "view",
      "type": "function"
    },
    {
      "inputs": [],
      "name": "currentLimit",
      "outputs": [
        {
          "internalType": "int256",
          "name": "",
          "type": "int256"
        }
      ],
      "stateMutability": "view",
      "type": "function"
    },
    {
      "inputs": [],
      "name": "decimals",
      "outputs": [
        {
          "internalType": "uint8",
          "name": "",
          "type": "uint8"
        }
      ],
      "stateMutability": "view",
      "type": "function"
    },
    {
      "inputs": [
        {
          "internalType": "address",
          "name": "spender",
          "type": "address"
        },
        {
          "internalType": "uint256",
          "name": "subtractedValue",
          "type": "uint256"
        }
      ],
      "name": "decreaseAllowance",
      "outputs": [
        {
          "internalType": "bool",
          "name": "",
          "type": "bool"
        }
      ],
      "stateMutability": "nonpayable",
      "type": "function"
    },
    {
      "inputs": [],
      "name": "getLatestPrice",
      "outputs": [
        {
          "internalType": "int256",
          "name": "",
          "type": "int256"
        }
      ],
      "stateMutability": "view",
      "type": "function"
    },
    {
      "inputs": [
        {
          "internalType": "address",
          "name": "spender",
          "type": "address"
        },
        {
          "internalType": "uint256",
          "name": "addedValue",
          "type": "uint256"
        }
      ],
      "name": "increaseAllowance",
      "outputs": [
        {
          "internalType": "bool",
          "name": "",
          "type": "bool"
        }
      ],
      "stateMutability": "nonpayable",
      "type": "function"
    },
    {
      "inputs": [],
      "name": "maxPrice",
      "outputs": [
        {
          "internalType": "int256",
          "name": "",
          "type": "int256"
        }
      ],
      "stateMutability": "view",
      "type": "function"
    },
    {
      "inputs": [],
      "name": "midpoint",
      "outputs": [
        {
          "internalType": "int256",
          "name": "",
          "type": "int256"
        }
      ],
      "stateMutability": "view",
      "type": "function"
    },
    {
      "inputs": [
        {
          "internalType": "address",
          "name": "account",
          "type": "address"
        },
        {
          "internalType": "uint256",
          "name": "amount",
          "type": "uint256"
        }
      ],
      "name": "mint",
      "outputs": [
        {
          "internalType": "bool",
          "name": "sucess",
          "type": "bool"
        }
      ],
      "stateMutability": "nonpayable",
      "type": "function"
    },
    {
      "inputs": [],
      "name": "name",
      "outputs": [
        {
          "internalType": "string",
          "name": "",
          "type": "string"
        }
      ],
      "stateMutability": "view",
      "type": "function"
    },
    {
      "inputs": [],
      "name": "owner",
      "outputs": [
        {
          "internalType": "address",
          "name": "",
          "type": "address"
        }
      ],
      "stateMutability": "view",
      "type": "function"
    },
    {
      "inputs": [
        {
          "internalType": "uint256",
          "name": "x",
          "type": "uint256"
        }
      ],
      "name": "price",
      "outputs": [
        {
          "internalType": "uint256",
          "name": "",
          "type": "uint256"
        }
      ],
      "stateMutability": "view",
      "type": "function"
    },
    {
      "inputs": [],
      "name": "renounceOwnership",
      "outputs": [],
      "stateMutability": "nonpayable",
      "type": "function"
    },
    {
      "inputs": [
        {
          "internalType": "uint256",
          "name": "_amountToSell",
          "type": "uint256"
        }
      ],
      "name": "sell",
      "outputs": [],
      "stateMutability": "nonpayable",
      "type": "function"
    },
    {
      "inputs": [],
      "name": "steepness",
      "outputs": [
        {
          "internalType": "int256",
          "name": "",
          "type": "int256"
        }
      ],
      "stateMutability": "view",
      "type": "function"
    },
    {
      "inputs": [],
      "name": "symbol",
      "outputs": [
        {
          "internalType": "string",
          "name": "",
          "type": "string"
        }
      ],
      "stateMutability": "view",
      "type": "function"
    },
    {
      "inputs": [],
      "name": "totalSupply",
      "outputs": [
        {
          "internalType": "uint256",
          "name": "",
          "type": "uint256"
        }
      ],
      "stateMutability": "view",
      "type": "function"
    },
    {
      "inputs": [
        {
          "internalType": "address",
          "name": "recipient",
          "type": "address"
        },
        {
          "internalType": "uint256",
          "name": "amount",
          "type": "uint256"
        }
      ],
      "name": "transfer",
      "outputs": [
        {
          "internalType": "bool",
          "name": "",
          "type": "bool"
        }
      ],
      "stateMutability": "nonpayable",
      "type": "function"
    },
    {
      "inputs": [
        {
          "internalType": "address",
          "name": "sender",
          "type": "address"
        },
        {
          "internalType": "address",
          "name": "recipient",
          "type": "address"
        },
        {
          "internalType": "uint256",
          "name": "amount",
          "type": "uint256"
        }
      ],
      "name": "transferFrom",
      "outputs": [
        {
          "internalType": "bool",
          "name": "",
          "type": "bool"
        }
      ],
      "stateMutability": "nonpayable",
      "type": "function"
    },
    {
      "inputs": [
        {
          "internalType": "address",
          "name": "newOwner",
          "type": "address"
        }
      ],
      "name": "transferOwnership",
      "outputs": [],
      "stateMutability": "nonpayable",
      "type": "function"
    },
    {
      "inputs": [
        {
          "internalType": "uint256",
          "name": "amount",
          "type": "uint256"
        }
      ],
      "name": "withdraw",
      "outputs": [
        {
          "internalType": "bool",
          "name": "success",
          "type": "bool"
        }
      ],
      "stateMutability": "nonpayable",
      "type": "function"
    }
  ],
  "bytecode": "0x60806040526305f5e1006008553480156200001957600080fd5b506040516200255f3803806200255f8339810160408190526200003c91620003e7565b6040805180820182526011815270496e666c75656e63657245636f6e6f6d7960781b6020808301918252835180850190945260048452631253919360e21b908401528151919291620000919160039162000341565b508051620000a790600490602084019062000341565b505050620000c4620000be6200015c60201b60201c565b62000160565b6001600655600780546001600160a01b0319167386d67c3d38d2bcee722e601025c25a575021c6ea1790556200012433620000fe620001b2565b6200010e9060ff16600a62000572565b6200011e90630bebc20062000667565b620001b7565b506009839055600b8290556200013c600284620004e7565b600a55600c555050600d80546001600160a01b03191633179055620006dc565b3390565b600580546001600160a01b038381166001600160a01b0319831681179093556040519116919082907f8be0079c531659141344cd1fd0a4f28419497f9722a3daafe3b4186f6b6457e090600090a35050565b601290565b6000620001c36200015c565b6001600160a01b0316620001d662000254565b6001600160a01b031614620002085760405162461bcd60e51b8152600401620001ff9062000415565b60405180910390fd5b6001600160a01b038316158015906200022057508115155b6200023f5760405162461bcd60e51b8152600401620001ff906200044a565b6200024b838362000263565b50600192915050565b6005546001600160a01b031690565b6001600160a01b0382166200028c5760405162461bcd60e51b8152600401620001ff906200048c565b6200029a600083836200033c565b8060026000828254620002ae9190620004cc565b90915550506001600160a01b03821660009081526020819052604081208054839290620002dd908490620004cc565b90915550506040516001600160a01b038316906000907fddf252ad1be2c89b69c2b068fc378daa952ba7f163c4a11628f55a4df523b3ef9062000322908590620004c3565b60405180910390a362000338600083836200033c565b5050565b505050565b8280546200034f9062000689565b90600052602060002090601f016020900481019282620003735760008555620003be565b82601f106200038e57805160ff1916838001178555620003be565b82800160010185558215620003be579182015b82811115620003be578251825591602001919060010190620003a1565b50620003cc929150620003d0565b5090565b5b80821115620003cc5760008155600101620003d1565b600080600060608486031215620003fc578283fd5b8351925060208401519150604084015190509250925092565b6020808252818101527f4f776e61626c653a2063616c6c6572206973206e6f7420746865206f776e6572604082015260600190565b60208082526022908201527f45524332303a2066756e6374696f6e206d696e7420696e76616c696420696e706040820152611d5d60f21b606082015260800190565b6020808252601f908201527f45524332303a206d696e7420746f20746865207a65726f206164647265737300604082015260600190565b90815260200190565b60008219821115620004e257620004e2620006c6565b500190565b6000826200050357634e487b7160e01b81526012600452602481fd5b600160ff1b821460001984141615620005205762000520620006c6565b500590565b80825b600180861162000539575062000569565b8187048211156200054e576200054e620006c6565b808616156200055c57918102915b9490941c93800262000528565b94509492505050565b60006200058360001984846200058a565b9392505050565b6000826200059b5750600162000583565b81620005aa5750600062000583565b8160018114620005c35760028114620005ce5762000602565b600191505062000583565b60ff841115620005e257620005e2620006c6565b6001841b915084821115620005fb57620005fb620006c6565b5062000583565b5060208310610133831016604e8410600b84101617156200063a575081810a83811115620006345762000634620006c6565b62000583565b62000649848484600162000525565b8086048211156200065e576200065e620006c6565b02949350505050565b6000816000190483118215151615620006845762000684620006c6565b500290565b6002810460018216806200069e57607f821691505b60208210811415620006c057634e487b7160e01b600052602260045260246000fd5b50919050565b634e487b7160e01b600052601160045260246000fd5b611e7380620006ec6000396000f3fe60806040526004361061019c5760003560e01c80638da5cb5b116100ec578063d96a094a1161008a578063e4849b3211610064578063e4849b3214610452578063eabd0ce114610472578063f2fde38b14610487578063f851a440146104a75761019c565b8063d96a094a1461040a578063dd62ed3e1461041d578063e38d6b5c1461043d5761019c565b80639dc29fac116100c65780639dc29fac14610395578063a457c2d7146103b5578063a9059cbb146103d5578063ceacdca8146103f55761019c565b80638da5cb5b146103495780638e15f4731461036b57806395d89b41146103805761019c565b8063313ce5671161015957806370a082311161013357806370a08231146102dd578063715018a6146102fd57806376b59a451461031457806387563ec1146103345761019c565b8063313ce5671461027b578063395093511461029d57806340c10f19146102bd5761019c565b806306fdde03146101a1578063095ea7b3146101cc57806318160ddd146101f957806323b872dd1461021b57806326a49e371461023b5780632e1a7d4d1461025b575b600080fd5b3480156101ad57600080fd5b506101b66104bc565b6040516101c391906115e7565b60405180910390f35b3480156101d857600080fd5b506101ec6101e73660046114ed565b61054e565b6040516101c391906115c5565b34801561020557600080fd5b5061020e61056b565b6040516101c391906115d0565b34801561022757600080fd5b506101ec6102363660046114b2565b610571565b34801561024757600080fd5b5061020e610256366004611516565b61060a565b34801561026757600080fd5b506101ec610276366004611516565b610943565b34801561028757600080fd5b506102906109e4565b6040516101c39190611b03565b3480156102a957600080fd5b506101ec6102b83660046114ed565b6109e9565b3480156102c957600080fd5b506101ec6102d83660046114ed565b610a3d565b3480156102e957600080fd5b5061020e6102f836600461145f565b610abb565b34801561030957600080fd5b50610312610ad6565b005b34801561032057600080fd5b5061020e61032f366004611516565b610b21565b34801561034057600080fd5b5061020e610b66565b34801561035557600080fd5b5061035e610b6c565b6040516101c39190611598565b34801561037757600080fd5b5061020e610b7b565b34801561038c57600080fd5b506101b6610c19565b3480156103a157600080fd5b506101ec6103b03660046114ed565b610c28565b3480156103c157600080fd5b506101ec6103d03660046114ed565b610ca6565b3480156103e157600080fd5b506101ec6103f03660046114ed565b610d1f565b34801561040157600080fd5b5061020e610d33565b610312610418366004611516565b610d39565b34801561042957600080fd5b5061020e610438366004611480565b610eab565b34801561044957600080fd5b5061020e610ed6565b34801561045e57600080fd5b5061031261046d366004611516565b610edc565b34801561047e57600080fd5b5061020e610fb6565b34801561049357600080fd5b506103126104a236600461145f565b610fbc565b3480156104b357600080fd5b5061035e61102d565b6060600380546104cb90611dd6565b80601f01602080910402602001604051908101604052809291908181526020018280546104f790611dd6565b80156105445780601f1061051957610100808354040283529160200191610544565b820191906000526020600020905b81548152906001019060200180831161052757829003601f168201915b5050505050905090565b600061056261055b61103c565b8484611040565b50600192915050565b60025490565b600061057e8484846110f4565b6001600160a01b03841660009081526001602052604081208161059f61103c565b6001600160a01b03166001600160a01b03168152602001908152602001600020549050828110156105eb5760405162461bcd60e51b81526004016105e2906117ff565b60405180910390fd5b6105ff856105f761103c565b858403611040565b506001949350505050565b600080600a548361061b9190611d80565b9050600061062a600283611cc2565b600c546106379190611b11565b604051639f17f3ff60e01b815290915060009073__$78827766868fbfa7b31de48993c6ed9f34$__90639f17f3ff906106749085906004016115d0565b60206040518083038186803b15801561068c57600080fd5b505af41580156106a0573d6000803e3d6000fd5b505050506040513d601f19601f820116820180604052508101906106c4919061152e565b604051630332efa360e51b815290915060009073__$78827766868fbfa7b31de48993c6ed9f34$__9063665df460906107019085906004016115d0565b60206040518083038186803b15801561071957600080fd5b505af415801561072d573d6000803e3d6000fd5b505050506040513d601f19601f82011682018060405250810190610751919061152e565b604051639f17f3ff60e01b815290915060009073__$78827766868fbfa7b31de48993c6ed9f34$__90639f17f3ff9061078e9088906004016115d0565b60206040518083038186803b1580156107a657600080fd5b505af41580156107ba573d6000803e3d6000fd5b505050506040513d601f19601f820116820180604052508101906107de919061152e565b604051637acc211b60e11b815290915060009073__$78827766868fbfa7b31de48993c6ed9f34$__9063f59842369061081d90859087906004016115d9565b60206040518083038186803b15801561083557600080fd5b505af4158015610849573d6000803e3d6000fd5b505050506040513d601f19601f8201168201806040525081019061086d919061152e565b6108819069d3c21bcecceda1000000611b11565b600b54604051639f17f3ff60e01b8152919250600091839173__$78827766868fbfa7b31de48993c6ed9f34$__91639f17f3ff916108c1916004016115d0565b60206040518083038186803b1580156108d957600080fd5b505af41580156108ed573d6000803e3d6000fd5b505050506040513d601f19601f82011682018060405250810190610911919061152e565b61091b9190611cde565b90506109346c0c9f2c9cd04674edea4000000082611b6a565b9750505050505050505b919050565b600061094d61103c565b6001600160a01b031661095e610b6c565b6001600160a01b0316146109845760405162461bcd60e51b81526004016105e290611847565b478211156109a45760405162461bcd60e51b81526004016105e2906116bf565b6109ac61103c565b6001600160a01b03166108fc839081150290604051600060405180830381858888f19350505050158015610562573d6000803e3d6000fd5b601290565b60006105626109f661103c565b848460016000610a0461103c565b6001600160a01b03908116825260208083019390935260409182016000908120918b1681529252902054610a389190611b52565b611040565b6000610a4761103c565b6001600160a01b0316610a58610b6c565b6001600160a01b031614610a7e5760405162461bcd60e51b81526004016105e290611847565b6001600160a01b03831615801590610a9557508115155b610ab15760405162461bcd60e51b81526004016105e29061187c565b610562838361121e565b6001600160a01b031660009081526020819052604090205490565b610ade61103c565b6001600160a01b0316610aef610b6c565b6001600160a01b031614610b155760405162461bcd60e51b81526004016105e290611847565b610b1f60006112ea565b565b60006064600854610b30610b7b565b610b3a9190611b6a565b610b4c84670de0b6b3a7640000611cde565b610b569190611b6a565b610b609190611b6a565b92915050565b600c5481565b6005546001600160a01b031690565b600080600080600080600760009054906101000a90046001600160a01b03166001600160a01b031663feaf968c6040518163ffffffff1660e01b815260040160a06040518083038186803b158015610bd257600080fd5b505afa158015610be6573d6000803e3d6000fd5b505050506040513d601f19601f82011682018060405250810190610c0a9190611546565b50919850505050505050505090565b6060600480546104cb90611dd6565b6000610c3261103c565b6001600160a01b0316610c43610b6c565b6001600160a01b031614610c695760405162461bcd60e51b81526004016105e290611847565b6001600160a01b03831615801590610c8057508115155b610c9c5760405162461bcd60e51b81526004016105e29061197b565b610562838361133c565b60008060016000610cb561103c565b6001600160a01b0390811682526020808301939093526040918201600090812091881681529252902054905082811015610d015760405162461bcd60e51b81526004016105e290611a87565b610d15610d0c61103c565b85858403611040565b5060019392505050565b6000610562610d2c61103c565b84846110f4565b600a5481565b6000610d4361056b565b90506000610d55610256836001611b52565b90506009548210610d785760405162461bcd60e51b81526004016105e2906118be565b6000610d848285611d61565b905060006103e8610d968660fa611d61565b610da09190611b98565b90506000610dae8287611dbf565b905033318310610dd05760405162461bcd60e51b81526004016105e2906119bd565b6000306001600160a01b031684604051610de990611595565b60006040518083038185875af1925050503d8060008114610e26576040519150601f19603f3d011682016040523d82523d6000602084013e610e2b565b606091505b5050905080610e4c5760405162461bcd60e51b81526004016105e2906117d1565b610e563084610c28565b50610e69610e62610b6c565b33846110f4565b7f3b0235c33cdccf9515aed60ee1d3b81366ddfb118b3892d78f405d177f17a62a3386604051610e9a9291906115ac565b60405180910390a150505050505050565b6001600160a01b03918216600090815260016020908152604080832093909416825291909152205490565b600b5481565b6000610ee961025661056b565b90506000610ef78284611d61565b90506000610f0433610abb565b905080841115610f265760405162461bcd60e51b81526004016105e290611a50565b6000610f33600a86611b98565b90506000610f42600a87611b98565b9050600081610f518489611dbf565b610f5b9190611dbf565b9050610f6f33610f69610b6c565b836110f4565b610f793084610c28565b50610f843083610c28565b507fad8e8e04fa975586e5e008814828c75a97c6b0948ca687f5cee1cb44269e295e3388604051610e9a9291906115ac565b60095481565b610fc461103c565b6001600160a01b0316610fd5610b6c565b6001600160a01b031614610ffb5760405162461bcd60e51b81526004016105e290611847565b6001600160a01b0381166110215760405162461bcd60e51b81526004016105e290611703565b61102a816112ea565b50565b600d546001600160a01b031681565b3390565b6001600160a01b0383166110665760405162461bcd60e51b81526004016105e290611a0c565b6001600160a01b03821661108c5760405162461bcd60e51b81526004016105e290611749565b6001600160a01b0380841660008181526001602090815260408083209487168084529490915290819020849055517f8c5be1e5ebec7d5bd14f71427d1e84f3dd0314c0f7b2291e5b200ac8c7c3b925906110e79085906115d0565b60405180910390a3505050565b6001600160a01b03831661111a5760405162461bcd60e51b81526004016105e290611936565b6001600160a01b0382166111405760405162461bcd60e51b81526004016105e29061163a565b61114b838383611429565b6001600160a01b038316600090815260208190526040902054818110156111845760405162461bcd60e51b81526004016105e29061178b565b6001600160a01b038085166000908152602081905260408082208585039055918516815290812080548492906111bb908490611b52565b92505081905550826001600160a01b0316846001600160a01b03167fddf252ad1be2c89b69c2b068fc378daa952ba7f163c4a11628f55a4df523b3ef8460405161120591906115d0565b60405180910390a3611218848484611429565b50505050565b6001600160a01b0382166112445760405162461bcd60e51b81526004016105e290611acc565b61125060008383611429565b80600260008282546112629190611b52565b90915550506001600160a01b0382166000908152602081905260408120805483929061128f908490611b52565b90915550506040516001600160a01b038316906000907fddf252ad1be2c89b69c2b068fc378daa952ba7f163c4a11628f55a4df523b3ef906112d29085906115d0565b60405180910390a36112e660008383611429565b5050565b600580546001600160a01b038381166001600160a01b0319831681179093556040519116919082907f8be0079c531659141344cd1fd0a4f28419497f9722a3daafe3b4186f6b6457e090600090a35050565b6001600160a01b0382166113625760405162461bcd60e51b81526004016105e2906118f5565b61136e82600083611429565b6001600160a01b038216600090815260208190526040902054818110156113a75760405162461bcd60e51b81526004016105e29061167d565b6001600160a01b03831660009081526020819052604081208383039055600280548492906113d6908490611dbf565b90915550506040516000906001600160a01b038516907fddf252ad1be2c89b69c2b068fc378daa952ba7f163c4a11628f55a4df523b3ef906114199086906115d0565b60405180910390a3611429836000845b505050565b80356001600160a01b038116811461093e57600080fd5b805169ffffffffffffffffffff8116811461093e57600080fd5b600060208284031215611470578081fd5b6114798261142e565b9392505050565b60008060408385031215611492578081fd5b61149b8361142e565b91506114a96020840161142e565b90509250929050565b6000806000606084860312156114c6578081fd5b6114cf8461142e565b92506114dd6020850161142e565b9150604084013590509250925092565b600080604083850312156114ff578182fd5b6115088361142e565b946020939093013593505050565b600060208284031215611527578081fd5b5035919050565b60006020828403121561153f578081fd5b5051919050565b600080600080600060a0868803121561155d578081fd5b61156686611445565b945060208601519350604086015192506060860151915061158960808701611445565b90509295509295909350565b90565b6001600160a01b0391909116815260200190565b6001600160a01b03929092168252602082015260400190565b901515815260200190565b90815260200190565b918252602082015260400190565b6000602080835283518082850152825b81811015611613578581018301518582016040015282016115f7565b818111156116245783604083870101525b50601f01601f1916929092016040019392505050565b60208082526023908201527f45524332303a207472616e7366657220746f20746865207a65726f206164647260408201526265737360e81b606082015260800190565b60208082526022908201527f45524332303a206275726e20616d6f756e7420657863656564732062616c616e604082015261636560f01b606082015260800190565b60208082526024908201527f49434f3a2066756e6374696f6e20776974686472617720696e76616c696420696040820152631b9c1d5d60e21b606082015260800190565b60208082526026908201527f4f776e61626c653a206e6577206f776e657220697320746865207a65726f206160408201526564647265737360d01b606082015260800190565b60208082526022908201527f45524332303a20617070726f766520746f20746865207a65726f206164647265604082015261737360f01b606082015260800190565b60208082526026908201527f45524332303a207472616e7366657220616d6f756e7420657863656564732062604082015265616c616e636560d01b606082015260800190565b6020808252601490820152732330b4b632b2103a379039b2b7321022ba3432b960611b604082015260600190565b60208082526028908201527f45524332303a207472616e7366657220616d6f756e74206578636565647320616040820152676c6c6f77616e636560c01b606082015260800190565b6020808252818101527f4f776e61626c653a2063616c6c6572206973206e6f7420746865206f776e6572604082015260600190565b60208082526022908201527f45524332303a2066756e6374696f6e206d696e7420696e76616c696420696e706040820152611d5d60f21b606082015260800190565b60208082526018908201527f4255593a204d617820537570706c792052656163686564210000000000000000604082015260600190565b60208082526021908201527f45524332303a206275726e2066726f6d20746865207a65726f206164647265736040820152607360f81b606082015260800190565b60208082526025908201527f45524332303a207472616e736665722066726f6d20746865207a65726f206164604082015264647265737360d81b606082015260800190565b60208082526022908201527f45524332303a2066756e6374696f6e206275726e20696e76616c696420696e706040820152611d5d60f21b606082015260800190565b6020808252602f908201527f6e6f742073756666696369656e74204574682062616c616e636520666f72206160408201526e1b5bdd5b9d081c995c5d595cdd1959608a1b606082015260800190565b60208082526024908201527f45524332303a20617070726f76652066726f6d20746865207a65726f206164646040820152637265737360e01b606082015260800190565b6020808252601d908201527f446f6e2774206861766520656e6f75676820494e464c20746f6b656e73000000604082015260600190565b60208082526025908201527f45524332303a2064656372656173656420616c6c6f77616e63652062656c6f77604082015264207a65726f60d81b606082015260800190565b6020808252601f908201527f45524332303a206d696e7420746f20746865207a65726f206164647265737300604082015260600190565b60ff91909116815260200190565b600080821280156001600160ff1b0384900385131615611b3357611b33611e11565b600160ff1b8390038412811615611b4c57611b4c611e11565b50500190565b60008219821115611b6557611b65611e11565b500190565b600082611b7957611b79611e27565b600160ff1b821460001984141615611b9357611b93611e11565b500590565b600082611ba757611ba7611e27565b500490565b80825b6001808611611bbe5750611be9565b818704821115611bd057611bd0611e11565b80861615611bdd57918102915b9490941c938002611baf565b94509492505050565b6000828015611c085760018114611c1257611c1b565b6001915050611cba565b82915050611cba565b5081611c2957506000611cba565b50600160008213808214611c42578015611c5957611c6b565b828604831115611c5457611c54611e11565b611c6b565b828605831215611c6b57611c6b611e11565b5080831615611c775750805b611c88858460011c84850284611bac565b8087048211600083131615611c9f57611c9f611e11565b8086058212600083121615611cb657611cb6611e11565b0290505b949350505050565b60006114796001600160ff1b03600160ff1b60ff861685611bf2565b60006001600160ff1b0381841382841380821686840486111615611d0457611d04611e11565b600160ff1b84871282811687830589121615611d2257611d22611e11565b858712925087820587128484161615611d3d57611d3d611e11565b87850587128184161615611d5357611d53611e11565b505050929093029392505050565b6000816000190483118215151615611d7b57611d7b611e11565b500290565b60008083128015600160ff1b850184121615611d9e57611d9e611e11565b6001600160ff1b0384018313811615611db957611db9611e11565b50500390565b600082821015611dd157611dd1611e11565b500390565b600281046001821680611dea57607f821691505b60208210811415611e0b57634e487b7160e01b600052602260045260246000fd5b50919050565b634e487b7160e01b600052601160045260246000fd5b634e487b7160e01b600052601260045260246000fdfea2646970667358221220f771209fdc7ca2122a74e0091fda1be85161876ddebe15467db2fa7e05f4a93d64736f6c63430008000033",
  "linkReferences": {
    "contracts/FixedMath.sol": {
      "FixedMath": [
        {
          "length": 20,
          "start": 3384
        },
        {
          "length": 20,
          "start": 3525
        },
        {
          "length": 20,
          "start": 3666
        },
        {
          "length": 20,
          "start": 3807
        },
        {
          "length": 20,
          "start": 3975
        }
      ]
    }
  },
  "deployedLinkReferences": {
    "contracts/FixedMath.sol": {
      "FixedMath": [
        {
          "length": 20,
          "start": 1612
        },
        {
          "length": 20,
          "start": 1753
        },
        {
          "length": 20,
          "start": 1894
        },
        {
          "length": 20,
          "start": 2035
        },
        {
          "length": 20,
          "start": 2203
        }
      ]
    }
  }
}