{
  "_format": "hh-sol-artifact-1",
  "contractName": "Treasury",
  "sourceName": "contracts/Treasury.sol",
  "abi": [
    {
      "inputs": [
        {
          "internalType": "int256",
          "name": "_currentLimit",
          "type": "int256"
        },
        {
          "internalType": "int256",
          "name": "_maxPrice",
          "type": "int256"
        },
        {
          "internalType": "int256",
          "name": "_steepness",
          "type": "int256"
        }
      ],
      "stateMutability": "nonpayable",
      "type": "constructor"
    },
    {
      "anonymous": false,
      "inputs": [
        {
          "indexed": true,
          "internalType": "address",
          "name": "owner",
          "type": "address"
        },
        {
          "indexed": true,
          "internalType": "address",
          "name": "spender",
          "type": "address"
        },
        {
          "indexed": false,
          "internalType": "uint256",
          "name": "value",
          "type": "uint256"
        }
      ],
      "name": "Approval",
      "type": "event"
    },
    {
      "anonymous": false,
      "inputs": [
        {
          "indexed": false,
          "internalType": "address",
          "name": "buyer",
          "type": "address"
        },
        {
          "indexed": false,
          "internalType": "uint256",
          "name": "price",
          "type": "uint256"
        }
      ],
      "name": "Buy",
      "type": "event"
    },
    {
      "anonymous": false,
      "inputs": [
        {
          "indexed": false,
          "internalType": "address",
          "name": "buyer",
          "type": "address"
        },
        {
          "indexed": false,
          "internalType": "uint256",
          "name": "price",
          "type": "uint256"
        }
      ],
      "name": "BuyINFL",
      "type": "event"
    },
    {
      "anonymous": false,
      "inputs": [
        {
          "indexed": false,
          "internalType": "address",
          "name": "newAdmin",
          "type": "address"
        }
      ],
      "name": "ChangeAdmin",
      "type": "event"
    },
    {
      "anonymous": false,
      "inputs": [
        {
          "indexed": true,
          "internalType": "address",
          "name": "previousOwner",
          "type": "address"
        },
        {
          "indexed": true,
          "internalType": "address",
          "name": "newOwner",
          "type": "address"
        }
      ],
      "name": "OwnershipTransferred",
      "type": "event"
    },
    {
      "anonymous": false,
      "inputs": [
        {
          "indexed": false,
          "internalType": "address",
          "name": "seller",
          "type": "address"
        },
        {
          "indexed": false,
          "internalType": "uint256",
          "name": "price",
          "type": "uint256"
        }
      ],
      "name": "Sell",
      "type": "event"
    },
    {
      "anonymous": false,
      "inputs": [
        {
          "indexed": false,
          "internalType": "address",
          "name": "seller",
          "type": "address"
        },
        {
          "indexed": false,
          "internalType": "uint256",
          "name": "price",
          "type": "uint256"
        }
      ],
      "name": "SellINFL",
      "type": "event"
    },
    {
      "anonymous": false,
      "inputs": [
        {
          "indexed": true,
          "internalType": "address",
          "name": "from",
          "type": "address"
        },
        {
          "indexed": true,
          "internalType": "address",
          "name": "to",
          "type": "address"
        },
        {
          "indexed": false,
          "internalType": "uint256",
          "name": "value",
          "type": "uint256"
        }
      ],
      "name": "Transfer",
      "type": "event"
    },
    {
      "inputs": [],
      "name": "admin",
      "outputs": [
        {
          "internalType": "address",
          "name": "",
          "type": "address"
        }
      ],
      "stateMutability": "view",
      "type": "function"
    },
    {
      "inputs": [
        {
          "internalType": "address",
          "name": "owner",
          "type": "address"
        },
        {
          "internalType": "address",
          "name": "spender",
          "type": "address"
        }
      ],
      "name": "allowance",
      "outputs": [
        {
          "internalType": "uint256",
          "name": "",
          "type": "uint256"
        }
      ],
      "stateMutability": "view",
      "type": "function"
    },
    {
      "inputs": [
        {
          "internalType": "address",
          "name": "spender",
          "type": "address"
        },
        {
          "internalType": "uint256",
          "name": "amount",
          "type": "uint256"
        }
      ],
      "name": "approve",
      "outputs": [
        {
          "internalType": "bool",
          "name": "",
          "type": "bool"
        }
      ],
      "stateMutability": "nonpayable",
      "type": "function"
    },
    {
      "inputs": [
        {
          "internalType": "address",
          "name": "account",
          "type": "address"
        }
      ],
      "name": "balanceOf",
      "outputs": [
        {
          "internalType": "uint256",
          "name": "",
          "type": "uint256"
        }
      ],
      "stateMutability": "view",
      "type": "function"
    },
    {
      "inputs": [
        {
          "internalType": "address",
          "name": "account",
          "type": "address"
        },
        {
          "internalType": "uint256",
          "name": "amount",
          "type": "uint256"
        }
      ],
      "name": "burn",
      "outputs": [
        {
          "internalType": "bool",
          "name": "success",
          "type": "bool"
        }
      ],
      "stateMutability": "nonpayable",
      "type": "function"
    },
    {
      "inputs": [
        {
          "internalType": "uint256",
          "name": "_amountToPurchase",
          "type": "uint256"
        }
      ],
      "name": "buy",
      "outputs": [],
      "stateMutability": "payable",
      "type": "function"
    },
    {
      "inputs": [
        {
          "internalType": "int256",
          "name": "_usdAmount",
          "type": "int256"
        }
      ],
      "name": "computeInitialPriceInAvax",
      "outputs": [
        {
          "internalType": "int256",
          "name": "priceInNAvax",
          "type": "int256"
        }
      ],
      "stateMutability": "view",
      "type": "function"
    },
    {
      "inputs": [],
      "name": "currentLimit",
      "outputs": [
        {
          "internalType": "int256",
          "name": "",
          "type": "int256"
        }
      ],
      "stateMutability": "view",
      "type": "function"
    },
    {
      "inputs": [],
      "name": "decimals",
      "outputs": [
        {
          "internalType": "uint8",
          "name": "",
          "type": "uint8"
        }
      ],
      "stateMutability": "view",
      "type": "function"
    },
    {
      "inputs": [
        {
          "internalType": "address",
          "name": "spender",
          "type": "address"
        },
        {
          "internalType": "uint256",
          "name": "subtractedValue",
          "type": "uint256"
        }
      ],
      "name": "decreaseAllowance",
      "outputs": [
        {
          "internalType": "bool",
          "name": "",
          "type": "bool"
        }
      ],
      "stateMutability": "nonpayable",
      "type": "function"
    },
    {
      "inputs": [],
      "name": "getLatestPrice",
      "outputs": [
        {
          "internalType": "int256",
          "name": "",
          "type": "int256"
        }
      ],
      "stateMutability": "view",
      "type": "function"
    },
    {
      "inputs": [
        {
          "internalType": "address",
          "name": "spender",
          "type": "address"
        },
        {
          "internalType": "uint256",
          "name": "addedValue",
          "type": "uint256"
        }
      ],
      "name": "increaseAllowance",
      "outputs": [
        {
          "internalType": "bool",
          "name": "",
          "type": "bool"
        }
      ],
      "stateMutability": "nonpayable",
      "type": "function"
    },
    {
      "inputs": [],
      "name": "maxPrice",
      "outputs": [
        {
          "internalType": "int256",
          "name": "",
          "type": "int256"
        }
      ],
      "stateMutability": "view",
      "type": "function"
    },
    {
      "inputs": [],
      "name": "midpoint",
      "outputs": [
        {
          "internalType": "int256",
          "name": "",
          "type": "int256"
        }
      ],
      "stateMutability": "view",
      "type": "function"
    },
    {
      "inputs": [
        {
          "internalType": "address",
          "name": "account",
          "type": "address"
        },
        {
          "internalType": "uint256",
          "name": "amount",
          "type": "uint256"
        }
      ],
      "name": "mint",
      "outputs": [
        {
          "internalType": "bool",
          "name": "sucess",
          "type": "bool"
        }
      ],
      "stateMutability": "nonpayable",
      "type": "function"
    },
    {
      "inputs": [],
      "name": "name",
      "outputs": [
        {
          "internalType": "string",
          "name": "",
          "type": "string"
        }
      ],
      "stateMutability": "view",
      "type": "function"
    },
    {
      "inputs": [],
      "name": "owner",
      "outputs": [
        {
          "internalType": "address",
          "name": "",
          "type": "address"
        }
      ],
      "stateMutability": "view",
      "type": "function"
    },
    {
      "inputs": [
        {
          "internalType": "uint256",
          "name": "x",
          "type": "uint256"
        }
      ],
      "name": "price",
      "outputs": [
        {
          "internalType": "uint256",
          "name": "",
          "type": "uint256"
        }
      ],
      "stateMutability": "view",
      "type": "function"
    },
    {
      "inputs": [],
      "name": "renounceOwnership",
      "outputs": [],
      "stateMutability": "nonpayable",
      "type": "function"
    },
    {
      "inputs": [
        {
          "internalType": "uint256",
          "name": "_amountToSell",
          "type": "uint256"
        }
      ],
      "name": "sell",
      "outputs": [],
      "stateMutability": "nonpayable",
      "type": "function"
    },
    {
      "inputs": [],
      "name": "steepness",
      "outputs": [
        {
          "internalType": "int256",
          "name": "",
          "type": "int256"
        }
      ],
      "stateMutability": "view",
      "type": "function"
    },
    {
      "inputs": [],
      "name": "symbol",
      "outputs": [
        {
          "internalType": "string",
          "name": "",
          "type": "string"
        }
      ],
      "stateMutability": "view",
      "type": "function"
    },
    {
      "inputs": [],
      "name": "totalSupply",
      "outputs": [
        {
          "internalType": "uint256",
          "name": "",
          "type": "uint256"
        }
      ],
      "stateMutability": "view",
      "type": "function"
    },
    {
      "inputs": [
        {
          "internalType": "address",
          "name": "recipient",
          "type": "address"
        },
        {
          "internalType": "uint256",
          "name": "amount",
          "type": "uint256"
        }
      ],
      "name": "transfer",
      "outputs": [
        {
          "internalType": "bool",
          "name": "",
          "type": "bool"
        }
      ],
      "stateMutability": "nonpayable",
      "type": "function"
    },
    {
      "inputs": [
        {
          "internalType": "address",
          "name": "sender",
          "type": "address"
        },
        {
          "internalType": "address",
          "name": "recipient",
          "type": "address"
        },
        {
          "internalType": "uint256",
          "name": "amount",
          "type": "uint256"
        }
      ],
      "name": "transferFrom",
      "outputs": [
        {
          "internalType": "bool",
          "name": "",
          "type": "bool"
        }
      ],
      "stateMutability": "nonpayable",
      "type": "function"
    },
    {
      "inputs": [
        {
          "internalType": "address",
          "name": "newOwner",
          "type": "address"
        }
      ],
      "name": "transferOwnership",
      "outputs": [],
      "stateMutability": "nonpayable",
      "type": "function"
    },
    {
      "inputs": [
        {
          "internalType": "uint256",
          "name": "amount",
          "type": "uint256"
        }
      ],
      "name": "withdraw",
      "outputs": [
        {
          "internalType": "bool",
          "name": "success",
          "type": "bool"
        }
      ],
      "stateMutability": "nonpayable",
      "type": "function"
    }
  ],
  "bytecode": "0x60806040526305f5e1006008553480156200001957600080fd5b506040516200255a3803806200255a8339810160408190526200003c91620003e7565b6040805180820182526011815270496e666c75656e63657245636f6e6f6d7960781b6020808301918252835180850190945260048452631253919360e21b908401528151919291620000919160039162000341565b508051620000a790600490602084019062000341565b505050620000c4620000be6200015c60201b60201c565b62000160565b6001600655600780546001600160a01b031916735498bb86bc934c8d34fda08e81d444153d0d06ad1790556200012433620000fe620001b2565b6200010e9060ff16600a62000572565b6200011e90630bebc20062000667565b620001b7565b506009839055600b8290556200013c600284620004e7565b600a55600c555050600d80546001600160a01b03191633179055620006dc565b3390565b600580546001600160a01b038381166001600160a01b0319831681179093556040519116919082907f8be0079c531659141344cd1fd0a4f28419497f9722a3daafe3b4186f6b6457e090600090a35050565b601290565b6000620001c36200015c565b6001600160a01b0316620001d662000254565b6001600160a01b031614620002085760405162461bcd60e51b8152600401620001ff9062000415565b60405180910390fd5b6001600160a01b038316158015906200022057508115155b6200023f5760405162461bcd60e51b8152600401620001ff906200044a565b6200024b838362000263565b50600192915050565b6005546001600160a01b031690565b6001600160a01b0382166200028c5760405162461bcd60e51b8152600401620001ff906200048c565b6200029a600083836200033c565b8060026000828254620002ae9190620004cc565b90915550506001600160a01b03821660009081526020819052604081208054839290620002dd908490620004cc565b90915550506040516001600160a01b038316906000907fddf252ad1be2c89b69c2b068fc378daa952ba7f163c4a11628f55a4df523b3ef9062000322908590620004c3565b60405180910390a362000338600083836200033c565b5050565b505050565b8280546200034f9062000689565b90600052602060002090601f016020900481019282620003735760008555620003be565b82601f106200038e57805160ff1916838001178555620003be565b82800160010185558215620003be579182015b82811115620003be578251825591602001919060010190620003a1565b50620003cc929150620003d0565b5090565b5b80821115620003cc5760008155600101620003d1565b600080600060608486031215620003fc578283fd5b8351925060208401519150604084015190509250925092565b6020808252818101527f4f776e61626c653a2063616c6c6572206973206e6f7420746865206f776e6572604082015260600190565b60208082526022908201527f45524332303a2066756e6374696f6e206d696e7420696e76616c696420696e706040820152611d5d60f21b606082015260800190565b6020808252601f908201527f45524332303a206d696e7420746f20746865207a65726f206164647265737300604082015260600190565b90815260200190565b60008219821115620004e257620004e2620006c6565b500190565b6000826200050357634e487b7160e01b81526012600452602481fd5b600160ff1b821460001984141615620005205762000520620006c6565b500590565b80825b600180861162000539575062000569565b8187048211156200054e576200054e620006c6565b808616156200055c57918102915b9490941c93800262000528565b94509492505050565b60006200058360001984846200058a565b9392505050565b6000826200059b5750600162000583565b81620005aa5750600062000583565b8160018114620005c35760028114620005ce5762000602565b600191505062000583565b60ff841115620005e257620005e2620006c6565b6001841b915084821115620005fb57620005fb620006c6565b5062000583565b5060208310610133831016604e8410600b84101617156200063a575081810a83811115620006345762000634620006c6565b62000583565b62000649848484600162000525565b8086048211156200065e576200065e620006c6565b02949350505050565b6000816000190483118215151615620006845762000684620006c6565b500290565b6002810460018216806200069e57607f821691505b60208210811415620006c057634e487b7160e01b600052602260045260246000fd5b50919050565b634e487b7160e01b600052601160045260246000fd5b611e6e80620006ec6000396000f3fe60806040526004361061019b5760003560e01c80638da5cb5b116100ec578063d96a094a1161008a578063e4849b3211610064578063e4849b3214610451578063eabd0ce114610471578063f2fde38b14610486578063f851a440146104a65761019b565b8063d96a094a14610409578063dd62ed3e1461041c578063e38d6b5c1461043c5761019b565b80639dc29fac116100c65780639dc29fac14610394578063a457c2d7146103b4578063a9059cbb146103d4578063ceacdca8146103f45761019b565b80638da5cb5b146103485780638e15f4731461036a57806395d89b411461037f5761019b565b80632e1a7d4d1161015957806340c10f191161013357806340c10f19146102dc57806370a08231146102fc578063715018a61461031c57806387563ec1146103335761019b565b80632e1a7d4d1461027a578063313ce5671461029a57806339509351146102bc5761019b565b80626b1fd9146101a057806306fdde03146101d6578063095ea7b3146101f857806318160ddd1461022557806323b872dd1461023a57806326a49e371461025a575b600080fd5b3480156101ac57600080fd5b506101c06101bb366004611511565b6104bb565b6040516101cd91906115cb565b60405180910390f35b3480156101e257600080fd5b506101eb6104fe565b6040516101cd91906115e2565b34801561020457600080fd5b506102186102133660046114e8565b610590565b6040516101cd91906115c0565b34801561023157600080fd5b506101c06105ad565b34801561024657600080fd5b506102186102553660046114ad565b6105b3565b34801561026657600080fd5b506101c0610275366004611511565b61064c565b34801561028657600080fd5b50610218610295366004611511565b610983565b3480156102a657600080fd5b506102af610a24565b6040516101cd9190611afe565b3480156102c857600080fd5b506102186102d73660046114e8565b610a29565b3480156102e857600080fd5b506102186102f73660046114e8565b610a7d565b34801561030857600080fd5b506101c061031736600461145a565b610afb565b34801561032857600080fd5b50610331610b16565b005b34801561033f57600080fd5b506101c0610b61565b34801561035457600080fd5b5061035d610b67565b6040516101cd9190611593565b34801561037657600080fd5b506101c0610b76565b34801561038b57600080fd5b506101eb610c14565b3480156103a057600080fd5b506102186103af3660046114e8565b610c23565b3480156103c057600080fd5b506102186103cf3660046114e8565b610ca1565b3480156103e057600080fd5b506102186103ef3660046114e8565b610d1a565b34801561040057600080fd5b506101c0610d2e565b610331610417366004611511565b610d34565b34801561042857600080fd5b506101c061043736600461147b565b610ea6565b34801561044857600080fd5b506101c0610ed1565b34801561045d57600080fd5b5061033161046c366004611511565b610ed7565b34801561047d57600080fd5b506101c0610fb1565b34801561049257600080fd5b506103316104a136600461145a565b610fb7565b3480156104b257600080fd5b5061035d611028565b600060646008546104ca610b76565b6104d49190611b65565b6104e284633b9aca00611cd9565b6104ec9190611b65565b6104f69190611b65565b90505b919050565b60606003805461050d90611dd1565b80601f016020809104026020016040519081016040528092919081815260200182805461053990611dd1565b80156105865780601f1061055b57610100808354040283529160200191610586565b820191906000526020600020905b81548152906001019060200180831161056957829003601f168201915b5050505050905090565b60006105a461059d611037565b848461103b565b50600192915050565b60025490565b60006105c08484846110ef565b6001600160a01b0384166000908152600160205260408120816105e1611037565b6001600160a01b03166001600160a01b031681526020019081526020016000205490508281101561062d5760405162461bcd60e51b8152600401610624906117fa565b60405180910390fd5b61064185610639611037565b85840361103b565b506001949350505050565b600080600a548361065d9190611d7b565b9050600061066c600283611cbd565b600c546106799190611b0c565b604051639f17f3ff60e01b815290915060009073__$78827766868fbfa7b31de48993c6ed9f34$__90639f17f3ff906106b69085906004016115cb565b60206040518083038186803b1580156106ce57600080fd5b505af41580156106e2573d6000803e3d6000fd5b505050506040513d601f19601f820116820180604052508101906107069190611529565b604051630332efa360e51b815290915060009073__$78827766868fbfa7b31de48993c6ed9f34$__9063665df460906107439085906004016115cb565b60206040518083038186803b15801561075b57600080fd5b505af415801561076f573d6000803e3d6000fd5b505050506040513d601f19601f820116820180604052508101906107939190611529565b604051639f17f3ff60e01b815290915060009073__$78827766868fbfa7b31de48993c6ed9f34$__90639f17f3ff906107d09088906004016115cb565b60206040518083038186803b1580156107e857600080fd5b505af41580156107fc573d6000803e3d6000fd5b505050506040513d601f19601f820116820180604052508101906108209190611529565b604051637acc211b60e11b815290915060009073__$78827766868fbfa7b31de48993c6ed9f34$__9063f59842369061085f90859087906004016115d4565b60206040518083038186803b15801561087757600080fd5b505af415801561088b573d6000803e3d6000fd5b505050506040513d601f19601f820116820180604052508101906108af9190611529565b6108c39069d3c21bcecceda1000000611b0c565b600b54604051639f17f3ff60e01b8152919250600091839173__$78827766868fbfa7b31de48993c6ed9f34$__91639f17f3ff91610903916004016115cb565b60206040518083038186803b15801561091b57600080fd5b505af415801561092f573d6000803e3d6000fd5b505050506040513d601f19601f820116820180604052508101906109539190611529565b61095d9190611cd9565b90506109766c0c9f2c9cd04674edea4000000082611b65565b9998505050505050505050565b600061098d611037565b6001600160a01b031661099e610b67565b6001600160a01b0316146109c45760405162461bcd60e51b815260040161062490611842565b478211156109e45760405162461bcd60e51b8152600401610624906116ba565b6109ec611037565b6001600160a01b03166108fc839081150290604051600060405180830381858888f193505050501580156105a4573d6000803e3d6000fd5b601290565b60006105a4610a36611037565b848460016000610a44611037565b6001600160a01b03908116825260208083019390935260409182016000908120918b1681529252902054610a789190611b4d565b61103b565b6000610a87611037565b6001600160a01b0316610a98610b67565b6001600160a01b031614610abe5760405162461bcd60e51b815260040161062490611842565b6001600160a01b03831615801590610ad557508115155b610af15760405162461bcd60e51b815260040161062490611877565b6105a48383611219565b6001600160a01b031660009081526020819052604090205490565b610b1e611037565b6001600160a01b0316610b2f610b67565b6001600160a01b031614610b555760405162461bcd60e51b815260040161062490611842565b610b5f60006112e5565b565b600c5481565b6005546001600160a01b031690565b600080600080600080600760009054906101000a90046001600160a01b03166001600160a01b031663feaf968c6040518163ffffffff1660e01b815260040160a06040518083038186803b158015610bcd57600080fd5b505afa158015610be1573d6000803e3d6000fd5b505050506040513d601f19601f82011682018060405250810190610c059190611541565b50919850505050505050505090565b60606004805461050d90611dd1565b6000610c2d611037565b6001600160a01b0316610c3e610b67565b6001600160a01b031614610c645760405162461bcd60e51b815260040161062490611842565b6001600160a01b03831615801590610c7b57508115155b610c975760405162461bcd60e51b815260040161062490611976565b6105a48383611337565b60008060016000610cb0611037565b6001600160a01b0390811682526020808301939093526040918201600090812091881681529252902054905082811015610cfc5760405162461bcd60e51b815260040161062490611a82565b610d10610d07611037565b8585840361103b565b5060019392505050565b60006105a4610d27611037565b84846110ef565b600a5481565b6000610d3e6105ad565b90506000610d50610275836001611b4d565b90506009548210610d735760405162461bcd60e51b8152600401610624906118b9565b6000610d7f8285611d5c565b905060006103e8610d918660fa611d5c565b610d9b9190611b93565b90506000610da98287611dba565b905033318310610dcb5760405162461bcd60e51b8152600401610624906119b8565b6000306001600160a01b031684604051610de490611590565b60006040518083038185875af1925050503d8060008114610e21576040519150601f19603f3d011682016040523d82523d6000602084013e610e26565b606091505b5050905080610e475760405162461bcd60e51b8152600401610624906117cc565b610e513084610c23565b50610e64610e5d610b67565b33846110ef565b7f3b0235c33cdccf9515aed60ee1d3b81366ddfb118b3892d78f405d177f17a62a3386604051610e959291906115a7565b60405180910390a150505050505050565b6001600160a01b03918216600090815260016020908152604080832093909416825291909152205490565b600b5481565b6000610ee46102756105ad565b90506000610ef28284611d5c565b90506000610eff33610afb565b905080841115610f215760405162461bcd60e51b815260040161062490611a4b565b6000610f2e600a86611b93565b90506000610f3d600a87611b93565b9050600081610f4c8489611dba565b610f569190611dba565b9050610f6a33610f64610b67565b836110ef565b610f743084610c23565b50610f7f3083610c23565b507fad8e8e04fa975586e5e008814828c75a97c6b0948ca687f5cee1cb44269e295e3388604051610e959291906115a7565b60095481565b610fbf611037565b6001600160a01b0316610fd0610b67565b6001600160a01b031614610ff65760405162461bcd60e51b815260040161062490611842565b6001600160a01b03811661101c5760405162461bcd60e51b8152600401610624906116fe565b611025816112e5565b50565b600d546001600160a01b031681565b3390565b6001600160a01b0383166110615760405162461bcd60e51b815260040161062490611a07565b6001600160a01b0382166110875760405162461bcd60e51b815260040161062490611744565b6001600160a01b0380841660008181526001602090815260408083209487168084529490915290819020849055517f8c5be1e5ebec7d5bd14f71427d1e84f3dd0314c0f7b2291e5b200ac8c7c3b925906110e29085906115cb565b60405180910390a3505050565b6001600160a01b0383166111155760405162461bcd60e51b815260040161062490611931565b6001600160a01b03821661113b5760405162461bcd60e51b815260040161062490611635565b611146838383611424565b6001600160a01b0383166000908152602081905260409020548181101561117f5760405162461bcd60e51b815260040161062490611786565b6001600160a01b038085166000908152602081905260408082208585039055918516815290812080548492906111b6908490611b4d565b92505081905550826001600160a01b0316846001600160a01b03167fddf252ad1be2c89b69c2b068fc378daa952ba7f163c4a11628f55a4df523b3ef8460405161120091906115cb565b60405180910390a3611213848484611424565b50505050565b6001600160a01b03821661123f5760405162461bcd60e51b815260040161062490611ac7565b61124b60008383611424565b806002600082825461125d9190611b4d565b90915550506001600160a01b0382166000908152602081905260408120805483929061128a908490611b4d565b90915550506040516001600160a01b038316906000907fddf252ad1be2c89b69c2b068fc378daa952ba7f163c4a11628f55a4df523b3ef906112cd9085906115cb565b60405180910390a36112e160008383611424565b5050565b600580546001600160a01b038381166001600160a01b0319831681179093556040519116919082907f8be0079c531659141344cd1fd0a4f28419497f9722a3daafe3b4186f6b6457e090600090a35050565b6001600160a01b03821661135d5760405162461bcd60e51b8152600401610624906118f0565b61136982600083611424565b6001600160a01b038216600090815260208190526040902054818110156113a25760405162461bcd60e51b815260040161062490611678565b6001600160a01b03831660009081526020819052604081208383039055600280548492906113d1908490611dba565b90915550506040516000906001600160a01b038516907fddf252ad1be2c89b69c2b068fc378daa952ba7f163c4a11628f55a4df523b3ef906114149086906115cb565b60405180910390a3611424836000845b505050565b80356001600160a01b03811681146104f957600080fd5b805169ffffffffffffffffffff811681146104f957600080fd5b60006020828403121561146b578081fd5b61147482611429565b9392505050565b6000806040838503121561148d578081fd5b61149683611429565b91506114a460208401611429565b90509250929050565b6000806000606084860312156114c1578081fd5b6114ca84611429565b92506114d860208501611429565b9150604084013590509250925092565b600080604083850312156114fa578182fd5b61150383611429565b946020939093013593505050565b600060208284031215611522578081fd5b5035919050565b60006020828403121561153a578081fd5b5051919050565b600080600080600060a08688031215611558578081fd5b61156186611440565b945060208601519350604086015192506060860151915061158460808701611440565b90509295509295909350565b90565b6001600160a01b0391909116815260200190565b6001600160a01b03929092168252602082015260400190565b901515815260200190565b90815260200190565b918252602082015260400190565b6000602080835283518082850152825b8181101561160e578581018301518582016040015282016115f2565b8181111561161f5783604083870101525b50601f01601f1916929092016040019392505050565b60208082526023908201527f45524332303a207472616e7366657220746f20746865207a65726f206164647260408201526265737360e81b606082015260800190565b60208082526022908201527f45524332303a206275726e20616d6f756e7420657863656564732062616c616e604082015261636560f01b606082015260800190565b60208082526024908201527f49434f3a2066756e6374696f6e20776974686472617720696e76616c696420696040820152631b9c1d5d60e21b606082015260800190565b60208082526026908201527f4f776e61626c653a206e6577206f776e657220697320746865207a65726f206160408201526564647265737360d01b606082015260800190565b60208082526022908201527f45524332303a20617070726f766520746f20746865207a65726f206164647265604082015261737360f01b606082015260800190565b60208082526026908201527f45524332303a207472616e7366657220616d6f756e7420657863656564732062604082015265616c616e636560d01b606082015260800190565b6020808252601490820152732330b4b632b2103a379039b2b7321022ba3432b960611b604082015260600190565b60208082526028908201527f45524332303a207472616e7366657220616d6f756e74206578636565647320616040820152676c6c6f77616e636560c01b606082015260800190565b6020808252818101527f4f776e61626c653a2063616c6c6572206973206e6f7420746865206f776e6572604082015260600190565b60208082526022908201527f45524332303a2066756e6374696f6e206d696e7420696e76616c696420696e706040820152611d5d60f21b606082015260800190565b60208082526018908201527f4255593a204d617820537570706c792052656163686564210000000000000000604082015260600190565b60208082526021908201527f45524332303a206275726e2066726f6d20746865207a65726f206164647265736040820152607360f81b606082015260800190565b60208082526025908201527f45524332303a207472616e736665722066726f6d20746865207a65726f206164604082015264647265737360d81b606082015260800190565b60208082526022908201527f45524332303a2066756e6374696f6e206275726e20696e76616c696420696e706040820152611d5d60f21b606082015260800190565b6020808252602f908201527f6e6f742073756666696369656e74204574682062616c616e636520666f72206160408201526e1b5bdd5b9d081c995c5d595cdd1959608a1b606082015260800190565b60208082526024908201527f45524332303a20617070726f76652066726f6d20746865207a65726f206164646040820152637265737360e01b606082015260800190565b6020808252601d908201527f446f6e2774206861766520656e6f75676820494e464c20746f6b656e73000000604082015260600190565b60208082526025908201527f45524332303a2064656372656173656420616c6c6f77616e63652062656c6f77604082015264207a65726f60d81b606082015260800190565b6020808252601f908201527f45524332303a206d696e7420746f20746865207a65726f206164647265737300604082015260600190565b60ff91909116815260200190565b600080821280156001600160ff1b0384900385131615611b2e57611b2e611e0c565b600160ff1b8390038412811615611b4757611b47611e0c565b50500190565b60008219821115611b6057611b60611e0c565b500190565b600082611b7457611b74611e22565b600160ff1b821460001984141615611b8e57611b8e611e0c565b500590565b600082611ba257611ba2611e22565b500490565b80825b6001808611611bb95750611be4565b818704821115611bcb57611bcb611e0c565b80861615611bd857918102915b9490941c938002611baa565b94509492505050565b6000828015611c035760018114611c0d57611c16565b6001915050611cb5565b82915050611cb5565b5081611c2457506000611cb5565b50600160008213808214611c3d578015611c5457611c66565b828604831115611c4f57611c4f611e0c565b611c66565b828605831215611c6657611c66611e0c565b5080831615611c725750805b611c83858460011c84850284611ba7565b8087048211600083131615611c9a57611c9a611e0c565b8086058212600083121615611cb157611cb1611e0c565b0290505b949350505050565b60006114746001600160ff1b03600160ff1b60ff861685611bed565b60006001600160ff1b0381841382841380821686840486111615611cff57611cff611e0c565b600160ff1b84871282811687830589121615611d1d57611d1d611e0c565b858712925087820587128484161615611d3857611d38611e0c565b87850587128184161615611d4e57611d4e611e0c565b505050929093029392505050565b6000816000190483118215151615611d7657611d76611e0c565b500290565b60008083128015600160ff1b850184121615611d9957611d99611e0c565b6001600160ff1b0384018313811615611db457611db4611e0c565b50500390565b600082821015611dcc57611dcc611e0c565b500390565b600281046001821680611de557607f821691505b60208210811415611e0657634e487b7160e01b600052602260045260246000fd5b50919050565b634e487b7160e01b600052601160045260246000fd5b634e487b7160e01b600052601260045260246000fdfea26469706673582212208994206afda22249e330d46b6f84c7cda0bf8a49cfd4df3abf6ca1f74575d58764736f6c63430008000033",
  "linkReferences": {
    "contracts/FixedMath.sol": {
      "FixedMath": [
        {
          "length": 20,
          "start": 3450
        },
        {
          "length": 20,
          "start": 3591
        },
        {
          "length": 20,
          "start": 3732
        },
        {
          "length": 20,
          "start": 3873
        },
        {
          "length": 20,
          "start": 4041
        }
      ]
    }
  },
  "deployedLinkReferences": {
    "contracts/FixedMath.sol": {
      "FixedMath": [
        {
          "length": 20,
          "start": 1678
        },
        {
          "length": 20,
          "start": 1819
        },
        {
          "length": 20,
          "start": 1960
        },
        {
          "length": 20,
          "start": 2101
        },
        {
          "length": 20,
          "start": 2269
        }
      ]
    }
  }
}