{
  "_format": "hh-sol-artifact-1",
  "contractName": "FixedMath",
  "sourceName": "contracts/FixedMath.sol",
  "abi": [
    {
      "inputs": [
        {
          "internalType": "int256",
          "name": "x",
          "type": "int256"
        },
        {
          "internalType": "int256",
          "name": "y",
          "type": "int256"
        }
      ],
      "name": "add",
      "outputs": [
        {
          "internalType": "int256",
          "name": "",
          "type": "int256"
        }
      ],
      "stateMutability": "pure",
      "type": "function"
    },
    {
      "inputs": [
        {
          "internalType": "int256",
          "name": "x",
          "type": "int256"
        },
        {
          "internalType": "int256",
          "name": "y",
          "type": "int256"
        }
      ],
      "name": "divide",
      "outputs": [
        {
          "internalType": "int256",
          "name": "",
          "type": "int256"
        }
      ],
      "stateMutability": "pure",
      "type": "function"
    },
    {
      "inputs": [],
      "name": "fixed1",
      "outputs": [
        {
          "internalType": "int256",
          "name": "",
          "type": "int256"
        }
      ],
      "stateMutability": "pure",
      "type": "function"
    },
    {
      "inputs": [],
      "name": "fixed2",
      "outputs": [
        {
          "internalType": "int256",
          "name": "",
          "type": "int256"
        }
      ],
      "stateMutability": "pure",
      "type": "function"
    },
    {
      "inputs": [
        {
          "internalType": "int256",
          "name": "x",
          "type": "int256"
        }
      ],
      "name": "fractional",
      "outputs": [
        {
          "internalType": "int256",
          "name": "",
          "type": "int256"
        }
      ],
      "stateMutability": "pure",
      "type": "function"
    },
    {
      "inputs": [
        {
          "internalType": "int256",
          "name": "x",
          "type": "int256"
        }
      ],
      "name": "integer",
      "outputs": [
        {
          "internalType": "int256",
          "name": "",
          "type": "int256"
        }
      ],
      "stateMutability": "pure",
      "type": "function"
    },
    {
      "inputs": [],
      "name": "mulPrecision",
      "outputs": [
        {
          "internalType": "int256",
          "name": "",
          "type": "int256"
        }
      ],
      "stateMutability": "pure",
      "type": "function"
    },
    {
      "inputs": [
        {
          "internalType": "int256",
          "name": "x",
          "type": "int256"
        },
        {
          "internalType": "int256",
          "name": "y",
          "type": "int256"
        }
      ],
      "name": "multiply",
      "outputs": [
        {
          "internalType": "int256",
          "name": "",
          "type": "int256"
        }
      ],
      "stateMutability": "pure",
      "type": "function"
    },
    {
      "inputs": [
        {
          "internalType": "int256",
          "name": "x",
          "type": "int256"
        }
      ],
      "name": "reciprocal",
      "outputs": [
        {
          "internalType": "int256",
          "name": "",
          "type": "int256"
        }
      ],
      "stateMutability": "pure",
      "type": "function"
    },
    {
      "inputs": [
        {
          "internalType": "int256",
          "name": "x",
          "type": "int256"
        }
      ],
      "name": "sqrt",
      "outputs": [
        {
          "internalType": "int256",
          "name": "",
          "type": "int256"
        }
      ],
      "stateMutability": "pure",
      "type": "function"
    },
    {
      "inputs": [
        {
          "internalType": "int256",
          "name": "num",
          "type": "int256"
        }
      ],
      "name": "toFixed",
      "outputs": [
        {
          "internalType": "int256",
          "name": "",
          "type": "int256"
        }
      ],
      "stateMutability": "pure",
      "type": "function"
    }
  ],
  "bytecode": "0x61078c61003a600b82828239805160001a60731461002d57634e487b7160e01b600052600060045260246000fd5b30600052607381538281f3fe73000000000000000000000000000000000000000030146080604052600436106100b35760003560e01c80639ca7eb761161007b5780639ca7eb76146101175780639f17f3ff1461011f578063a5f3c23b14610132578063cf94513a14610145578063e179f25214610158578063f59842361461016b576100b3565b80632179bb6c146100b85780633c4308a8146100d657806360723262146100e9578063665df460146100f15780639c15bca414610104575b600080fd5b6100c061017e565b6040516100cd91906105fa565b60405180910390f35b6100c06100e43660046105d9565b61018c565b6100c06103bc565b6100c06100ff3660046105c1565b6103cb565b6100c06101123660046105c1565b61043c565b6100c061047e565b6100c061012d3660046105c1565b610487565b6100c06101403660046105d9565b61049b565b6100c06101533660046105c1565b61052b565b6100c06101663660046105c1565b61055b565b6100c06101793660046105d9565b610581565b69d3c21bcecceda100000090565b6000821580610199575081155b156101a6575060006103b6565b6101ae61017e565b8214156101bc5750816103b6565b6101c461017e565b8314156101d25750806103b6565b60006101dc61017e565b6101e58561055b565b6101ef9190610644565b905060006101fc8561052b565b9050600061020861017e565b6102118661055b565b61021b9190610644565b905060006102288661052b565b90506000610236838661067e565b9050841561026457826102498683610644565b1461026457634e487b7160e01b600052600160045260246000fd5b600061026e61017e565b610278908361067e565b905081156102ad5761028861017e565b6102928383610644565b146102ad57634e487b7160e01b600052600160045260246000fd5b90508060006102bc858761067e565b905085156102ea57846102cf8783610644565b146102ea57634e487b7160e01b600052600160045260246000fd5b60006102f6858961067e565b9050871561032457846103098983610644565b1461032457634e487b7160e01b600052600160045260246000fd5b61032c61047e565b6103369088610644565b965061034061047e565b61034a9086610644565b94506000610358868961067e565b90508715610386578561036b8983610644565b1461038657634e487b7160e01b600052600160045260246000fd5b84610391818561049b565b905061039d818461049b565b90506103a9818361049b565b9a50505050505050505050505b92915050565b6a01a784379d99db4200000090565b6000806103d661017e565b905060006103e48483610581565b6103ee9083610603565b905060006103fe826101796103bc565b90505b808314610434578092506104158584610581565b61041f9084610603565b915061042d826101796103bc565b9050610401565b949350505050565b60008161045957634e487b7160e01b600052600160045260246000fd5b8161046261017e565b61046a61017e565b610474919061067e565b6103b69190610644565b64e8d4a5100090565b600061049161017e565b6103b6908361067e565b6000806104a88385610603565b90506000841380156104ba5750600083135b156104e75783811380156104cd57508281135b6104e757634e487b7160e01b600052600160045260246000fd5b6000841280156104f75750600083125b1561052457838112801561050a57508281125b61052457634e487b7160e01b600052600160045260246000fd5b9392505050565b600061053561017e565b61053d61017e565b6105479084610644565b610551919061067e565b6103b69083610701565b600061056561017e565b61056d61017e565b6105779084610644565b6103b6919061067e565b600061058b61017e565b8214156105995750816103b6565b816105b457634e487b7160e01b600052600160045260246000fd5b610524836100e48461043c565b6000602082840312156105d2578081fd5b5035919050565b600080604083850312156105eb578081fd5b50508035926020909101359150565b90815260200190565b600080821280156001600160ff1b038490038513161561062557610625610740565b600160ff1b839003841281161561063e5761063e610740565b50500190565b60008261065f57634e487b7160e01b81526012600452602481fd5b600160ff1b82146000198414161561067957610679610740565b500590565b60006001600160ff1b03818413828413808216868404861116156106a4576106a4610740565b600160ff1b848712828116878305891216156106c2576106c2610740565b8587129250878205871284841616156106dd576106dd610740565b878505871281841616156106f3576106f3610740565b505050929093029392505050565b60008083128015600160ff1b85018412161561071f5761071f610740565b6001600160ff1b038401831381161561073a5761073a610740565b50500390565b634e487b7160e01b600052601160045260246000fdfea2646970667358221220ee84949ab7b0f27b87ef378facc0de71cff824284cd8d282f3942cd6636517d664736f6c63430008000033",
  "linkReferences": {},
  "deployedLinkReferences": {}
}