{
  "_format": "hh-sol-artifact-1",
  "contractName": "ICO",
  "sourceName": "contracts/ICO.sol",
  "abi": [
    {
      "inputs": [],
      "stateMutability": "nonpayable",
      "type": "constructor"
    },
    {
      "anonymous": false,
      "inputs": [
        {
          "indexed": true,
          "internalType": "address",
          "name": "owner",
          "type": "address"
        },
        {
          "indexed": true,
          "internalType": "address",
          "name": "spender",
          "type": "address"
        },
        {
          "indexed": false,
          "internalType": "uint256",
          "name": "value",
          "type": "uint256"
        }
      ],
      "name": "Approval",
      "type": "event"
    },
    {
      "anonymous": false,
      "inputs": [
        {
          "indexed": false,
          "internalType": "address",
          "name": "buyer",
          "type": "address"
        },
        {
          "indexed": false,
          "internalType": "uint256",
          "name": "price",
          "type": "uint256"
        }
      ],
      "name": "Buy",
      "type": "event"
    },
    {
      "anonymous": false,
      "inputs": [
        {
          "indexed": true,
          "internalType": "address",
          "name": "previousOwner",
          "type": "address"
        },
        {
          "indexed": true,
          "internalType": "address",
          "name": "newOwner",
          "type": "address"
        }
      ],
      "name": "OwnershipTransferred",
      "type": "event"
    },
    {
      "anonymous": false,
      "inputs": [
        {
          "indexed": false,
          "internalType": "address",
          "name": "seller",
          "type": "address"
        },
        {
          "indexed": false,
          "internalType": "uint256",
          "name": "price",
          "type": "uint256"
        }
      ],
      "name": "Sell",
      "type": "event"
    },
    {
      "anonymous": false,
      "inputs": [
        {
          "indexed": true,
          "internalType": "address",
          "name": "from",
          "type": "address"
        },
        {
          "indexed": true,
          "internalType": "address",
          "name": "to",
          "type": "address"
        },
        {
          "indexed": false,
          "internalType": "uint256",
          "name": "value",
          "type": "uint256"
        }
      ],
      "name": "Transfer",
      "type": "event"
    },
    {
      "inputs": [
        {
          "internalType": "address",
          "name": "owner",
          "type": "address"
        },
        {
          "internalType": "address",
          "name": "spender",
          "type": "address"
        }
      ],
      "name": "allowance",
      "outputs": [
        {
          "internalType": "uint256",
          "name": "",
          "type": "uint256"
        }
      ],
      "stateMutability": "view",
      "type": "function"
    },
    {
      "inputs": [
        {
          "internalType": "address",
          "name": "spender",
          "type": "address"
        },
        {
          "internalType": "uint256",
          "name": "amount",
          "type": "uint256"
        }
      ],
      "name": "approve",
      "outputs": [
        {
          "internalType": "bool",
          "name": "",
          "type": "bool"
        }
      ],
      "stateMutability": "nonpayable",
      "type": "function"
    },
    {
      "inputs": [
        {
          "internalType": "address",
          "name": "account",
          "type": "address"
        }
      ],
      "name": "balanceOf",
      "outputs": [
        {
          "internalType": "uint256",
          "name": "",
          "type": "uint256"
        }
      ],
      "stateMutability": "view",
      "type": "function"
    },
    {
      "inputs": [
        {
          "internalType": "address",
          "name": "account",
          "type": "address"
        },
        {
          "internalType": "uint256",
          "name": "amount",
          "type": "uint256"
        }
      ],
      "name": "burn",
      "outputs": [
        {
          "internalType": "bool",
          "name": "success",
          "type": "bool"
        }
      ],
      "stateMutability": "nonpayable",
      "type": "function"
    },
    {
      "inputs": [
        {
          "internalType": "uint256",
          "name": "_amountToPurchase",
          "type": "uint256"
        }
      ],
      "name": "buy",
      "outputs": [],
      "stateMutability": "payable",
      "type": "function"
    },
    {
      "inputs": [
        {
          "internalType": "uint256",
          "name": "_usdAmount",
          "type": "uint256"
        }
      ],
      "name": "computeInitialPriceInEth",
      "outputs": [
        {
          "internalType": "uint256",
          "name": "priceInEth",
          "type": "uint256"
        }
      ],
      "stateMutability": "view",
      "type": "function"
    },
    {
      "inputs": [],
      "name": "decimals",
      "outputs": [
        {
          "internalType": "uint8",
          "name": "",
          "type": "uint8"
        }
      ],
      "stateMutability": "view",
      "type": "function"
    },
    {
      "inputs": [
        {
          "internalType": "address",
          "name": "spender",
          "type": "address"
        },
        {
          "internalType": "uint256",
          "name": "subtractedValue",
          "type": "uint256"
        }
      ],
      "name": "decreaseAllowance",
      "outputs": [
        {
          "internalType": "bool",
          "name": "",
          "type": "bool"
        }
      ],
      "stateMutability": "nonpayable",
      "type": "function"
    },
    {
      "inputs": [],
      "name": "getLatestPrice",
      "outputs": [
        {
          "internalType": "int256",
          "name": "",
          "type": "int256"
        }
      ],
      "stateMutability": "view",
      "type": "function"
    },
    {
      "inputs": [
        {
          "internalType": "address",
          "name": "spender",
          "type": "address"
        },
        {
          "internalType": "uint256",
          "name": "addedValue",
          "type": "uint256"
        }
      ],
      "name": "increaseAllowance",
      "outputs": [
        {
          "internalType": "bool",
          "name": "",
          "type": "bool"
        }
      ],
      "stateMutability": "nonpayable",
      "type": "function"
    },
    {
      "inputs": [
        {
          "internalType": "address",
          "name": "account",
          "type": "address"
        },
        {
          "internalType": "uint256",
          "name": "amount",
          "type": "uint256"
        }
      ],
      "name": "mint",
      "outputs": [
        {
          "internalType": "bool",
          "name": "sucess",
          "type": "bool"
        }
      ],
      "stateMutability": "nonpayable",
      "type": "function"
    },
    {
      "inputs": [],
      "name": "name",
      "outputs": [
        {
          "internalType": "string",
          "name": "",
          "type": "string"
        }
      ],
      "stateMutability": "view",
      "type": "function"
    },
    {
      "inputs": [],
      "name": "owner",
      "outputs": [
        {
          "internalType": "address",
          "name": "",
          "type": "address"
        }
      ],
      "stateMutability": "view",
      "type": "function"
    },
    {
      "inputs": [],
      "name": "renounceOwnership",
      "outputs": [],
      "stateMutability": "nonpayable",
      "type": "function"
    },
    {
      "inputs": [],
      "name": "symbol",
      "outputs": [
        {
          "internalType": "string",
          "name": "",
          "type": "string"
        }
      ],
      "stateMutability": "view",
      "type": "function"
    },
    {
      "inputs": [],
      "name": "totalSupply",
      "outputs": [
        {
          "internalType": "uint256",
          "name": "",
          "type": "uint256"
        }
      ],
      "stateMutability": "view",
      "type": "function"
    },
    {
      "inputs": [
        {
          "internalType": "address",
          "name": "recipient",
          "type": "address"
        },
        {
          "internalType": "uint256",
          "name": "amount",
          "type": "uint256"
        }
      ],
      "name": "transfer",
      "outputs": [
        {
          "internalType": "bool",
          "name": "",
          "type": "bool"
        }
      ],
      "stateMutability": "nonpayable",
      "type": "function"
    },
    {
      "inputs": [
        {
          "internalType": "address",
          "name": "sender",
          "type": "address"
        },
        {
          "internalType": "address",
          "name": "recipient",
          "type": "address"
        },
        {
          "internalType": "uint256",
          "name": "amount",
          "type": "uint256"
        }
      ],
      "name": "transferFrom",
      "outputs": [
        {
          "internalType": "bool",
          "name": "",
          "type": "bool"
        }
      ],
      "stateMutability": "nonpayable",
      "type": "function"
    },
    {
      "inputs": [
        {
          "internalType": "address",
          "name": "newOwner",
          "type": "address"
        }
      ],
      "name": "transferOwnership",
      "outputs": [],
      "stateMutability": "nonpayable",
      "type": "function"
    },
    {
      "inputs": [
        {
          "internalType": "uint256",
          "name": "amount",
          "type": "uint256"
        }
      ],
      "name": "withdraw",
      "outputs": [
        {
          "internalType": "bool",
          "name": "success",
          "type": "bool"
        }
      ],
      "stateMutability": "nonpayable",
      "type": "function"
    }
  ],
  "bytecode": "0x60806040523480156200001157600080fd5b506040805180820182526011815270496e666c75656e63657245636f6e6f6d7960781b6020808301918252835180850190945260048452631253919360e21b9084015281519192916200006791600391620002e6565b5080516200007d906004906020840190620002e6565b5050506200009a620000946200010160201b60201c565b62000105565b6001600655600780546001600160a01b0319167386d67c3d38d2bcee722e601025c25a575021c6ea179055620000fa33620000d462000157565b620000e49060ff16600a620004ab565b620000f490630bebc200620005a0565b6200015c565b5062000615565b3390565b600580546001600160a01b038381166001600160a01b0319831681179093556040519116919082907f8be0079c531659141344cd1fd0a4f28419497f9722a3daafe3b4186f6b6457e090600090a35050565b601290565b60006200016862000101565b6001600160a01b03166200017b620001f9565b6001600160a01b031614620001ad5760405162461bcd60e51b8152600401620001a4906200038c565b60405180910390fd5b6001600160a01b03831615801590620001c557508115155b620001e45760405162461bcd60e51b8152600401620001a490620003c1565b620001f0838362000208565b50600192915050565b6005546001600160a01b031690565b6001600160a01b038216620002315760405162461bcd60e51b8152600401620001a49062000403565b6200023f60008383620002e1565b806002600082825462000253919062000443565b90915550506001600160a01b038216600090815260208190526040812080548392906200028290849062000443565b90915550506040516001600160a01b038316906000907fddf252ad1be2c89b69c2b068fc378daa952ba7f163c4a11628f55a4df523b3ef90620002c79085906200043a565b60405180910390a3620002dd60008383620002e1565b5050565b505050565b828054620002f490620005c2565b90600052602060002090601f01602090048101928262000318576000855562000363565b82601f106200033357805160ff191683800117855562000363565b8280016001018555821562000363579182015b828111156200036357825182559160200191906001019062000346565b506200037192915062000375565b5090565b5b8082111562000371576000815560010162000376565b6020808252818101527f4f776e61626c653a2063616c6c6572206973206e6f7420746865206f776e6572604082015260600190565b60208082526022908201527f45524332303a2066756e6374696f6e206d696e7420696e76616c696420696e706040820152611d5d60f21b606082015260800190565b6020808252601f908201527f45524332303a206d696e7420746f20746865207a65726f206164647265737300604082015260600190565b90815260200190565b60008219821115620004595762000459620005ff565b500190565b80825b6001808611620004725750620004a2565b818704821115620004875762000487620005ff565b808616156200049557918102915b9490941c93800262000461565b94509492505050565b6000620004bc6000198484620004c3565b9392505050565b600082620004d457506001620004bc565b81620004e357506000620004bc565b8160018114620004fc576002811462000507576200053b565b6001915050620004bc565b60ff8411156200051b576200051b620005ff565b6001841b915084821115620005345762000534620005ff565b50620004bc565b5060208310610133831016604e8410600b841016171562000573575081810a838111156200056d576200056d620005ff565b620004bc565b6200058284848460016200045e565b808604821115620005975762000597620005ff565b02949350505050565b6000816000190483118215151615620005bd57620005bd620005ff565b500290565b600281046001821680620005d757607f821691505b60208210811415620005f957634e487b7160e01b600052602260045260246000fd5b50919050565b634e487b7160e01b600052601160045260246000fd5b6116f680620006256000396000f3fe60806040526004361061011f5760003560e01c80638da5cb5b116100a0578063a9059cbb11610064578063a9059cbb14610303578063cc3a2d0514610323578063d96a094a14610343578063dd62ed3e14610356578063f2fde38b146103765761011f565b80638da5cb5b146102775780638e15f4731461029957806395d89b41146102ae5780639dc29fac146102c3578063a457c2d7146102e35761011f565b8063313ce567116100e7578063313ce567146101de578063395093511461020057806340c10f191461022057806370a0823114610240578063715018a6146102605761011f565b806306fdde0314610124578063095ea7b31461014f57806318160ddd1461017c57806323b872dd1461019e5780632e1a7d4d146101be575b600080fd5b34801561013057600080fd5b50610139610396565b6040516101469190611040565b60405180910390f35b34801561015b57600080fd5b5061016f61016a366004610f57565b610428565b604051610146919061102c565b34801561018857600080fd5b50610191610445565b6040516101469190611037565b3480156101aa57600080fd5b5061016f6101b9366004610f1c565b61044b565b3480156101ca57600080fd5b5061016f6101d9366004610f98565b6104e6565b3480156101ea57600080fd5b506101f3610592565b60405161014691906114df565b34801561020c57600080fd5b5061016f61021b366004610f57565b610597565b34801561022c57600080fd5b5061016f61023b366004610f57565b6105eb565b34801561024c57600080fd5b5061019161025b366004610ed0565b610669565b34801561026c57600080fd5b50610275610684565b005b34801561028357600080fd5b5061028c6106cf565b6040516101469190610fff565b3480156102a557600080fd5b506101916106de565b3480156102ba57600080fd5b5061013961077c565b3480156102cf57600080fd5b5061016f6102de366004610f57565b61078b565b3480156102ef57600080fd5b5061016f6102fe366004610f57565b610809565b34801561030f57600080fd5b5061016f61031e366004610f57565b610882565b34801561032f57600080fd5b5061019161033e366004610f98565b610896565b610275610351366004610f98565b610945565b34801561036257600080fd5b50610191610371366004610eea565b610a11565b34801561038257600080fd5b50610275610391366004610ed0565b610a3c565b6060600380546103a59061166f565b80601f01602080910402602001604051908101604052809291908181526020018280546103d19061166f565b801561041e5780601f106103f35761010080835404028352916020019161041e565b820191906000526020600020905b81548152906001019060200180831161040157829003601f168201915b5050505050905090565b600061043c610435610aad565b8484610ab1565b50600192915050565b60025490565b6000610458848484610b65565b6001600160a01b038416600090815260016020526040812081610479610aad565b6001600160a01b03166001600160a01b03168152602001908152602001600020549050828110156104c55760405162461bcd60e51b81526004016104bc9061122a565b60405180910390fd5b6104d9856104d1610aad565b858403610ab1565b60019150505b9392505050565b60006104f0610aad565b6001600160a01b03166105016106cf565b6001600160a01b0316146105275760405162461bcd60e51b81526004016104bc90611272565b478211156105475760405162461bcd60e51b81526004016104bc90611118565b61054f610aad565b6001600160a01b03166108fc839081150290604051600060405180830381858888f19350505050158015610587573d6000803e3d6000fd5b50600190505b919050565b601290565b600061043c6105a4610aad565b8484600160006105b2610aad565b6001600160a01b03908116825260208083019390935260409182016000908120918b16815292529020546105e691906114ed565b610ab1565b60006105f5610aad565b6001600160a01b03166106066106cf565b6001600160a01b03161461062c5760405162461bcd60e51b81526004016104bc90611272565b6001600160a01b0383161580159061064357508115155b61065f5760405162461bcd60e51b81526004016104bc906112de565b61043c8383610c8f565b6001600160a01b031660009081526020819052604090205490565b61068c610aad565b6001600160a01b031661069d6106cf565b6001600160a01b0316146106c35760405162461bcd60e51b81526004016104bc90611272565b6106cd6000610d5b565b565b6005546001600160a01b031690565b600080600080600080600760009054906101000a90046001600160a01b03166001600160a01b031663feaf968c6040518163ffffffff1660e01b815260040160a06040518083038186803b15801561073557600080fd5b505afa158015610749573d6000803e3d6000fd5b505050506040513d601f19601f8201168201806040525081019061076d9190610fb0565b50919850505050505050505090565b6060600480546103a59061166f565b6000610795610aad565b6001600160a01b03166107a66106cf565b6001600160a01b0316146107cc5760405162461bcd60e51b81526004016104bc90611272565b6001600160a01b038316158015906107e357508115155b6107ff5760405162461bcd60e51b81526004016104bc906113a6565b61043c8383610dad565b60008060016000610818610aad565b6001600160a01b03908116825260208083019390935260409182016000908120918816815292529020549050828110156108645760405162461bcd60e51b81526004016104bc90611463565b61087861086f610aad565b85858403610ab1565b5060019392505050565b600061043c61088f610aad565b8484610b65565b60006108a0610592565b6108ae9060ff16600a61156b565b6064306001600160a01b0316638e15f4736040518163ffffffff1660e01b815260040160206040518083038186803b1580156108e957600080fd5b505afa1580156108fd573d6000803e3d6000fd5b505050506040513d601f19601f820116820180604052508101906109219190610f80565b61092b9085611505565b6109359190611505565b61093f9190611639565b92915050565b600260065414156109685760405162461bcd60e51b81526004016104bc9061142c565b600260065560006109796005610896565b905060006109878383611639565b90503331811180159061099957508015155b6109b55760405162461bcd60e51b81526004016104bc906112a7565b6109ce6109c06106cf565b6109c8610aad565b83610b65565b7fe3d4187f6ca4248660cc0ac8b8056515bac4a8132be2eca31d6d0cc170722a7e33846040516109ff929190611013565b60405180910390a15050600160065550565b6001600160a01b03918216600090815260016020908152604080832093909416825291909152205490565b610a44610aad565b6001600160a01b0316610a556106cf565b6001600160a01b031614610a7b5760405162461bcd60e51b81526004016104bc90611272565b6001600160a01b038116610aa15760405162461bcd60e51b81526004016104bc9061115c565b610aaa81610d5b565b50565b3390565b6001600160a01b038316610ad75760405162461bcd60e51b81526004016104bc906113e8565b6001600160a01b038216610afd5760405162461bcd60e51b81526004016104bc906111a2565b6001600160a01b0380841660008181526001602090815260408083209487168084529490915290819020849055517f8c5be1e5ebec7d5bd14f71427d1e84f3dd0314c0f7b2291e5b200ac8c7c3b92590610b58908590611037565b60405180910390a3505050565b6001600160a01b038316610b8b5760405162461bcd60e51b81526004016104bc90611361565b6001600160a01b038216610bb15760405162461bcd60e51b81526004016104bc90611093565b610bbc838383610e9a565b6001600160a01b03831660009081526020819052604090205481811015610bf55760405162461bcd60e51b81526004016104bc906111e4565b6001600160a01b03808516600090815260208190526040808220858503905591851681529081208054849290610c2c9084906114ed565b92505081905550826001600160a01b0316846001600160a01b03167fddf252ad1be2c89b69c2b068fc378daa952ba7f163c4a11628f55a4df523b3ef84604051610c769190611037565b60405180910390a3610c89848484610e9a565b50505050565b6001600160a01b038216610cb55760405162461bcd60e51b81526004016104bc906114a8565b610cc160008383610e9a565b8060026000828254610cd391906114ed565b90915550506001600160a01b03821660009081526020819052604081208054839290610d009084906114ed565b90915550506040516001600160a01b038316906000907fddf252ad1be2c89b69c2b068fc378daa952ba7f163c4a11628f55a4df523b3ef90610d43908590611037565b60405180910390a3610d5760008383610e9a565b5050565b600580546001600160a01b038381166001600160a01b0319831681179093556040519116919082907f8be0079c531659141344cd1fd0a4f28419497f9722a3daafe3b4186f6b6457e090600090a35050565b6001600160a01b038216610dd35760405162461bcd60e51b81526004016104bc90611320565b610ddf82600083610e9a565b6001600160a01b03821660009081526020819052604090205481811015610e185760405162461bcd60e51b81526004016104bc906110d6565b6001600160a01b0383166000908152602081905260408120838303905560028054849290610e47908490611658565b90915550506040516000906001600160a01b038516907fddf252ad1be2c89b69c2b068fc378daa952ba7f163c4a11628f55a4df523b3ef90610e8a908690611037565b60405180910390a3610e9a836000845b505050565b80356001600160a01b038116811461058d57600080fd5b805169ffffffffffffffffffff8116811461058d57600080fd5b600060208284031215610ee1578081fd5b6104df82610e9f565b60008060408385031215610efc578081fd5b610f0583610e9f565b9150610f1360208401610e9f565b90509250929050565b600080600060608486031215610f30578081fd5b610f3984610e9f565b9250610f4760208501610e9f565b9150604084013590509250925092565b60008060408385031215610f69578182fd5b610f7283610e9f565b946020939093013593505050565b600060208284031215610f91578081fd5b5051919050565b600060208284031215610fa9578081fd5b5035919050565b600080600080600060a08688031215610fc7578081fd5b610fd086610eb6565b9450602086015193506040860151925060608601519150610ff360808701610eb6565b90509295509295909350565b6001600160a01b0391909116815260200190565b6001600160a01b03929092168252602082015260400190565b901515815260200190565b90815260200190565b6000602080835283518082850152825b8181101561106c57858101830151858201604001528201611050565b8181111561107d5783604083870101525b50601f01601f1916929092016040019392505050565b60208082526023908201527f45524332303a207472616e7366657220746f20746865207a65726f206164647260408201526265737360e81b606082015260800190565b60208082526022908201527f45524332303a206275726e20616d6f756e7420657863656564732062616c616e604082015261636560f01b606082015260800190565b60208082526024908201527f49434f3a2066756e6374696f6e20776974686472617720696e76616c696420696040820152631b9c1d5d60e21b606082015260800190565b60208082526026908201527f4f776e61626c653a206e6577206f776e657220697320746865207a65726f206160408201526564647265737360d01b606082015260800190565b60208082526022908201527f45524332303a20617070726f766520746f20746865207a65726f206164647265604082015261737360f01b606082015260800190565b60208082526026908201527f45524332303a207472616e7366657220616d6f756e7420657863656564732062604082015265616c616e636560d01b606082015260800190565b60208082526028908201527f45524332303a207472616e7366657220616d6f756e74206578636565647320616040820152676c6c6f77616e636560c01b606082015260800190565b6020808252818101527f4f776e61626c653a2063616c6c6572206973206e6f7420746865206f776e6572604082015260600190565b6020808252601f908201527f49434f3a2066756e6374696f6e2062757920696e76616c696420696e70757400604082015260600190565b60208082526022908201527f45524332303a2066756e6374696f6e206d696e7420696e76616c696420696e706040820152611d5d60f21b606082015260800190565b60208082526021908201527f45524332303a206275726e2066726f6d20746865207a65726f206164647265736040820152607360f81b606082015260800190565b60208082526025908201527f45524332303a207472616e736665722066726f6d20746865207a65726f206164604082015264647265737360d81b606082015260800190565b60208082526022908201527f45524332303a2066756e6374696f6e206275726e20696e76616c696420696e706040820152611d5d60f21b606082015260800190565b60208082526024908201527f45524332303a20617070726f76652066726f6d20746865207a65726f206164646040820152637265737360e01b606082015260800190565b6020808252601f908201527f5265656e7472616e637947756172643a207265656e7472616e742063616c6c00604082015260600190565b60208082526025908201527f45524332303a2064656372656173656420616c6c6f77616e63652062656c6f77604082015264207a65726f60d81b606082015260800190565b6020808252601f908201527f45524332303a206d696e7420746f20746865207a65726f206164647265737300604082015260600190565b60ff91909116815260200190565b60008219821115611500576115006116aa565b500190565b60008261152057634e487b7160e01b81526012600452602481fd5b500490565b80825b60018086116115375750611562565b818704821115611549576115496116aa565b8086161561155657918102915b9490941c938002611528565b94509492505050565b60006104df6000198484600082611584575060016104df565b81611591575060006104df565b81600181146115a757600281146115b1576115de565b60019150506104df565b60ff8411156115c2576115c26116aa565b6001841b9150848211156115d8576115d86116aa565b506104df565b5060208310610133831016604e8410600b8410161715611611575081810a8381111561160c5761160c6116aa565b6104df565b61161e8484846001611525565b808604821115611630576116306116aa565b02949350505050565b6000816000190483118215151615611653576116536116aa565b500290565b60008282101561166a5761166a6116aa565b500390565b60028104600182168061168357607f821691505b602082108114156116a457634e487b7160e01b600052602260045260246000fd5b50919050565b634e487b7160e01b600052601160045260246000fdfea26469706673582212209d8a077ea633aa3f52bf7114e81c409647ca31ceb0bc3d99131084bd17ad673f64736f6c63430008000033",
  "linkReferences": {},
  "deployedLinkReferences": {}
}