{
  "_format": "hh-sol-artifact-1",
  "contractName": "ICO",
  "sourceName": "contracts/ICO.sol",
  "abi": [
    {
      "inputs": [],
      "stateMutability": "nonpayable",
      "type": "constructor"
    },
    {
      "anonymous": false,
      "inputs": [
        {
          "indexed": true,
          "internalType": "address",
          "name": "owner",
          "type": "address"
        },
        {
          "indexed": true,
          "internalType": "address",
          "name": "spender",
          "type": "address"
        },
        {
          "indexed": false,
          "internalType": "uint256",
          "name": "value",
          "type": "uint256"
        }
      ],
      "name": "Approval",
      "type": "event"
    },
    {
      "anonymous": false,
      "inputs": [
        {
          "indexed": false,
          "internalType": "address",
          "name": "buyer",
          "type": "address"
        },
        {
          "indexed": false,
          "internalType": "uint256",
          "name": "price",
          "type": "uint256"
        }
      ],
      "name": "Buy",
      "type": "event"
    },
    {
      "anonymous": false,
      "inputs": [
        {
          "indexed": true,
          "internalType": "address",
          "name": "previousOwner",
          "type": "address"
        },
        {
          "indexed": true,
          "internalType": "address",
          "name": "newOwner",
          "type": "address"
        }
      ],
      "name": "OwnershipTransferred",
      "type": "event"
    },
    {
      "anonymous": false,
      "inputs": [
        {
          "indexed": false,
          "internalType": "address",
          "name": "seller",
          "type": "address"
        },
        {
          "indexed": false,
          "internalType": "uint256",
          "name": "price",
          "type": "uint256"
        }
      ],
      "name": "Sell",
      "type": "event"
    },
    {
      "anonymous": false,
      "inputs": [
        {
          "indexed": true,
          "internalType": "address",
          "name": "from",
          "type": "address"
        },
        {
          "indexed": true,
          "internalType": "address",
          "name": "to",
          "type": "address"
        },
        {
          "indexed": false,
          "internalType": "uint256",
          "name": "value",
          "type": "uint256"
        }
      ],
      "name": "Transfer",
      "type": "event"
    },
    {
      "inputs": [
        {
          "internalType": "address",
          "name": "owner",
          "type": "address"
        },
        {
          "internalType": "address",
          "name": "spender",
          "type": "address"
        }
      ],
      "name": "allowance",
      "outputs": [
        {
          "internalType": "uint256",
          "name": "",
          "type": "uint256"
        }
      ],
      "stateMutability": "view",
      "type": "function"
    },
    {
      "inputs": [
        {
          "internalType": "address",
          "name": "spender",
          "type": "address"
        },
        {
          "internalType": "uint256",
          "name": "amount",
          "type": "uint256"
        }
      ],
      "name": "approve",
      "outputs": [
        {
          "internalType": "bool",
          "name": "",
          "type": "bool"
        }
      ],
      "stateMutability": "nonpayable",
      "type": "function"
    },
    {
      "inputs": [
        {
          "internalType": "address",
          "name": "account",
          "type": "address"
        }
      ],
      "name": "balanceOf",
      "outputs": [
        {
          "internalType": "uint256",
          "name": "",
          "type": "uint256"
        }
      ],
      "stateMutability": "view",
      "type": "function"
    },
    {
      "inputs": [
        {
          "internalType": "address",
          "name": "account",
          "type": "address"
        },
        {
          "internalType": "uint256",
          "name": "amount",
          "type": "uint256"
        }
      ],
      "name": "burn",
      "outputs": [
        {
          "internalType": "bool",
          "name": "success",
          "type": "bool"
        }
      ],
      "stateMutability": "nonpayable",
      "type": "function"
    },
    {
      "inputs": [
        {
          "internalType": "uint256",
          "name": "_amountToPurchase",
          "type": "uint256"
        }
      ],
      "name": "buy",
      "outputs": [],
      "stateMutability": "payable",
      "type": "function"
    },
    {
      "inputs": [
        {
          "internalType": "int256",
          "name": "_usdAmount",
          "type": "int256"
        }
      ],
      "name": "computeInitialPriceInAvax",
      "outputs": [
        {
          "internalType": "int256",
          "name": "priceInNAvax",
          "type": "int256"
        }
      ],
      "stateMutability": "view",
      "type": "function"
    },
    {
      "inputs": [],
      "name": "decimals",
      "outputs": [
        {
          "internalType": "uint8",
          "name": "",
          "type": "uint8"
        }
      ],
      "stateMutability": "view",
      "type": "function"
    },
    {
      "inputs": [
        {
          "internalType": "address",
          "name": "spender",
          "type": "address"
        },
        {
          "internalType": "uint256",
          "name": "subtractedValue",
          "type": "uint256"
        }
      ],
      "name": "decreaseAllowance",
      "outputs": [
        {
          "internalType": "bool",
          "name": "",
          "type": "bool"
        }
      ],
      "stateMutability": "nonpayable",
      "type": "function"
    },
    {
      "inputs": [],
      "name": "getLatestPrice",
      "outputs": [
        {
          "internalType": "int256",
          "name": "",
          "type": "int256"
        }
      ],
      "stateMutability": "view",
      "type": "function"
    },
    {
      "inputs": [
        {
          "internalType": "address",
          "name": "spender",
          "type": "address"
        },
        {
          "internalType": "uint256",
          "name": "addedValue",
          "type": "uint256"
        }
      ],
      "name": "increaseAllowance",
      "outputs": [
        {
          "internalType": "bool",
          "name": "",
          "type": "bool"
        }
      ],
      "stateMutability": "nonpayable",
      "type": "function"
    },
    {
      "inputs": [
        {
          "internalType": "address",
          "name": "account",
          "type": "address"
        },
        {
          "internalType": "uint256",
          "name": "amount",
          "type": "uint256"
        }
      ],
      "name": "mint",
      "outputs": [
        {
          "internalType": "bool",
          "name": "sucess",
          "type": "bool"
        }
      ],
      "stateMutability": "nonpayable",
      "type": "function"
    },
    {
      "inputs": [],
      "name": "name",
      "outputs": [
        {
          "internalType": "string",
          "name": "",
          "type": "string"
        }
      ],
      "stateMutability": "view",
      "type": "function"
    },
    {
      "inputs": [],
      "name": "owner",
      "outputs": [
        {
          "internalType": "address",
          "name": "",
          "type": "address"
        }
      ],
      "stateMutability": "view",
      "type": "function"
    },
    {
      "inputs": [],
      "name": "renounceOwnership",
      "outputs": [],
      "stateMutability": "nonpayable",
      "type": "function"
    },
    {
      "inputs": [],
      "name": "symbol",
      "outputs": [
        {
          "internalType": "string",
          "name": "",
          "type": "string"
        }
      ],
      "stateMutability": "view",
      "type": "function"
    },
    {
      "inputs": [],
      "name": "totalSupply",
      "outputs": [
        {
          "internalType": "uint256",
          "name": "",
          "type": "uint256"
        }
      ],
      "stateMutability": "view",
      "type": "function"
    },
    {
      "inputs": [
        {
          "internalType": "address",
          "name": "recipient",
          "type": "address"
        },
        {
          "internalType": "uint256",
          "name": "amount",
          "type": "uint256"
        }
      ],
      "name": "transfer",
      "outputs": [
        {
          "internalType": "bool",
          "name": "",
          "type": "bool"
        }
      ],
      "stateMutability": "nonpayable",
      "type": "function"
    },
    {
      "inputs": [
        {
          "internalType": "address",
          "name": "sender",
          "type": "address"
        },
        {
          "internalType": "address",
          "name": "recipient",
          "type": "address"
        },
        {
          "internalType": "uint256",
          "name": "amount",
          "type": "uint256"
        }
      ],
      "name": "transferFrom",
      "outputs": [
        {
          "internalType": "bool",
          "name": "",
          "type": "bool"
        }
      ],
      "stateMutability": "nonpayable",
      "type": "function"
    },
    {
      "inputs": [
        {
          "internalType": "address",
          "name": "newOwner",
          "type": "address"
        }
      ],
      "name": "transferOwnership",
      "outputs": [],
      "stateMutability": "nonpayable",
      "type": "function"
    },
    {
      "inputs": [
        {
          "internalType": "uint256",
          "name": "amount",
          "type": "uint256"
        }
      ],
      "name": "withdraw",
      "outputs": [
        {
          "internalType": "bool",
          "name": "success",
          "type": "bool"
        }
      ],
      "stateMutability": "nonpayable",
      "type": "function"
    }
  ],
  "bytecode": "0x60806040526305f5e1006008553480156200001957600080fd5b506040805180820182526011815270496e666c75656e63657245636f6e6f6d7960781b6020808301918252835180850190945260048452631253919360e21b9084015281519192916200006f91600391620002ee565b50805162000085906004906020840190620002ee565b505050620000a26200009c6200010960201b60201c565b6200010d565b6001600655600780546001600160a01b031916735498bb86bc934c8d34fda08e81d444153d0d06ad1790556200010233620000dc6200015f565b620000ec9060ff16600a620004b3565b620000fc90630bebc200620005a8565b62000164565b506200061d565b3390565b600580546001600160a01b038381166001600160a01b0319831681179093556040519116919082907f8be0079c531659141344cd1fd0a4f28419497f9722a3daafe3b4186f6b6457e090600090a35050565b601290565b60006200017062000109565b6001600160a01b03166200018362000201565b6001600160a01b031614620001b55760405162461bcd60e51b8152600401620001ac9062000394565b60405180910390fd5b6001600160a01b03831615801590620001cd57508115155b620001ec5760405162461bcd60e51b8152600401620001ac90620003c9565b620001f8838362000210565b50600192915050565b6005546001600160a01b031690565b6001600160a01b038216620002395760405162461bcd60e51b8152600401620001ac906200040b565b6200024760008383620002e9565b80600260008282546200025b91906200044b565b90915550506001600160a01b038216600090815260208190526040812080548392906200028a9084906200044b565b90915550506040516001600160a01b038316906000907fddf252ad1be2c89b69c2b068fc378daa952ba7f163c4a11628f55a4df523b3ef90620002cf90859062000442565b60405180910390a3620002e560008383620002e9565b5050565b505050565b828054620002fc90620005ca565b90600052602060002090601f0160209004810192826200032057600085556200036b565b82601f106200033b57805160ff19168380011785556200036b565b828001600101855582156200036b579182015b828111156200036b5782518255916020019190600101906200034e565b50620003799291506200037d565b5090565b5b808211156200037957600081556001016200037e565b6020808252818101527f4f776e61626c653a2063616c6c6572206973206e6f7420746865206f776e6572604082015260600190565b60208082526022908201527f45524332303a2066756e6374696f6e206d696e7420696e76616c696420696e706040820152611d5d60f21b606082015260800190565b6020808252601f908201527f45524332303a206d696e7420746f20746865207a65726f206164647265737300604082015260600190565b90815260200190565b6000821982111562000461576200046162000607565b500190565b80825b60018086116200047a5750620004aa565b8187048211156200048f576200048f62000607565b808616156200049d57918102915b9490941c93800262000469565b94509492505050565b6000620004c46000198484620004cb565b9392505050565b600082620004dc57506001620004c4565b81620004eb57506000620004c4565b81600181146200050457600281146200050f5762000543565b6001915050620004c4565b60ff84111562000523576200052362000607565b6001841b9150848211156200053c576200053c62000607565b50620004c4565b5060208310610133831016604e8410600b84101617156200057b575081810a8381111562000575576200057562000607565b620004c4565b6200058a848484600162000466565b8086048211156200059f576200059f62000607565b02949350505050565b6000816000190483118215151615620005c557620005c562000607565b500290565b600281046001821680620005df57607f821691505b602082108114156200060157634e487b7160e01b600052602260045260246000fd5b50919050565b634e487b7160e01b600052601160045260246000fd5b6115f4806200062d6000396000f3fe60806040526004361061011e5760003560e01c8063715018a6116100a0578063a457c2d711610064578063a457c2d714610302578063a9059cbb14610322578063d96a094a14610342578063dd62ed3e14610355578063f2fde38b146103755761011e565b8063715018a61461027f5780638da5cb5b146102965780638e15f473146102b857806395d89b41146102cd5780639dc29fac146102e25761011e565b80632e1a7d4d116100e75780632e1a7d4d146101dd578063313ce567146101fd578063395093511461021f57806340c10f191461023f57806370a082311461025f5761011e565b80626b1fd91461012357806306fdde0314610159578063095ea7b31461017b57806318160ddd146101a857806323b872dd146101bd575b600080fd5b34801561012f57600080fd5b5061014361013e366004610f0d565b610395565b6040516101509190610fac565b60405180910390f35b34801561016557600080fd5b5061016e6103d8565b6040516101509190610fb5565b34801561018757600080fd5b5061019b610196366004610ee4565b61046a565b6040516101509190610fa1565b3480156101b457600080fd5b50610143610487565b3480156101c957600080fd5b5061019b6101d8366004610ea9565b61048d565b3480156101e957600080fd5b5061019b6101f8366004610f0d565b610526565b34801561020957600080fd5b506102126105c7565b6040516101509190611454565b34801561022b57600080fd5b5061019b61023a366004610ee4565b6105cc565b34801561024b57600080fd5b5061019b61025a366004610ee4565b610620565b34801561026b57600080fd5b5061014361027a366004610e56565b61069e565b34801561028b57600080fd5b506102946106b9565b005b3480156102a257600080fd5b506102ab610704565b6040516101509190610f74565b3480156102c457600080fd5b50610143610713565b3480156102d957600080fd5b5061016e6107b1565b3480156102ee57600080fd5b5061019b6102fd366004610ee4565b6107c0565b34801561030e57600080fd5b5061019b61031d366004610ee4565b61083e565b34801561032e57600080fd5b5061019b61033d366004610ee4565b6108b7565b610294610350366004610f0d565b6108cb565b34801561036157600080fd5b50610143610370366004610e77565b610997565b34801561038157600080fd5b50610294610390366004610e56565b6109c2565b600060646008546103a4610713565b6103ae919061147a565b6103bc84633b9aca006114b4565b6103c6919061147a565b6103d0919061147a565b90505b919050565b6060600380546103e79061156d565b80601f01602080910402602001604051908101604052809291908181526020018280546104139061156d565b80156104605780601f1061043557610100808354040283529160200191610460565b820191906000526020600020905b81548152906001019060200180831161044357829003601f168201915b5050505050905090565b600061047e610477610a33565b8484610a37565b50600192915050565b60025490565b600061049a848484610aeb565b6001600160a01b0384166000908152600160205260408120816104bb610a33565b6001600160a01b03166001600160a01b03168152602001908152602001600020549050828110156105075760405162461bcd60e51b81526004016104fe9061119f565b60405180910390fd5b61051b85610513610a33565b858403610a37565b506001949350505050565b6000610530610a33565b6001600160a01b0316610541610704565b6001600160a01b0316146105675760405162461bcd60e51b81526004016104fe906111e7565b478211156105875760405162461bcd60e51b81526004016104fe9061108d565b61058f610a33565b6001600160a01b03166108fc839081150290604051600060405180830381858888f1935050505015801561047e573d6000803e3d6000fd5b601290565b600061047e6105d9610a33565b8484600160006105e7610a33565b6001600160a01b03908116825260208083019390935260409182016000908120918b168152925290205461061b9190611462565b610a37565b600061062a610a33565b6001600160a01b031661063b610704565b6001600160a01b0316146106615760405162461bcd60e51b81526004016104fe906111e7565b6001600160a01b0383161580159061067857508115155b6106945760405162461bcd60e51b81526004016104fe90611253565b61047e8383610c15565b6001600160a01b031660009081526020819052604090205490565b6106c1610a33565b6001600160a01b03166106d2610704565b6001600160a01b0316146106f85760405162461bcd60e51b81526004016104fe906111e7565b6107026000610ce1565b565b6005546001600160a01b031690565b600080600080600080600760009054906101000a90046001600160a01b03166001600160a01b031663feaf968c6040518163ffffffff1660e01b815260040160a06040518083038186803b15801561076a57600080fd5b505afa15801561077e573d6000803e3d6000fd5b505050506040513d601f19601f820116820180604052508101906107a29190610f25565b50919850505050505050505090565b6060600480546103e79061156d565b60006107ca610a33565b6001600160a01b03166107db610704565b6001600160a01b0316146108015760405162461bcd60e51b81526004016104fe906111e7565b6001600160a01b0383161580159061081857508115155b6108345760405162461bcd60e51b81526004016104fe9061131b565b61047e8383610d33565b6000806001600061084d610a33565b6001600160a01b03908116825260208083019390935260409182016000908120918816815292529020549050828110156108995760405162461bcd60e51b81526004016104fe906113d8565b6108ad6108a4610a33565b85858403610a37565b5060019392505050565b600061047e6108c4610a33565b8484610aeb565b600260065414156108ee5760405162461bcd60e51b81526004016104fe906113a1565b600260065560006108ff6005610395565b9050600061090d8383611537565b90503331811180159061091f57508015155b61093b5760405162461bcd60e51b81526004016104fe9061121c565b610954610946610704565b61094e610a33565b83610aeb565b7fe3d4187f6ca4248660cc0ac8b8056515bac4a8132be2eca31d6d0cc170722a7e3384604051610985929190610f88565b60405180910390a15050600160065550565b6001600160a01b03918216600090815260016020908152604080832093909416825291909152205490565b6109ca610a33565b6001600160a01b03166109db610704565b6001600160a01b031614610a015760405162461bcd60e51b81526004016104fe906111e7565b6001600160a01b038116610a275760405162461bcd60e51b81526004016104fe906110d1565b610a3081610ce1565b50565b3390565b6001600160a01b038316610a5d5760405162461bcd60e51b81526004016104fe9061135d565b6001600160a01b038216610a835760405162461bcd60e51b81526004016104fe90611117565b6001600160a01b0380841660008181526001602090815260408083209487168084529490915290819020849055517f8c5be1e5ebec7d5bd14f71427d1e84f3dd0314c0f7b2291e5b200ac8c7c3b92590610ade908590610fac565b60405180910390a3505050565b6001600160a01b038316610b115760405162461bcd60e51b81526004016104fe906112d6565b6001600160a01b038216610b375760405162461bcd60e51b81526004016104fe90611008565b610b42838383610e20565b6001600160a01b03831660009081526020819052604090205481811015610b7b5760405162461bcd60e51b81526004016104fe90611159565b6001600160a01b03808516600090815260208190526040808220858503905591851681529081208054849290610bb2908490611462565b92505081905550826001600160a01b0316846001600160a01b03167fddf252ad1be2c89b69c2b068fc378daa952ba7f163c4a11628f55a4df523b3ef84604051610bfc9190610fac565b60405180910390a3610c0f848484610e20565b50505050565b6001600160a01b038216610c3b5760405162461bcd60e51b81526004016104fe9061141d565b610c4760008383610e20565b8060026000828254610c599190611462565b90915550506001600160a01b03821660009081526020819052604081208054839290610c86908490611462565b90915550506040516001600160a01b038316906000907fddf252ad1be2c89b69c2b068fc378daa952ba7f163c4a11628f55a4df523b3ef90610cc9908590610fac565b60405180910390a3610cdd60008383610e20565b5050565b600580546001600160a01b038381166001600160a01b0319831681179093556040519116919082907f8be0079c531659141344cd1fd0a4f28419497f9722a3daafe3b4186f6b6457e090600090a35050565b6001600160a01b038216610d595760405162461bcd60e51b81526004016104fe90611295565b610d6582600083610e20565b6001600160a01b03821660009081526020819052604090205481811015610d9e5760405162461bcd60e51b81526004016104fe9061104b565b6001600160a01b0383166000908152602081905260408120838303905560028054849290610dcd908490611556565b90915550506040516000906001600160a01b038516907fddf252ad1be2c89b69c2b068fc378daa952ba7f163c4a11628f55a4df523b3ef90610e10908690610fac565b60405180910390a3610e20836000845b505050565b80356001600160a01b03811681146103d357600080fd5b805169ffffffffffffffffffff811681146103d357600080fd5b600060208284031215610e67578081fd5b610e7082610e25565b9392505050565b60008060408385031215610e89578081fd5b610e9283610e25565b9150610ea060208401610e25565b90509250929050565b600080600060608486031215610ebd578081fd5b610ec684610e25565b9250610ed460208501610e25565b9150604084013590509250925092565b60008060408385031215610ef6578182fd5b610eff83610e25565b946020939093013593505050565b600060208284031215610f1e578081fd5b5035919050565b600080600080600060a08688031215610f3c578081fd5b610f4586610e3c565b9450602086015193506040860151925060608601519150610f6860808701610e3c565b90509295509295909350565b6001600160a01b0391909116815260200190565b6001600160a01b03929092168252602082015260400190565b901515815260200190565b90815260200190565b6000602080835283518082850152825b81811015610fe157858101830151858201604001528201610fc5565b81811115610ff25783604083870101525b50601f01601f1916929092016040019392505050565b60208082526023908201527f45524332303a207472616e7366657220746f20746865207a65726f206164647260408201526265737360e81b606082015260800190565b60208082526022908201527f45524332303a206275726e20616d6f756e7420657863656564732062616c616e604082015261636560f01b606082015260800190565b60208082526024908201527f49434f3a2066756e6374696f6e20776974686472617720696e76616c696420696040820152631b9c1d5d60e21b606082015260800190565b60208082526026908201527f4f776e61626c653a206e6577206f776e657220697320746865207a65726f206160408201526564647265737360d01b606082015260800190565b60208082526022908201527f45524332303a20617070726f766520746f20746865207a65726f206164647265604082015261737360f01b606082015260800190565b60208082526026908201527f45524332303a207472616e7366657220616d6f756e7420657863656564732062604082015265616c616e636560d01b606082015260800190565b60208082526028908201527f45524332303a207472616e7366657220616d6f756e74206578636565647320616040820152676c6c6f77616e636560c01b606082015260800190565b6020808252818101527f4f776e61626c653a2063616c6c6572206973206e6f7420746865206f776e6572604082015260600190565b6020808252601f908201527f49434f3a2066756e6374696f6e2062757920696e76616c696420696e70757400604082015260600190565b60208082526022908201527f45524332303a2066756e6374696f6e206d696e7420696e76616c696420696e706040820152611d5d60f21b606082015260800190565b60208082526021908201527f45524332303a206275726e2066726f6d20746865207a65726f206164647265736040820152607360f81b606082015260800190565b60208082526025908201527f45524332303a207472616e736665722066726f6d20746865207a65726f206164604082015264647265737360d81b606082015260800190565b60208082526022908201527f45524332303a2066756e6374696f6e206275726e20696e76616c696420696e706040820152611d5d60f21b606082015260800190565b60208082526024908201527f45524332303a20617070726f76652066726f6d20746865207a65726f206164646040820152637265737360e01b606082015260800190565b6020808252601f908201527f5265656e7472616e637947756172643a207265656e7472616e742063616c6c00604082015260600190565b60208082526025908201527f45524332303a2064656372656173656420616c6c6f77616e63652062656c6f77604082015264207a65726f60d81b606082015260800190565b6020808252601f908201527f45524332303a206d696e7420746f20746865207a65726f206164647265737300604082015260600190565b60ff91909116815260200190565b60008219821115611475576114756115a8565b500190565b60008261149557634e487b7160e01b81526012600452602481fd5b600160ff1b8214600019841416156114af576114af6115a8565b500590565b60006001600160ff1b03818413828413808216868404861116156114da576114da6115a8565b600160ff1b848712828116878305891216156114f8576114f86115a8565b858712925087820587128484161615611513576115136115a8565b87850587128184161615611529576115296115a8565b505050929093029392505050565b6000816000190483118215151615611551576115516115a8565b500290565b600082821015611568576115686115a8565b500390565b60028104600182168061158157607f821691505b602082108114156115a257634e487b7160e01b600052602260045260246000fd5b50919050565b634e487b7160e01b600052601160045260246000fdfea2646970667358221220f2ca4b4d4b98f4ac7f34096d9f6151a807acf846e2f92588919e64e5a6f570c364736f6c63430008000033",
  "linkReferences": {},
  "deployedLinkReferences": {}
}