{
  "_format": "hh-sol-artifact-1",
  "contractName": "ICO",
  "sourceName": "contracts/ICO.sol",
  "abi": [
    {
      "inputs": [],
      "stateMutability": "nonpayable",
      "type": "constructor"
    },
    {
      "anonymous": false,
      "inputs": [
        {
          "indexed": true,
          "internalType": "address",
          "name": "owner",
          "type": "address"
        },
        {
          "indexed": true,
          "internalType": "address",
          "name": "spender",
          "type": "address"
        },
        {
          "indexed": false,
          "internalType": "uint256",
          "name": "value",
          "type": "uint256"
        }
      ],
      "name": "Approval",
      "type": "event"
    },
    {
      "anonymous": false,
      "inputs": [
        {
          "indexed": false,
          "internalType": "address",
          "name": "buyer",
          "type": "address"
        },
        {
          "indexed": false,
          "internalType": "uint256",
          "name": "price",
          "type": "uint256"
        }
      ],
      "name": "Buy",
      "type": "event"
    },
    {
      "anonymous": false,
      "inputs": [
        {
          "indexed": true,
          "internalType": "address",
          "name": "previousOwner",
          "type": "address"
        },
        {
          "indexed": true,
          "internalType": "address",
          "name": "newOwner",
          "type": "address"
        }
      ],
      "name": "OwnershipTransferred",
      "type": "event"
    },
    {
      "anonymous": false,
      "inputs": [
        {
          "indexed": false,
          "internalType": "address",
          "name": "seller",
          "type": "address"
        },
        {
          "indexed": false,
          "internalType": "uint256",
          "name": "price",
          "type": "uint256"
        }
      ],
      "name": "Sell",
      "type": "event"
    },
    {
      "anonymous": false,
      "inputs": [
        {
          "indexed": true,
          "internalType": "address",
          "name": "from",
          "type": "address"
        },
        {
          "indexed": true,
          "internalType": "address",
          "name": "to",
          "type": "address"
        },
        {
          "indexed": false,
          "internalType": "uint256",
          "name": "value",
          "type": "uint256"
        }
      ],
      "name": "Transfer",
      "type": "event"
    },
    {
      "inputs": [
        {
          "internalType": "address",
          "name": "owner",
          "type": "address"
        },
        {
          "internalType": "address",
          "name": "spender",
          "type": "address"
        }
      ],
      "name": "allowance",
      "outputs": [
        {
          "internalType": "uint256",
          "name": "",
          "type": "uint256"
        }
      ],
      "stateMutability": "view",
      "type": "function"
    },
    {
      "inputs": [
        {
          "internalType": "address",
          "name": "spender",
          "type": "address"
        },
        {
          "internalType": "uint256",
          "name": "amount",
          "type": "uint256"
        }
      ],
      "name": "approve",
      "outputs": [
        {
          "internalType": "bool",
          "name": "",
          "type": "bool"
        }
      ],
      "stateMutability": "nonpayable",
      "type": "function"
    },
    {
      "inputs": [
        {
          "internalType": "address",
          "name": "account",
          "type": "address"
        }
      ],
      "name": "balanceOf",
      "outputs": [
        {
          "internalType": "uint256",
          "name": "",
          "type": "uint256"
        }
      ],
      "stateMutability": "view",
      "type": "function"
    },
    {
      "inputs": [
        {
          "internalType": "address",
          "name": "account",
          "type": "address"
        },
        {
          "internalType": "uint256",
          "name": "amount",
          "type": "uint256"
        }
      ],
      "name": "burn",
      "outputs": [
        {
          "internalType": "bool",
          "name": "success",
          "type": "bool"
        }
      ],
      "stateMutability": "nonpayable",
      "type": "function"
    },
    {
      "inputs": [
        {
          "internalType": "uint256",
          "name": "_amountToPurchase",
          "type": "uint256"
        }
      ],
      "name": "buy",
      "outputs": [],
      "stateMutability": "payable",
      "type": "function"
    },
    {
      "inputs": [
        {
          "internalType": "int256",
          "name": "_usdAmount",
          "type": "int256"
        }
      ],
      "name": "computeInitialPriceInEth",
      "outputs": [
        {
          "internalType": "int256",
          "name": "priceInWei",
          "type": "int256"
        }
      ],
      "stateMutability": "view",
      "type": "function"
    },
    {
      "inputs": [],
      "name": "decimals",
      "outputs": [
        {
          "internalType": "uint8",
          "name": "",
          "type": "uint8"
        }
      ],
      "stateMutability": "view",
      "type": "function"
    },
    {
      "inputs": [
        {
          "internalType": "address",
          "name": "spender",
          "type": "address"
        },
        {
          "internalType": "uint256",
          "name": "subtractedValue",
          "type": "uint256"
        }
      ],
      "name": "decreaseAllowance",
      "outputs": [
        {
          "internalType": "bool",
          "name": "",
          "type": "bool"
        }
      ],
      "stateMutability": "nonpayable",
      "type": "function"
    },
    {
      "inputs": [],
      "name": "getLatestPrice",
      "outputs": [
        {
          "internalType": "int256",
          "name": "",
          "type": "int256"
        }
      ],
      "stateMutability": "view",
      "type": "function"
    },
    {
      "inputs": [
        {
          "internalType": "address",
          "name": "spender",
          "type": "address"
        },
        {
          "internalType": "uint256",
          "name": "addedValue",
          "type": "uint256"
        }
      ],
      "name": "increaseAllowance",
      "outputs": [
        {
          "internalType": "bool",
          "name": "",
          "type": "bool"
        }
      ],
      "stateMutability": "nonpayable",
      "type": "function"
    },
    {
      "inputs": [
        {
          "internalType": "address",
          "name": "account",
          "type": "address"
        },
        {
          "internalType": "uint256",
          "name": "amount",
          "type": "uint256"
        }
      ],
      "name": "mint",
      "outputs": [
        {
          "internalType": "bool",
          "name": "sucess",
          "type": "bool"
        }
      ],
      "stateMutability": "nonpayable",
      "type": "function"
    },
    {
      "inputs": [],
      "name": "name",
      "outputs": [
        {
          "internalType": "string",
          "name": "",
          "type": "string"
        }
      ],
      "stateMutability": "view",
      "type": "function"
    },
    {
      "inputs": [],
      "name": "owner",
      "outputs": [
        {
          "internalType": "address",
          "name": "",
          "type": "address"
        }
      ],
      "stateMutability": "view",
      "type": "function"
    },
    {
      "inputs": [],
      "name": "renounceOwnership",
      "outputs": [],
      "stateMutability": "nonpayable",
      "type": "function"
    },
    {
      "inputs": [],
      "name": "symbol",
      "outputs": [
        {
          "internalType": "string",
          "name": "",
          "type": "string"
        }
      ],
      "stateMutability": "view",
      "type": "function"
    },
    {
      "inputs": [],
      "name": "totalSupply",
      "outputs": [
        {
          "internalType": "uint256",
          "name": "",
          "type": "uint256"
        }
      ],
      "stateMutability": "view",
      "type": "function"
    },
    {
      "inputs": [
        {
          "internalType": "address",
          "name": "recipient",
          "type": "address"
        },
        {
          "internalType": "uint256",
          "name": "amount",
          "type": "uint256"
        }
      ],
      "name": "transfer",
      "outputs": [
        {
          "internalType": "bool",
          "name": "",
          "type": "bool"
        }
      ],
      "stateMutability": "nonpayable",
      "type": "function"
    },
    {
      "inputs": [
        {
          "internalType": "address",
          "name": "sender",
          "type": "address"
        },
        {
          "internalType": "address",
          "name": "recipient",
          "type": "address"
        },
        {
          "internalType": "uint256",
          "name": "amount",
          "type": "uint256"
        }
      ],
      "name": "transferFrom",
      "outputs": [
        {
          "internalType": "bool",
          "name": "",
          "type": "bool"
        }
      ],
      "stateMutability": "nonpayable",
      "type": "function"
    },
    {
      "inputs": [
        {
          "internalType": "address",
          "name": "newOwner",
          "type": "address"
        }
      ],
      "name": "transferOwnership",
      "outputs": [],
      "stateMutability": "nonpayable",
      "type": "function"
    },
    {
      "inputs": [
        {
          "internalType": "uint256",
          "name": "amount",
          "type": "uint256"
        }
      ],
      "name": "withdraw",
      "outputs": [
        {
          "internalType": "bool",
          "name": "success",
          "type": "bool"
        }
      ],
      "stateMutability": "nonpayable",
      "type": "function"
    }
  ],
  "bytecode": "0x60806040526305f5e1006008553480156200001957600080fd5b506040805180820182526011815270496e666c75656e63657245636f6e6f6d7960781b6020808301918252835180850190945260048452631253919360e21b9084015281519192916200006f91600391620002ee565b50805162000085906004906020840190620002ee565b505050620000a26200009c6200010960201b60201c565b6200010d565b6001600655600780546001600160a01b0319167386d67c3d38d2bcee722e601025c25a575021c6ea1790556200010233620000dc6200015f565b620000ec9060ff16600a620004b3565b620000fc90630bebc200620005a8565b62000164565b506200061d565b3390565b600580546001600160a01b038381166001600160a01b0319831681179093556040519116919082907f8be0079c531659141344cd1fd0a4f28419497f9722a3daafe3b4186f6b6457e090600090a35050565b601290565b60006200017062000109565b6001600160a01b03166200018362000201565b6001600160a01b031614620001b55760405162461bcd60e51b8152600401620001ac9062000394565b60405180910390fd5b6001600160a01b03831615801590620001cd57508115155b620001ec5760405162461bcd60e51b8152600401620001ac90620003c9565b620001f8838362000210565b50600192915050565b6005546001600160a01b031690565b6001600160a01b038216620002395760405162461bcd60e51b8152600401620001ac906200040b565b6200024760008383620002e9565b80600260008282546200025b91906200044b565b90915550506001600160a01b038216600090815260208190526040812080548392906200028a9084906200044b565b90915550506040516001600160a01b038316906000907fddf252ad1be2c89b69c2b068fc378daa952ba7f163c4a11628f55a4df523b3ef90620002cf90859062000442565b60405180910390a3620002e560008383620002e9565b5050565b505050565b828054620002fc90620005ca565b90600052602060002090601f0160209004810192826200032057600085556200036b565b82601f106200033b57805160ff19168380011785556200036b565b828001600101855582156200036b579182015b828111156200036b5782518255916020019190600101906200034e565b50620003799291506200037d565b5090565b5b808211156200037957600081556001016200037e565b6020808252818101527f4f776e61626c653a2063616c6c6572206973206e6f7420746865206f776e6572604082015260600190565b60208082526022908201527f45524332303a2066756e6374696f6e206d696e7420696e76616c696420696e706040820152611d5d60f21b606082015260800190565b6020808252601f908201527f45524332303a206d696e7420746f20746865207a65726f206164647265737300604082015260600190565b90815260200190565b6000821982111562000461576200046162000607565b500190565b80825b60018086116200047a5750620004aa565b8187048211156200048f576200048f62000607565b808616156200049d57918102915b9490941c93800262000469565b94509492505050565b6000620004c46000198484620004cb565b9392505050565b600082620004dc57506001620004c4565b81620004eb57506000620004c4565b81600181146200050457600281146200050f5762000543565b6001915050620004c4565b60ff84111562000523576200052362000607565b6001841b9150848211156200053c576200053c62000607565b50620004c4565b5060208310610133831016604e8410600b84101617156200057b575081810a8381111562000575576200057562000607565b620004c4565b6200058a848484600162000466565b8086048211156200059f576200059f62000607565b02949350505050565b6000816000190483118215151615620005c557620005c562000607565b500290565b600281046001821680620005df57607f821691505b602082108114156200060157634e487b7160e01b600052602260045260246000fd5b50919050565b634e487b7160e01b600052601160045260246000fd5b611602806200062d6000396000f3fe60806040526004361061011f5760003560e01c806376b59a45116100a0578063a457c2d711610064578063a457c2d714610303578063a9059cbb14610323578063d96a094a14610343578063dd62ed3e14610356578063f2fde38b146103765761011f565b806376b59a45146102775780638da5cb5b146102975780638e15f473146102b957806395d89b41146102ce5780639dc29fac146102e35761011f565b8063313ce567116100e7578063313ce567146101de578063395093511461020057806340c10f191461022057806370a0823114610240578063715018a6146102605761011f565b806306fdde0314610124578063095ea7b31461014f57806318160ddd1461017c57806323b872dd1461019e5780632e1a7d4d146101be575b600080fd5b34801561013057600080fd5b50610139610396565b6040516101469190610fc3565b60405180910390f35b34801561015b57600080fd5b5061016f61016a366004610ef2565b610428565b6040516101469190610faf565b34801561018857600080fd5b50610191610445565b6040516101469190610fba565b3480156101aa57600080fd5b5061016f6101b9366004610eb7565b61044b565b3480156101ca57600080fd5b5061016f6101d9366004610f1b565b6104e4565b3480156101ea57600080fd5b506101f3610590565b6040516101469190611462565b34801561020c57600080fd5b5061016f61021b366004610ef2565b610595565b34801561022c57600080fd5b5061016f61023b366004610ef2565b6105e9565b34801561024c57600080fd5b5061019161025b366004610e64565b610667565b34801561026c57600080fd5b50610275610682565b005b34801561028357600080fd5b50610191610292366004610f1b565b6106cd565b3480156102a357600080fd5b506102ac610712565b6040516101469190610f82565b3480156102c557600080fd5b50610191610721565b3480156102da57600080fd5b506101396107bf565b3480156102ef57600080fd5b5061016f6102fe366004610ef2565b6107ce565b34801561030f57600080fd5b5061016f61031e366004610ef2565b61084c565b34801561032f57600080fd5b5061016f61033e366004610ef2565b6108c5565b610275610351366004610f1b565b6108d9565b34801561036257600080fd5b50610191610371366004610e85565b6109a5565b34801561038257600080fd5b50610275610391366004610e64565b6109d0565b6060600380546103a59061157b565b80601f01602080910402602001604051908101604052809291908181526020018280546103d19061157b565b801561041e5780601f106103f35761010080835404028352916020019161041e565b820191906000526020600020905b81548152906001019060200180831161040157829003601f168201915b5050505050905090565b600061043c610435610a41565b8484610a45565b50600192915050565b60025490565b6000610458848484610af9565b6001600160a01b038416600090815260016020526040812081610479610a41565b6001600160a01b03166001600160a01b03168152602001908152602001600020549050828110156104c55760405162461bcd60e51b81526004016104bc906111ad565b60405180910390fd5b6104d9856104d1610a41565b858403610a45565b506001949350505050565b60006104ee610a41565b6001600160a01b03166104ff610712565b6001600160a01b0316146105255760405162461bcd60e51b81526004016104bc906111f5565b478211156105455760405162461bcd60e51b81526004016104bc9061109b565b61054d610a41565b6001600160a01b03166108fc839081150290604051600060405180830381858888f19350505050158015610585573d6000803e3d6000fd5b50600190505b919050565b601290565b600061043c6105a2610a41565b8484600160006105b0610a41565b6001600160a01b03908116825260208083019390935260409182016000908120918b16815292529020546105e49190611470565b610a45565b60006105f3610a41565b6001600160a01b0316610604610712565b6001600160a01b03161461062a5760405162461bcd60e51b81526004016104bc906111f5565b6001600160a01b0383161580159061064157508115155b61065d5760405162461bcd60e51b81526004016104bc90611261565b61043c8383610c23565b6001600160a01b031660009081526020819052604090205490565b61068a610a41565b6001600160a01b031661069b610712565b6001600160a01b0316146106c15760405162461bcd60e51b81526004016104bc906111f5565b6106cb6000610cef565b565b600060646008546106dc610721565b6106e69190611488565b6106f884670de0b6b3a76400006114c2565b6107029190611488565b61070c9190611488565b92915050565b6005546001600160a01b031690565b600080600080600080600760009054906101000a90046001600160a01b03166001600160a01b031663feaf968c6040518163ffffffff1660e01b815260040160a06040518083038186803b15801561077857600080fd5b505afa15801561078c573d6000803e3d6000fd5b505050506040513d601f19601f820116820180604052508101906107b09190610f33565b50919850505050505050505090565b6060600480546103a59061157b565b60006107d8610a41565b6001600160a01b03166107e9610712565b6001600160a01b03161461080f5760405162461bcd60e51b81526004016104bc906111f5565b6001600160a01b0383161580159061082657508115155b6108425760405162461bcd60e51b81526004016104bc90611329565b61043c8383610d41565b6000806001600061085b610a41565b6001600160a01b03908116825260208083019390935260409182016000908120918816815292529020549050828110156108a75760405162461bcd60e51b81526004016104bc906113e6565b6108bb6108b2610a41565b85858403610a45565b5060019392505050565b600061043c6108d2610a41565b8484610af9565b600260065414156108fc5760405162461bcd60e51b81526004016104bc906113af565b6002600655600061090d60056106cd565b9050600061091b8383611545565b90503331811180159061092d57508015155b6109495760405162461bcd60e51b81526004016104bc9061122a565b610962610954610712565b61095c610a41565b83610af9565b7fe3d4187f6ca4248660cc0ac8b8056515bac4a8132be2eca31d6d0cc170722a7e3384604051610993929190610f96565b60405180910390a15050600160065550565b6001600160a01b03918216600090815260016020908152604080832093909416825291909152205490565b6109d8610a41565b6001600160a01b03166109e9610712565b6001600160a01b031614610a0f5760405162461bcd60e51b81526004016104bc906111f5565b6001600160a01b038116610a355760405162461bcd60e51b81526004016104bc906110df565b610a3e81610cef565b50565b3390565b6001600160a01b038316610a6b5760405162461bcd60e51b81526004016104bc9061136b565b6001600160a01b038216610a915760405162461bcd60e51b81526004016104bc90611125565b6001600160a01b0380841660008181526001602090815260408083209487168084529490915290819020849055517f8c5be1e5ebec7d5bd14f71427d1e84f3dd0314c0f7b2291e5b200ac8c7c3b92590610aec908590610fba565b60405180910390a3505050565b6001600160a01b038316610b1f5760405162461bcd60e51b81526004016104bc906112e4565b6001600160a01b038216610b455760405162461bcd60e51b81526004016104bc90611016565b610b50838383610e2e565b6001600160a01b03831660009081526020819052604090205481811015610b895760405162461bcd60e51b81526004016104bc90611167565b6001600160a01b03808516600090815260208190526040808220858503905591851681529081208054849290610bc0908490611470565b92505081905550826001600160a01b0316846001600160a01b03167fddf252ad1be2c89b69c2b068fc378daa952ba7f163c4a11628f55a4df523b3ef84604051610c0a9190610fba565b60405180910390a3610c1d848484610e2e565b50505050565b6001600160a01b038216610c495760405162461bcd60e51b81526004016104bc9061142b565b610c5560008383610e2e565b8060026000828254610c679190611470565b90915550506001600160a01b03821660009081526020819052604081208054839290610c94908490611470565b90915550506040516001600160a01b038316906000907fddf252ad1be2c89b69c2b068fc378daa952ba7f163c4a11628f55a4df523b3ef90610cd7908590610fba565b60405180910390a3610ceb60008383610e2e565b5050565b600580546001600160a01b038381166001600160a01b0319831681179093556040519116919082907f8be0079c531659141344cd1fd0a4f28419497f9722a3daafe3b4186f6b6457e090600090a35050565b6001600160a01b038216610d675760405162461bcd60e51b81526004016104bc906112a3565b610d7382600083610e2e565b6001600160a01b03821660009081526020819052604090205481811015610dac5760405162461bcd60e51b81526004016104bc90611059565b6001600160a01b0383166000908152602081905260408120838303905560028054849290610ddb908490611564565b90915550506040516000906001600160a01b038516907fddf252ad1be2c89b69c2b068fc378daa952ba7f163c4a11628f55a4df523b3ef90610e1e908690610fba565b60405180910390a3610e2e836000845b505050565b80356001600160a01b038116811461058b57600080fd5b805169ffffffffffffffffffff8116811461058b57600080fd5b600060208284031215610e75578081fd5b610e7e82610e33565b9392505050565b60008060408385031215610e97578081fd5b610ea083610e33565b9150610eae60208401610e33565b90509250929050565b600080600060608486031215610ecb578081fd5b610ed484610e33565b9250610ee260208501610e33565b9150604084013590509250925092565b60008060408385031215610f04578182fd5b610f0d83610e33565b946020939093013593505050565b600060208284031215610f2c578081fd5b5035919050565b600080600080600060a08688031215610f4a578081fd5b610f5386610e4a565b9450602086015193506040860151925060608601519150610f7660808701610e4a565b90509295509295909350565b6001600160a01b0391909116815260200190565b6001600160a01b03929092168252602082015260400190565b901515815260200190565b90815260200190565b6000602080835283518082850152825b81811015610fef57858101830151858201604001528201610fd3565b818111156110005783604083870101525b50601f01601f1916929092016040019392505050565b60208082526023908201527f45524332303a207472616e7366657220746f20746865207a65726f206164647260408201526265737360e81b606082015260800190565b60208082526022908201527f45524332303a206275726e20616d6f756e7420657863656564732062616c616e604082015261636560f01b606082015260800190565b60208082526024908201527f49434f3a2066756e6374696f6e20776974686472617720696e76616c696420696040820152631b9c1d5d60e21b606082015260800190565b60208082526026908201527f4f776e61626c653a206e6577206f776e657220697320746865207a65726f206160408201526564647265737360d01b606082015260800190565b60208082526022908201527f45524332303a20617070726f766520746f20746865207a65726f206164647265604082015261737360f01b606082015260800190565b60208082526026908201527f45524332303a207472616e7366657220616d6f756e7420657863656564732062604082015265616c616e636560d01b606082015260800190565b60208082526028908201527f45524332303a207472616e7366657220616d6f756e74206578636565647320616040820152676c6c6f77616e636560c01b606082015260800190565b6020808252818101527f4f776e61626c653a2063616c6c6572206973206e6f7420746865206f776e6572604082015260600190565b6020808252601f908201527f49434f3a2066756e6374696f6e2062757920696e76616c696420696e70757400604082015260600190565b60208082526022908201527f45524332303a2066756e6374696f6e206d696e7420696e76616c696420696e706040820152611d5d60f21b606082015260800190565b60208082526021908201527f45524332303a206275726e2066726f6d20746865207a65726f206164647265736040820152607360f81b606082015260800190565b60208082526025908201527f45524332303a207472616e736665722066726f6d20746865207a65726f206164604082015264647265737360d81b606082015260800190565b60208082526022908201527f45524332303a2066756e6374696f6e206275726e20696e76616c696420696e706040820152611d5d60f21b606082015260800190565b60208082526024908201527f45524332303a20617070726f76652066726f6d20746865207a65726f206164646040820152637265737360e01b606082015260800190565b6020808252601f908201527f5265656e7472616e637947756172643a207265656e7472616e742063616c6c00604082015260600190565b60208082526025908201527f45524332303a2064656372656173656420616c6c6f77616e63652062656c6f77604082015264207a65726f60d81b606082015260800190565b6020808252601f908201527f45524332303a206d696e7420746f20746865207a65726f206164647265737300604082015260600190565b60ff91909116815260200190565b60008219821115611483576114836115b6565b500190565b6000826114a357634e487b7160e01b81526012600452602481fd5b600160ff1b8214600019841416156114bd576114bd6115b6565b500590565b60006001600160ff1b03818413828413808216868404861116156114e8576114e86115b6565b600160ff1b84871282811687830589121615611506576115066115b6565b858712925087820587128484161615611521576115216115b6565b87850587128184161615611537576115376115b6565b505050929093029392505050565b600081600019048311821515161561155f5761155f6115b6565b500290565b600082821015611576576115766115b6565b500390565b60028104600182168061158f57607f821691505b602082108114156115b057634e487b7160e01b600052602260045260246000fd5b50919050565b634e487b7160e01b600052601160045260246000fdfea264697066735822122091810102bfdf78bffa88f4c1c0ab4003e597a391041eaf4f75429bb24066287664736f6c63430008000033",
  "linkReferences": {},
  "deployedLinkReferences": {}
}