{
  "_format": "hh-sol-artifact-1",
  "contractName": "ICO",
  "sourceName": "contracts/ICO.sol",
  "abi": [
    {
      "inputs": [],
      "stateMutability": "nonpayable",
      "type": "constructor"
    },
    {
      "anonymous": false,
      "inputs": [
        {
          "indexed": true,
          "internalType": "address",
          "name": "owner",
          "type": "address"
        },
        {
          "indexed": true,
          "internalType": "address",
          "name": "spender",
          "type": "address"
        },
        {
          "indexed": false,
          "internalType": "uint256",
          "name": "value",
          "type": "uint256"
        }
      ],
      "name": "Approval",
      "type": "event"
    },
    {
      "anonymous": false,
      "inputs": [
        {
          "indexed": false,
          "internalType": "address",
          "name": "buyer",
          "type": "address"
        },
        {
          "indexed": false,
          "internalType": "uint256",
          "name": "price",
          "type": "uint256"
        }
      ],
      "name": "Buy",
      "type": "event"
    },
    {
      "anonymous": false,
      "inputs": [
        {
          "indexed": true,
          "internalType": "address",
          "name": "previousOwner",
          "type": "address"
        },
        {
          "indexed": true,
          "internalType": "address",
          "name": "newOwner",
          "type": "address"
        }
      ],
      "name": "OwnershipTransferred",
      "type": "event"
    },
    {
      "anonymous": false,
      "inputs": [
        {
          "indexed": false,
          "internalType": "address",
          "name": "seller",
          "type": "address"
        },
        {
          "indexed": false,
          "internalType": "uint256",
          "name": "price",
          "type": "uint256"
        }
      ],
      "name": "Sell",
      "type": "event"
    },
    {
      "anonymous": false,
      "inputs": [
        {
          "indexed": true,
          "internalType": "address",
          "name": "from",
          "type": "address"
        },
        {
          "indexed": true,
          "internalType": "address",
          "name": "to",
          "type": "address"
        },
        {
          "indexed": false,
          "internalType": "uint256",
          "name": "value",
          "type": "uint256"
        }
      ],
      "name": "Transfer",
      "type": "event"
    },
    {
      "inputs": [
        {
          "internalType": "address",
          "name": "owner",
          "type": "address"
        },
        {
          "internalType": "address",
          "name": "spender",
          "type": "address"
        }
      ],
      "name": "allowance",
      "outputs": [
        {
          "internalType": "uint256",
          "name": "",
          "type": "uint256"
        }
      ],
      "stateMutability": "view",
      "type": "function"
    },
    {
      "inputs": [
        {
          "internalType": "address",
          "name": "spender",
          "type": "address"
        },
        {
          "internalType": "uint256",
          "name": "amount",
          "type": "uint256"
        }
      ],
      "name": "approve",
      "outputs": [
        {
          "internalType": "bool",
          "name": "",
          "type": "bool"
        }
      ],
      "stateMutability": "nonpayable",
      "type": "function"
    },
    {
      "inputs": [
        {
          "internalType": "address",
          "name": "_treasury",
          "type": "address"
        }
      ],
      "name": "approveTreasurySpend",
      "outputs": [],
      "stateMutability": "nonpayable",
      "type": "function"
    },
    {
      "inputs": [
        {
          "internalType": "address",
          "name": "account",
          "type": "address"
        }
      ],
      "name": "balanceOf",
      "outputs": [
        {
          "internalType": "uint256",
          "name": "",
          "type": "uint256"
        }
      ],
      "stateMutability": "view",
      "type": "function"
    },
    {
      "inputs": [
        {
          "internalType": "address",
          "name": "account",
          "type": "address"
        },
        {
          "internalType": "uint256",
          "name": "amount",
          "type": "uint256"
        }
      ],
      "name": "burn",
      "outputs": [
        {
          "internalType": "bool",
          "name": "success",
          "type": "bool"
        }
      ],
      "stateMutability": "nonpayable",
      "type": "function"
    },
    {
      "inputs": [
        {
          "internalType": "uint256",
          "name": "_amountToPurchase",
          "type": "uint256"
        }
      ],
      "name": "buy",
      "outputs": [],
      "stateMutability": "payable",
      "type": "function"
    },
    {
      "inputs": [
        {
          "internalType": "int256",
          "name": "_usdAmount",
          "type": "int256"
        }
      ],
      "name": "computeInitialPriceInAvax",
      "outputs": [
        {
          "internalType": "int256",
          "name": "priceInNAvax",
          "type": "int256"
        }
      ],
      "stateMutability": "view",
      "type": "function"
    },
    {
      "inputs": [],
      "name": "decimals",
      "outputs": [
        {
          "internalType": "uint8",
          "name": "",
          "type": "uint8"
        }
      ],
      "stateMutability": "view",
      "type": "function"
    },
    {
      "inputs": [
        {
          "internalType": "address",
          "name": "spender",
          "type": "address"
        },
        {
          "internalType": "uint256",
          "name": "subtractedValue",
          "type": "uint256"
        }
      ],
      "name": "decreaseAllowance",
      "outputs": [
        {
          "internalType": "bool",
          "name": "",
          "type": "bool"
        }
      ],
      "stateMutability": "nonpayable",
      "type": "function"
    },
    {
      "inputs": [],
      "name": "getLatestPrice",
      "outputs": [
        {
          "internalType": "int256",
          "name": "",
          "type": "int256"
        }
      ],
      "stateMutability": "view",
      "type": "function"
    },
    {
      "inputs": [
        {
          "internalType": "address",
          "name": "spender",
          "type": "address"
        },
        {
          "internalType": "uint256",
          "name": "addedValue",
          "type": "uint256"
        }
      ],
      "name": "increaseAllowance",
      "outputs": [
        {
          "internalType": "bool",
          "name": "",
          "type": "bool"
        }
      ],
      "stateMutability": "nonpayable",
      "type": "function"
    },
    {
      "inputs": [
        {
          "internalType": "address",
          "name": "account",
          "type": "address"
        },
        {
          "internalType": "uint256",
          "name": "amount",
          "type": "uint256"
        }
      ],
      "name": "mint",
      "outputs": [
        {
          "internalType": "bool",
          "name": "sucess",
          "type": "bool"
        }
      ],
      "stateMutability": "nonpayable",
      "type": "function"
    },
    {
      "inputs": [],
      "name": "name",
      "outputs": [
        {
          "internalType": "string",
          "name": "",
          "type": "string"
        }
      ],
      "stateMutability": "view",
      "type": "function"
    },
    {
      "inputs": [],
      "name": "owner",
      "outputs": [
        {
          "internalType": "address",
          "name": "",
          "type": "address"
        }
      ],
      "stateMutability": "view",
      "type": "function"
    },
    {
      "inputs": [],
      "name": "renounceOwnership",
      "outputs": [],
      "stateMutability": "nonpayable",
      "type": "function"
    },
    {
      "inputs": [],
      "name": "symbol",
      "outputs": [
        {
          "internalType": "string",
          "name": "",
          "type": "string"
        }
      ],
      "stateMutability": "view",
      "type": "function"
    },
    {
      "inputs": [],
      "name": "totalSupply",
      "outputs": [
        {
          "internalType": "uint256",
          "name": "",
          "type": "uint256"
        }
      ],
      "stateMutability": "view",
      "type": "function"
    },
    {
      "inputs": [
        {
          "internalType": "address",
          "name": "recipient",
          "type": "address"
        },
        {
          "internalType": "uint256",
          "name": "amount",
          "type": "uint256"
        }
      ],
      "name": "transfer",
      "outputs": [
        {
          "internalType": "bool",
          "name": "",
          "type": "bool"
        }
      ],
      "stateMutability": "nonpayable",
      "type": "function"
    },
    {
      "inputs": [
        {
          "internalType": "address",
          "name": "sender",
          "type": "address"
        },
        {
          "internalType": "address",
          "name": "recipient",
          "type": "address"
        },
        {
          "internalType": "uint256",
          "name": "amount",
          "type": "uint256"
        }
      ],
      "name": "transferFrom",
      "outputs": [
        {
          "internalType": "bool",
          "name": "",
          "type": "bool"
        }
      ],
      "stateMutability": "nonpayable",
      "type": "function"
    },
    {
      "inputs": [
        {
          "internalType": "address",
          "name": "newOwner",
          "type": "address"
        }
      ],
      "name": "transferOwnership",
      "outputs": [],
      "stateMutability": "nonpayable",
      "type": "function"
    },
    {
      "inputs": [
        {
          "internalType": "uint256",
          "name": "amount",
          "type": "uint256"
        }
      ],
      "name": "withdraw",
      "outputs": [
        {
          "internalType": "bool",
          "name": "success",
          "type": "bool"
        }
      ],
      "stateMutability": "nonpayable",
      "type": "function"
    }
  ],
  "bytecode": "0x60806040526305f5e1006008553480156200001957600080fd5b506040805180820182526011815270496e666c75656e63657245636f6e6f6d7960781b6020808301918252835180850190945260048452631253919360e21b9084015281519192916200006f91600391620002ee565b50805162000085906004906020840190620002ee565b505050620000a26200009c6200010960201b60201c565b6200010d565b6001600655600780546001600160a01b031916735498bb86bc934c8d34fda08e81d444153d0d06ad1790556200010233620000dc6200015f565b620000ec9060ff16600a620004b3565b620000fc90630bebc200620005a8565b62000164565b506200061d565b3390565b600580546001600160a01b038381166001600160a01b0319831681179093556040519116919082907f8be0079c531659141344cd1fd0a4f28419497f9722a3daafe3b4186f6b6457e090600090a35050565b601290565b60006200017062000109565b6001600160a01b03166200018362000201565b6001600160a01b031614620001b55760405162461bcd60e51b8152600401620001ac9062000394565b60405180910390fd5b6001600160a01b03831615801590620001cd57508115155b620001ec5760405162461bcd60e51b8152600401620001ac90620003c9565b620001f8838362000210565b50600192915050565b6005546001600160a01b031690565b6001600160a01b038216620002395760405162461bcd60e51b8152600401620001ac906200040b565b6200024760008383620002e9565b80600260008282546200025b91906200044b565b90915550506001600160a01b038216600090815260208190526040812080548392906200028a9084906200044b565b90915550506040516001600160a01b038316906000907fddf252ad1be2c89b69c2b068fc378daa952ba7f163c4a11628f55a4df523b3ef90620002cf90859062000442565b60405180910390a3620002e560008383620002e9565b5050565b505050565b828054620002fc90620005ca565b90600052602060002090601f0160209004810192826200032057600085556200036b565b82601f106200033b57805160ff19168380011785556200036b565b828001600101855582156200036b579182015b828111156200036b5782518255916020019190600101906200034e565b50620003799291506200037d565b5090565b5b808211156200037957600081556001016200037e565b6020808252818101527f4f776e61626c653a2063616c6c6572206973206e6f7420746865206f776e6572604082015260600190565b60208082526022908201527f45524332303a2066756e6374696f6e206d696e7420696e76616c696420696e706040820152611d5d60f21b606082015260800190565b6020808252601f908201527f45524332303a206d696e7420746f20746865207a65726f206164647265737300604082015260600190565b90815260200190565b6000821982111562000461576200046162000607565b500190565b80825b60018086116200047a5750620004aa565b8187048211156200048f576200048f62000607565b808616156200049d57918102915b9490941c93800262000469565b94509492505050565b6000620004c46000198484620004cb565b9392505050565b600082620004dc57506001620004c4565b81620004eb57506000620004c4565b81600181146200050457600281146200050f5762000543565b6001915050620004c4565b60ff84111562000523576200052362000607565b6001841b9150848211156200053c576200053c62000607565b50620004c4565b5060208310610133831016604e8410600b84101617156200057b575081810a8381111562000575576200057562000607565b620004c4565b6200058a848484600162000466565b8086048211156200059f576200059f62000607565b02949350505050565b6000816000190483118215151615620005c557620005c562000607565b500290565b600281046001821680620005df57607f821691505b602082108114156200060157634e487b7160e01b600052602260045260246000fd5b50919050565b634e487b7160e01b600052601160045260246000fd5b6117f1806200062d6000396000f3fe6080604052600436106101295760003560e01c806370a08231116100ab5780639dc29fac1161006f5780639dc29fac1461030d578063a457c2d71461032d578063a9059cbb1461034d578063d96a094a1461036d578063dd62ed3e14610380578063f2fde38b146103a057610129565b806370a082311461028c578063715018a6146102ac5780638da5cb5b146102c15780638e15f473146102e357806395d89b41146102f857610129565b80632e1a7d4d116100f25780632e1a7d4d146101e8578063313ce567146102085780633237143f1461022a578063395093511461024c57806340c10f191461026c57610129565b80626b1fd91461012e57806306fdde0314610164578063095ea7b31461018657806318160ddd146101b357806323b872dd146101c8575b600080fd5b34801561013a57600080fd5b5061014e610149366004610fa0565b6103c0565b60405161015b919061103f565b60405180910390f35b34801561017057600080fd5b50610179610403565b60405161015b9190611048565b34801561019257600080fd5b506101a66101a1366004610f77565b610495565b60405161015b9190611034565b3480156101bf57600080fd5b5061014e6104b2565b3480156101d457600080fd5b506101a66101e3366004610f3c565b6104b8565b3480156101f457600080fd5b506101a6610203366004610fa0565b610553565b34801561021457600080fd5b5061021d610618565b60405161015b919061153d565b34801561023657600080fd5b5061024a610245366004610ef0565b61061d565b005b34801561025857600080fd5b506101a6610267366004610f77565b61068d565b34801561027857600080fd5b506101a6610287366004610f77565b6106dc565b34801561029857600080fd5b5061014e6102a7366004610ef0565b61075a565b3480156102b857600080fd5b5061024a610775565b3480156102cd57600080fd5b506102d66107c0565b60405161015b9190611007565b3480156102ef57600080fd5b5061014e6107cf565b34801561030457600080fd5b5061017961086d565b34801561031957600080fd5b506101a6610328366004610f77565b61087c565b34801561033957600080fd5b506101a6610348366004610f77565b6108e2565b34801561035957600080fd5b506101a6610368366004610f77565b61095b565b61024a61037b366004610fa0565b61096f565b34801561038c57600080fd5b5061014e61039b366004610f0a565b610a34565b3480156103ac57600080fd5b5061024a6103bb366004610ef0565b610a5f565b600060646008546103cf6107cf565b6103d99190611563565b6103e784633b9aca006116b1565b6103f19190611563565b6103fb9190611563565b90505b919050565b6060600380546104129061176a565b80601f016020809104026020016040519081016040528092919081815260200182805461043e9061176a565b801561048b5780601f106104605761010080835404028352916020019161048b565b820191906000526020600020905b81548152906001019060200180831161046e57829003601f168201915b5050505050905090565b60006104a96104a2610acd565b8484610ad1565b50600192915050565b60025490565b60006104c5848484610b85565b6001600160a01b0384166000908152600160205260408120816104e6610acd565b6001600160a01b03166001600160a01b03168152602001908152602001600020549050828110156105325760405162461bcd60e51b815260040161052990611232565b60405180910390fd5b6105468561053e610acd565b858403610ad1565b60019150505b9392505050565b600061055d610acd565b6001600160a01b031661056e6107c0565b6001600160a01b0316146105945760405162461bcd60e51b81526004016105299061127a565b600260065414156105b75760405162461bcd60e51b81526004016105299061148a565b6002600655478211156105dc5760405162461bcd60e51b815260040161052990611120565b604051339083156108fc029084906000818181858888f19350505050158015610609573d6000803e3d6000fd5b50600190506001600655919050565b601290565b610625610acd565b6001600160a01b03166106366107c0565b6001600160a01b03161461065c5760405162461bcd60e51b81526004016105299061127a565b61068a3382610669610618565b6106779060ff16600a6115e3565b61068590630aba9500611734565b610ad1565b50565b60006104a961069a610acd565b8484600160006106a8610acd565b6001600160a01b03908116825260208083019390935260409182016000908120918b1681529252902054610685919061154b565b60006106e6610acd565b6001600160a01b03166106f76107c0565b6001600160a01b03161461071d5760405162461bcd60e51b81526004016105299061127a565b6001600160a01b0383161580159061073457508115155b6107505760405162461bcd60e51b8152600401610529906112e6565b6104a98383610caf565b6001600160a01b031660009081526020819052604090205490565b61077d610acd565b6001600160a01b031661078e6107c0565b6001600160a01b0316146107b45760405162461bcd60e51b81526004016105299061127a565b6107be6000610d7b565b565b6005546001600160a01b031690565b600080600080600080600760009054906101000a90046001600160a01b03166001600160a01b031663feaf968c6040518163ffffffff1660e01b815260040160a06040518083038186803b15801561082657600080fd5b505afa15801561083a573d6000803e3d6000fd5b505050506040513d601f19601f8201168201806040525081019061085e9190610fb8565b50919850505050505050505090565b6060600480546104129061176a565b6000816108883361075a565b116108a55760405162461bcd60e51b815260040161052990611434565b6001600160a01b038316158015906108bc57508115155b6108d85760405162461bcd60e51b8152600401610529906113ae565b6104a98383610dcd565b600080600160006108f1610acd565b6001600160a01b039081168252602080830193909352604091820160009081209188168152925290205490508281101561093d5760405162461bcd60e51b8152600401610529906114c1565b610951610948610acd565b85858403610ad1565b5060019392505050565b60006104a9610968610acd565b8484610b85565b600260065414156109925760405162461bcd60e51b81526004016105299061148a565b600260065560006109a360056103c0565b905060006109b18383611734565b9050333181118015906109c357508015155b6109df5760405162461bcd60e51b8152600401610529906112af565b6109f16109ea6107c0565b3383610b85565b7fe3d4187f6ca4248660cc0ac8b8056515bac4a8132be2eca31d6d0cc170722a7e3384604051610a2292919061101b565b60405180910390a15050600160065550565b6001600160a01b03918216600090815260016020908152604080832093909416825291909152205490565b610a67610acd565b6001600160a01b0316610a786107c0565b6001600160a01b031614610a9e5760405162461bcd60e51b81526004016105299061127a565b6001600160a01b038116610ac45760405162461bcd60e51b815260040161052990611164565b61068a81610d7b565b3390565b6001600160a01b038316610af75760405162461bcd60e51b8152600401610529906113f0565b6001600160a01b038216610b1d5760405162461bcd60e51b8152600401610529906111aa565b6001600160a01b0380841660008181526001602090815260408083209487168084529490915290819020849055517f8c5be1e5ebec7d5bd14f71427d1e84f3dd0314c0f7b2291e5b200ac8c7c3b92590610b7890859061103f565b60405180910390a3505050565b6001600160a01b038316610bab5760405162461bcd60e51b815260040161052990611369565b6001600160a01b038216610bd15760405162461bcd60e51b81526004016105299061109b565b610bdc838383610eba565b6001600160a01b03831660009081526020819052604090205481811015610c155760405162461bcd60e51b8152600401610529906111ec565b6001600160a01b03808516600090815260208190526040808220858503905591851681529081208054849290610c4c90849061154b565b92505081905550826001600160a01b0316846001600160a01b03167fddf252ad1be2c89b69c2b068fc378daa952ba7f163c4a11628f55a4df523b3ef84604051610c96919061103f565b60405180910390a3610ca9848484610eba565b50505050565b6001600160a01b038216610cd55760405162461bcd60e51b815260040161052990611506565b610ce160008383610eba565b8060026000828254610cf3919061154b565b90915550506001600160a01b03821660009081526020819052604081208054839290610d2090849061154b565b90915550506040516001600160a01b038316906000907fddf252ad1be2c89b69c2b068fc378daa952ba7f163c4a11628f55a4df523b3ef90610d6390859061103f565b60405180910390a3610d7760008383610eba565b5050565b600580546001600160a01b038381166001600160a01b0319831681179093556040519116919082907f8be0079c531659141344cd1fd0a4f28419497f9722a3daafe3b4186f6b6457e090600090a35050565b6001600160a01b038216610df35760405162461bcd60e51b815260040161052990611328565b610dff82600083610eba565b6001600160a01b03821660009081526020819052604090205481811015610e385760405162461bcd60e51b8152600401610529906110de565b6001600160a01b0383166000908152602081905260408120838303905560028054849290610e67908490611753565b90915550506040516000906001600160a01b038516907fddf252ad1be2c89b69c2b068fc378daa952ba7f163c4a11628f55a4df523b3ef90610eaa90869061103f565b60405180910390a3610eba836000845b505050565b80356001600160a01b03811681146103fe57600080fd5b805169ffffffffffffffffffff811681146103fe57600080fd5b600060208284031215610f01578081fd5b61054c82610ebf565b60008060408385031215610f1c578081fd5b610f2583610ebf565b9150610f3360208401610ebf565b90509250929050565b600080600060608486031215610f50578081fd5b610f5984610ebf565b9250610f6760208501610ebf565b9150604084013590509250925092565b60008060408385031215610f89578182fd5b610f9283610ebf565b946020939093013593505050565b600060208284031215610fb1578081fd5b5035919050565b600080600080600060a08688031215610fcf578081fd5b610fd886610ed6565b9450602086015193506040860151925060608601519150610ffb60808701610ed6565b90509295509295909350565b6001600160a01b0391909116815260200190565b6001600160a01b03929092168252602082015260400190565b901515815260200190565b90815260200190565b6000602080835283518082850152825b8181101561107457858101830151858201604001528201611058565b818111156110855783604083870101525b50601f01601f1916929092016040019392505050565b60208082526023908201527f45524332303a207472616e7366657220746f20746865207a65726f206164647260408201526265737360e81b606082015260800190565b60208082526022908201527f45524332303a206275726e20616d6f756e7420657863656564732062616c616e604082015261636560f01b606082015260800190565b60208082526024908201527f49434f3a2066756e6374696f6e20776974686472617720696e76616c696420696040820152631b9c1d5d60e21b606082015260800190565b60208082526026908201527f4f776e61626c653a206e6577206f776e657220697320746865207a65726f206160408201526564647265737360d01b606082015260800190565b60208082526022908201527f45524332303a20617070726f766520746f20746865207a65726f206164647265604082015261737360f01b606082015260800190565b60208082526026908201527f45524332303a207472616e7366657220616d6f756e7420657863656564732062604082015265616c616e636560d01b606082015260800190565b60208082526028908201527f45524332303a207472616e7366657220616d6f756e74206578636565647320616040820152676c6c6f77616e636560c01b606082015260800190565b6020808252818101527f4f776e61626c653a2063616c6c6572206973206e6f7420746865206f776e6572604082015260600190565b6020808252601f908201527f49434f3a2066756e6374696f6e2062757920696e76616c696420696e70757400604082015260600190565b60208082526022908201527f45524332303a2066756e6374696f6e206d696e7420696e76616c696420696e706040820152611d5d60f21b606082015260800190565b60208082526021908201527f45524332303a206275726e2066726f6d20746865207a65726f206164647265736040820152607360f81b606082015260800190565b60208082526025908201527f45524332303a207472616e736665722066726f6d20746865207a65726f206164604082015264647265737360d81b606082015260800190565b60208082526022908201527f45524332303a2066756e6374696f6e206275726e20696e76616c696420696e706040820152611d5d60f21b606082015260800190565b60208082526024908201527f45524332303a20617070726f76652066726f6d20746865207a65726f206164646040820152637265737360e01b606082015260800190565b60208082526036908201527f20796f752063616e6e6f74206275726e2074686520616d6f756e74206e6f7420604082015275185d985a5b18589b19481a5b881e5bdd5c881858d8dd60521b606082015260800190565b6020808252601f908201527f5265656e7472616e637947756172643a207265656e7472616e742063616c6c00604082015260600190565b60208082526025908201527f45524332303a2064656372656173656420616c6c6f77616e63652062656c6f77604082015264207a65726f60d81b606082015260800190565b6020808252601f908201527f45524332303a206d696e7420746f20746865207a65726f206164647265737300604082015260600190565b60ff91909116815260200190565b6000821982111561155e5761155e6117a5565b500190565b60008261157e57634e487b7160e01b81526012600452602481fd5b600160ff1b821460001984141615611598576115986117a5565b500590565b80825b60018086116115af57506115da565b8187048211156115c1576115c16117a5565b808616156115ce57918102915b9490941c9380026115a0565b94509492505050565b600061054c60001984846000826115fc5750600161054c565b816116095750600061054c565b816001811461161f576002811461162957611656565b600191505061054c565b60ff84111561163a5761163a6117a5565b6001841b915084821115611650576116506117a5565b5061054c565b5060208310610133831016604e8410600b8410161715611689575081810a83811115611684576116846117a5565b61054c565b611696848484600161159d565b8086048211156116a8576116a86117a5565b02949350505050565b60006001600160ff1b03818413828413808216868404861116156116d7576116d76117a5565b600160ff1b848712828116878305891216156116f5576116f56117a5565b858712925087820587128484161615611710576117106117a5565b87850587128184161615611726576117266117a5565b505050929093029392505050565b600081600019048311821515161561174e5761174e6117a5565b500290565b600082821015611765576117656117a5565b500390565b60028104600182168061177e57607f821691505b6020821081141561179f57634e487b7160e01b600052602260045260246000fd5b50919050565b634e487b7160e01b600052601160045260246000fdfea2646970667358221220edafd4234fca40dca07063d509d6df7694bd81ae2b66cd9b3c9fd5ffaae2612c64736f6c63430008000033",
  "linkReferences": {},
  "deployedLinkReferences": {}
}