{
  "_format": "hh-sol-artifact-1",
  "contractName": "PriceConsumerV3",
  "sourceName": "contracts/PriceConsumer.sol",
  "abi": [
    {
      "inputs": [],
      "stateMutability": "nonpayable",
      "type": "constructor"
    },
    {
      "inputs": [],
      "name": "getLatestPrice",
      "outputs": [
        {
          "internalType": "int256",
          "name": "",
          "type": "int256"
        }
      ],
      "stateMutability": "view",
      "type": "function"
    }
  ],
  "bytecode": "0x608060405234801561001057600080fd5b50600080546001600160a01b031916735498bb86bc934c8d34fda08e81d444153d0d06ad179055610197806100466000396000f3fe608060405234801561001057600080fd5b506004361061002b5760003560e01c80638e15f47314610030575b600080fd5b61003861004e565b6040516100459190610158565b60405180910390f35b60008060008060008060008054906101000a90046001600160a01b03166001600160a01b031663feaf968c6040518163ffffffff1660e01b815260040160a06040518083038186803b1580156100a357600080fd5b505afa1580156100b7573d6000803e3d6000fd5b505050506040513d601f19601f820116820180604052508101906100db9190610109565b50919850505050505050505090565b805169ffffffffffffffffffff8116811461010457600080fd5b919050565b600080600080600060a08688031215610120578081fd5b610129866100ea565b945060208601519350604086015192506060860151915061014c608087016100ea565b90509295509295909350565b9081526020019056fea2646970667358221220df9e8031d52ac5efe990a26be9d1c5a2d28039478fc2ccc3ac332a9f13e1d00a64736f6c63430008000033",
  "linkReferences": {},
  "deployedLinkReferences": {}
}